{
  "contractName": "CollectionFactory",
  "abi": [
    {
      "anonymous": false,
      "inputs": [
        {
          "indexed": false,
          "internalType": "string",
          "name": "_collectionName",
          "type": "string"
        },
        {
          "indexed": false,
          "internalType": "address",
          "name": "_collectionAddress",
          "type": "address"
        },
        {
          "indexed": false,
          "internalType": "address",
          "name": "_owner",
          "type": "address"
        },
        {
          "indexed": false,
          "internalType": "uint256",
          "name": "_timestamp",
          "type": "uint256"
        }
      ],
      "name": "NFTCollectionCreated",
      "type": "event"
    },
    {
      "inputs": [
        {
          "internalType": "string",
          "name": "_collectionName",
          "type": "string"
        },
        {
          "internalType": "string",
          "name": "_collectionSymbol",
          "type": "string"
        },
        {
          "internalType": "string",
          "name": "_baseURI",
          "type": "string"
        },
        {
          "internalType": "address",
          "name": "_marketContractAddress",
          "type": "address"
        }
      ],
      "name": "createNFTCollection",
      "outputs": [
        {
          "internalType": "address",
          "name": "collectionAddress",
          "type": "address"
        }
      ],
      "stateMutability": "nonpayable",
      "type": "function"
    }
  ],
  "bytecode": "0x608060405234801561001057600080fd5b50614a7c806100206000396000f3fe60806040523480156200001157600080fd5b50600436106200004b576000357c0100000000000000000000000000000000000000000000000000000000900480635dc8a62b1462000050575b600080fd5b6200006e600480360381019062000068919062000300565b62000086565b6040516200007d9190620003e0565b60405180910390f35b60008033868686866040516200009c9062000117565b620000ac95949392919062000490565b604051809103906000f080158015620000c9573d6000803e3d6000fd5b5090508091507f80bd20564b6d822fa39977cefda16be8dbdef591868b4d80adf9e8f34fd8b892868333426040516200010694939291906200051d565b60405180910390a150949350505050565b6144d5806200057283390190565b6000604051905090565b600080fd5b600080fd5b600080fd5b600080fd5b6000601f19601f8301169050919050565b7f4e487b7100000000000000000000000000000000000000000000000000000000600052604160045260246000fd5b6200018e8262000143565b810181811067ffffffffffffffff82111715620001b057620001af62000154565b5b80604052505050565b6000620001c562000125565b9050620001d3828262000183565b919050565b600067ffffffffffffffff821115620001f657620001f562000154565b5b620002018262000143565b9050602081019050919050565b82818337600083830152505050565b6000620002346200022e84620001d8565b620001b9565b9050828152602081018484840111156200025357620002526200013e565b5b620002608482856200020e565b509392505050565b600082601f83011262000280576200027f62000139565b5b8135620002928482602086016200021d565b91505092915050565b600073ffffffffffffffffffffffffffffffffffffffff82169050919050565b6000620002c8826200029b565b9050919050565b620002da81620002bb565b8114620002e657600080fd5b50565b600081359050620002fa81620002cf565b92915050565b600080600080608085870312156200031d576200031c6200012f565b5b600085013567ffffffffffffffff8111156200033e576200033d62000134565b5b6200034c8782880162000268565b945050602085013567ffffffffffffffff81111562000370576200036f62000134565b5b6200037e8782880162000268565b935050604085013567ffffffffffffffff811115620003a257620003a162000134565b5b620003b08782880162000268565b9250506060620003c387828801620002e9565b91505092959194509250565b620003da81620002bb565b82525050565b6000602082019050620003f76000830184620003cf565b92915050565b600081519050919050565b600082825260208201905092915050565b60005b83811015620004395780820151818401526020810190506200041c565b8381111562000449576000848401525b50505050565b60006200045c82620003fd565b62000468818562000408565b93506200047a81856020860162000419565b620004858162000143565b840191505092915050565b600060a082019050620004a76000830188620003cf565b8181036020830152620004bb81876200044f565b90508181036040830152620004d181866200044f565b90508181036060830152620004e781856200044f565b9050620004f86080830184620003cf565b9695505050505050565b6000819050919050565b620005178162000502565b82525050565b600060808201905081810360008301526200053981876200044f565b90506200054a6020830186620003cf565b620005596040830185620003cf565b6200056860608301846200050c565b9594505050505056fe60806040526003600b553480156200001657600080fd5b50604051620044d5380380620044d583398181016040528101906200003c9190620003ca565b838381600090805190602001906200005692919062000118565b5080600190805190602001906200006f92919062000118565b50505084600c60006101000a81548173ffffffffffffffffffffffffffffffffffffffff021916908373ffffffffffffffffffffffffffffffffffffffff16021790555081600d9080519060200190620000cb92919062000118565b5080600e60006101000a81548173ffffffffffffffffffffffffffffffffffffffff021916908373ffffffffffffffffffffffffffffffffffffffff160217905550505050505062000513565b8280546200012690620004de565b90600052602060002090601f0160209004810192826200014a576000855562000196565b82601f106200016557805160ff191683800117855562000196565b8280016001018555821562000196579182015b828111156200019557825182559160200191906001019062000178565b5b509050620001a59190620001a9565b5090565b5b80821115620001c4576000816000905550600101620001aa565b5090565b6000604051905090565b600080fd5b600080fd5b600073ffffffffffffffffffffffffffffffffffffffff82169050919050565b60006200020982620001dc565b9050919050565b6200021b81620001fc565b81146200022757600080fd5b50565b6000815190506200023b8162000210565b92915050565b600080fd5b600080fd5b6000601f19601f8301169050919050565b7f4e487b7100000000000000000000000000000000000000000000000000000000600052604160045260246000fd5b62000296826200024b565b810181811067ffffffffffffffff82111715620002b857620002b76200025c565b5b80604052505050565b6000620002cd620001c8565b9050620002db82826200028b565b919050565b600067ffffffffffffffff821115620002fe57620002fd6200025c565b5b62000309826200024b565b9050602081019050919050565b60005b838110156200033657808201518184015260208101905062000319565b8381111562000346576000848401525b50505050565b6000620003636200035d84620002e0565b620002c1565b90508281526020810184848401111562000382576200038162000246565b5b6200038f84828562000316565b509392505050565b600082601f830112620003af57620003ae62000241565b5b8151620003c18482602086016200034c565b91505092915050565b600080600080600060a08688031215620003e957620003e8620001d2565b5b6000620003f9888289016200022a565b955050602086015167ffffffffffffffff8111156200041d576200041c620001d7565b5b6200042b8882890162000397565b945050604086015167ffffffffffffffff8111156200044f576200044e620001d7565b5b6200045d8882890162000397565b935050606086015167ffffffffffffffff811115620004815762000480620001d7565b5b6200048f8882890162000397565b9250506080620004a2888289016200022a565b9150509295509295909350565b7f4e487b7100000000000000000000000000000000000000000000000000000000600052602260045260246000fd5b60006002820490506001821680620004f757607f821691505b6020821081036200050d576200050c620004af565b5b50919050565b613fb280620005236000396000f3fe608060405260043610610168576000357c0100000000000000000000000000000000000000000000000000000000900480636352211e116100d3578063b88d4fde1161008c578063b88d4fde146104c4578063c73358de146104ed578063c87b56dd14610516578063d5abeb0114610553578063df727d3b1461057e578063e985e9c5146105a957610168565b80636352211e146103a25780636f8b44b0146103df57806370a0823114610408578063714c53981461044557806395d89b4114610470578063a22cb4651461049b57610168565b80632f745c59116101255780632f745c591461028f5780633087cbe3146102cc57806337c3aa58146102f757806342842e0e146103135780634f6ccce71461033c57806355f804b31461037957610168565b806301ffc9a71461016d57806306fdde03146101aa578063081812fc146101d5578063095ea7b31461021257806318160ddd1461023b57806323b872dd14610266575b600080fd5b34801561017957600080fd5b50610194600480360381019061018f9190612925565b6105e6565b6040516101a1919061296d565b60405180910390f35b3480156101b657600080fd5b506101bf6105f8565b6040516101cc9190612a21565b60405180910390f35b3480156101e157600080fd5b506101fc60048036038101906101f79190612a79565b61068a565b6040516102099190612ae7565b60405180910390f35b34801561021e57600080fd5b5061023960048036038101906102349190612b2e565b61070f565b005b34801561024757600080fd5b50610250610826565b60405161025d9190612b7d565b60405180910390f35b34801561027257600080fd5b5061028d60048036038101906102889190612b98565b610833565b005b34801561029b57600080fd5b506102b660048036038101906102b19190612b2e565b610893565b6040516102c39190612b7d565b60405180910390f35b3480156102d857600080fd5b506102e1610938565b6040516102ee9190612ae7565b60405180910390f35b610311600480360381019061030c9190612e06565b61095e565b005b34801561031f57600080fd5b5061033a60048036038101906103359190612b98565b610b26565b005b34801561034857600080fd5b50610363600480360381019061035e9190612a79565b610b46565b6040516103709190612b7d565b60405180910390f35b34801561038557600080fd5b506103a0600480360381019061039b9190612e4f565b610bb7565b005b3480156103ae57600080fd5b506103c960048036038101906103c49190612a79565b610c61565b6040516103d69190612ae7565b60405180910390f35b3480156103eb57600080fd5b5061040660048036038101906104019190612a79565b610d12565b005b34801561041457600080fd5b5061042f600480360381019061042a9190612e98565b610e3c565b60405161043c9190612b7d565b60405180910390f35b34801561045157600080fd5b5061045a610ef3565b6040516104679190612a21565b60405180910390f35b34801561047c57600080fd5b50610485611015565b6040516104929190612a21565b60405180910390f35b3480156104a757600080fd5b506104c260048036038101906104bd9190612ef1565b6110a7565b005b3480156104d057600080fd5b506104eb60048036038101906104e69190612fd2565b6110bd565b005b3480156104f957600080fd5b50610514600480360381019061050f9190612e98565b61111f565b005b34801561052257600080fd5b5061053d60048036038101906105389190612a79565b611262565b60405161054a9190612a21565b60405180910390f35b34801561055f57600080fd5b50610568611274565b6040516105759190612b7d565b60405180910390f35b34801561058a57600080fd5b5061059361127a565b6040516105a09190612ae7565b60405180910390f35b3480156105b557600080fd5b506105d060048036038101906105cb9190613055565b6112a0565b6040516105dd919061296d565b60405180910390f35b60006105f182611334565b9050919050565b606060008054610607906130c4565b80601f0160208091040260200160405190810160405280929190818152602001828054610633906130c4565b80156106805780601f1061065557610100808354040283529160200191610680565b820191906000526020600020905b81548152906001019060200180831161066357829003601f168201915b5050505050905090565b6000610695826113ae565b6106d4576040517f08c379a00000000000000000000000000000000000000000000000000000000081526004016106cb90613167565b60405180910390fd5b6004600083815260200190815260200160002060009054906101000a900473ffffffffffffffffffffffffffffffffffffffff169050919050565b600061071a82610c61565b90508073ffffffffffffffffffffffffffffffffffffffff168373ffffffffffffffffffffffffffffffffffffffff160361078a576040517f08c379a0000000000000000000000000000000000000000000000000000000008152600401610781906131f9565b60405180910390fd5b8073ffffffffffffffffffffffffffffffffffffffff166107a961141a565b73ffffffffffffffffffffffffffffffffffffffff1614806107d857506107d7816107d261141a565b6112a0565b5b610817576040517f08c379a000000000000000000000000000000000000000000000000000000000815260040161080e9061328b565b60405180910390fd5b6108218383611422565b505050565b6000600880549050905090565b61084461083e61141a565b826114db565b610883576040517f08c379a000000000000000000000000000000000000000000000000000000000815260040161087a9061331d565b60405180910390fd5b61088e8383836115b9565b505050565b600061089e83610e3c565b82106108df576040517f08c379a00000000000000000000000000000000000000000000000000000000081526004016108d6906133af565b60405180910390fd5b600660008473ffffffffffffffffffffffffffffffffffffffff1673ffffffffffffffffffffffffffffffffffffffff168152602001908152602001600020600083815260200190815260200160002054905092915050565b600e60009054906101000a900473ffffffffffffffffffffffffffffffffffffffff1681565b600c60009054906101000a900473ffffffffffffffffffffffffffffffffffffffff1673ffffffffffffffffffffffffffffffffffffffff163373ffffffffffffffffffffffffffffffffffffffff16146109ee576040517f08c379a00000000000000000000000000000000000000000000000000000000081526004016109e59061341b565b60405180910390fd5b60006109f8610826565b9050600b548110610a3e576040517f08c379a0000000000000000000000000000000000000000000000000000000008152600401610a3590613487565b60405180910390fd5b60005b8251811015610af4578180610a55906134d6565b9250506000829050610a67338261181f565b610a8b81858481518110610a7e57610a7d61351e565b5b602002602001015161183d565b7fec2cd236ed6d37bf5a71276ac93889db12834493a090efd543a3d2eca8dcdcc88133868581518110610ac157610ac061351e565b5b6020026020010151604051610ad89392919061354d565b60405180910390a1508080610aec906134d6565b915050610a41565b50610b22600e60009054906101000a900473ffffffffffffffffffffffffffffffffffffffff1660016110a7565b5050565b610b41838383604051806020016040528060008152506110bd565b505050565b6000610b50610826565b8210610b91576040517f08c379a0000000000000000000000000000000000000000000000000000000008152600401610b88906135fd565b60405180910390fd5b60088281548110610ba557610ba461351e565b5b90600052602060002001549050919050565b600c60009054906101000a900473ffffffffffffffffffffffffffffffffffffffff1673ffffffffffffffffffffffffffffffffffffffff163373ffffffffffffffffffffffffffffffffffffffff1614610c47576040517f08c379a0000000000000000000000000000000000000000000000000000000008152600401610c3e9061341b565b60405180910390fd5b80600d9080519060200190610c5d929190612816565b5050565b6000806002600084815260200190815260200160002060009054906101000a900473ffffffffffffffffffffffffffffffffffffffff169050600073ffffffffffffffffffffffffffffffffffffffff168173ffffffffffffffffffffffffffffffffffffffff1603610d09576040517f08c379a0000000000000000000000000000000000000000000000000000000008152600401610d009061368f565b60405180910390fd5b80915050919050565b600c60009054906101000a900473ffffffffffffffffffffffffffffffffffffffff1673ffffffffffffffffffffffffffffffffffffffff163373ffffffffffffffffffffffffffffffffffffffff1614610da2576040517f08c379a0000000000000000000000000000000000000000000000000000000008152600401610d999061341b565b60405180910390fd5b600c60009054906101000a900473ffffffffffffffffffffffffffffffffffffffff1673ffffffffffffffffffffffffffffffffffffffff163373ffffffffffffffffffffffffffffffffffffffff1614610e32576040517f08c379a0000000000000000000000000000000000000000000000000000000008152600401610e299061341b565b60405180910390fd5b80600b8190555050565b60008073ffffffffffffffffffffffffffffffffffffffff168273ffffffffffffffffffffffffffffffffffffffff1603610eac576040517f08c379a0000000000000000000000000000000000000000000000000000000008152600401610ea390613721565b60405180910390fd5b600360008373ffffffffffffffffffffffffffffffffffffffff1673ffffffffffffffffffffffffffffffffffffffff168152602001908152602001600020549050919050565b6060600c60009054906101000a900473ffffffffffffffffffffffffffffffffffffffff1673ffffffffffffffffffffffffffffffffffffffff163373ffffffffffffffffffffffffffffffffffffffff1614610f85576040517f08c379a0000000000000000000000000000000000000000000000000000000008152600401610f7c9061341b565b60405180910390fd5b600d8054610f92906130c4565b80601f0160208091040260200160405190810160405280929190818152602001828054610fbe906130c4565b801561100b5780601f10610fe05761010080835404028352916020019161100b565b820191906000526020600020905b815481529060010190602001808311610fee57829003601f168201915b5050505050905090565b606060018054611024906130c4565b80601f0160208091040260200160405190810160405280929190818152602001828054611050906130c4565b801561109d5780601f106110725761010080835404028352916020019161109d565b820191906000526020600020905b81548152906001019060200180831161108057829003601f168201915b5050505050905090565b6110b96110b261141a565b83836118b1565b5050565b6110ce6110c861141a565b836114db565b61110d576040517f08c379a00000000000000000000000000000000000000000000000000000000081526004016111049061331d565b60405180910390fd5b61111984848484611a1d565b50505050565b600c60009054906101000a900473ffffffffffffffffffffffffffffffffffffffff1673ffffffffffffffffffffffffffffffffffffffff163373ffffffffffffffffffffffffffffffffffffffff16146111af576040517f08c379a00000000000000000000000000000000000000000000000000000000081526004016111a69061341b565b60405180910390fd5b600073ffffffffffffffffffffffffffffffffffffffff168173ffffffffffffffffffffffffffffffffffffffff160361121e576040517f08c379a00000000000000000000000000000000000000000000000000000000081526004016112159061378d565b60405180910390fd5b80600e60006101000a81548173ffffffffffffffffffffffffffffffffffffffff021916908373ffffffffffffffffffffffffffffffffffffffff16021790555050565b606061126d82611a79565b9050919050565b600b5481565b600c60009054906101000a900473ffffffffffffffffffffffffffffffffffffffff1681565b6000600560008473ffffffffffffffffffffffffffffffffffffffff1673ffffffffffffffffffffffffffffffffffffffff16815260200190815260200160002060008373ffffffffffffffffffffffffffffffffffffffff1673ffffffffffffffffffffffffffffffffffffffff16815260200190815260200160002060009054906101000a900460ff16905092915050565b60007f780e9d63000000000000000000000000000000000000000000000000000000007bffffffffffffffffffffffffffffffffffffffffffffffffffffffff1916827bffffffffffffffffffffffffffffffffffffffffffffffffffffffff191614806113a757506113a682611bca565b5b9050919050565b60008073ffffffffffffffffffffffffffffffffffffffff166002600084815260200190815260200160002060009054906101000a900473ffffffffffffffffffffffffffffffffffffffff1673ffffffffffffffffffffffffffffffffffffffff1614159050919050565b600033905090565b816004600083815260200190815260200160002060006101000a81548173ffffffffffffffffffffffffffffffffffffffff021916908373ffffffffffffffffffffffffffffffffffffffff160217905550808273ffffffffffffffffffffffffffffffffffffffff1661149583610c61565b73ffffffffffffffffffffffffffffffffffffffff167f8c5be1e5ebec7d5bd14f71427d1e84f3dd0314c0f7b2291e5b200ac8c7c3b92560405160405180910390a45050565b60006114e6826113ae565b611525576040517f08c379a000000000000000000000000000000000000000000000000000000000815260040161151c9061381f565b60405180910390fd5b600061153083610c61565b90508073ffffffffffffffffffffffffffffffffffffffff168473ffffffffffffffffffffffffffffffffffffffff16148061159f57508373ffffffffffffffffffffffffffffffffffffffff166115878461068a565b73ffffffffffffffffffffffffffffffffffffffff16145b806115b057506115af81856112a0565b5b91505092915050565b8273ffffffffffffffffffffffffffffffffffffffff166115d982610c61565b73ffffffffffffffffffffffffffffffffffffffff161461162f576040517f08c379a0000000000000000000000000000000000000000000000000000000008152600401611626906138b1565b60405180910390fd5b600073ffffffffffffffffffffffffffffffffffffffff168273ffffffffffffffffffffffffffffffffffffffff160361169e576040517f08c379a000000000000000000000000000000000000000000000000000000000815260040161169590613943565b60405180910390fd5b6116a9838383611cac565b6116b4600082611422565b6001600360008573ffffffffffffffffffffffffffffffffffffffff1673ffffffffffffffffffffffffffffffffffffffff16815260200190815260200160002060008282546117049190613963565b925050819055506001600360008473ffffffffffffffffffffffffffffffffffffffff1673ffffffffffffffffffffffffffffffffffffffff168152602001908152602001600020600082825461175b9190613997565b92505081905550816002600083815260200190815260200160002060006101000a81548173ffffffffffffffffffffffffffffffffffffffff021916908373ffffffffffffffffffffffffffffffffffffffff160217905550808273ffffffffffffffffffffffffffffffffffffffff168473ffffffffffffffffffffffffffffffffffffffff167fddf252ad1be2c89b69c2b068fc378daa952ba7f163c4a11628f55a4df523b3ef60405160405180910390a461181a838383611cbc565b505050565b611839828260405180602001604052806000815250611cc1565b5050565b611846826113ae565b611885576040517f08c379a000000000000000000000000000000000000000000000000000000000815260040161187c90613a5f565b60405180910390fd5b80600a600084815260200190815260200160002090805190602001906118ac929190612816565b505050565b8173ffffffffffffffffffffffffffffffffffffffff168373ffffffffffffffffffffffffffffffffffffffff160361191f576040517f08c379a000000000000000000000000000000000000000000000000000000000815260040161191690613acb565b60405180910390fd5b80600560008573ffffffffffffffffffffffffffffffffffffffff1673ffffffffffffffffffffffffffffffffffffffff16815260200190815260200160002060008473ffffffffffffffffffffffffffffffffffffffff1673ffffffffffffffffffffffffffffffffffffffff16815260200190815260200160002060006101000a81548160ff0219169083151502179055508173ffffffffffffffffffffffffffffffffffffffff168373ffffffffffffffffffffffffffffffffffffffff167f17307eab39ab6107e8899845ad3d59bd9653f200f220920489ca2b5937696c3183604051611a10919061296d565b60405180910390a3505050565b611a288484846115b9565b611a3484848484611d1c565b611a73576040517f08c379a0000000000000000000000000000000000000000000000000000000008152600401611a6a90613b5d565b60405180910390fd5b50505050565b6060611a84826113ae565b611ac3576040517f08c379a0000000000000000000000000000000000000000000000000000000008152600401611aba90613bef565b60405180910390fd5b6000600a60008481526020019081526020016000208054611ae3906130c4565b80601f0160208091040260200160405190810160405280929190818152602001828054611b0f906130c4565b8015611b5c5780601f10611b3157610100808354040283529160200191611b5c565b820191906000526020600020905b815481529060010190602001808311611b3f57829003601f168201915b505050505090506000611b6d611edb565b90506000815103611b82578192505050611bc5565b600082511115611bb7578082604051602001611b9f929190613c4b565b60405160208183030381529060405292505050611bc5565b611bc084611f6d565b925050505b919050565b60007f80ac58cd000000000000000000000000000000000000000000000000000000007bffffffffffffffffffffffffffffffffffffffffffffffffffffffff1916827bffffffffffffffffffffffffffffffffffffffffffffffffffffffff19161480611c9557507f5b5e139f000000000000000000000000000000000000000000000000000000007bffffffffffffffffffffffffffffffffffffffffffffffffffffffff1916827bffffffffffffffffffffffffffffffffffffffffffffffffffffffff1916145b80611ca55750611ca482612014565b5b9050919050565b611cb783838361207e565b505050565b505050565b611ccb8383612190565b611cd86000848484611d1c565b611d17576040517f08c379a0000000000000000000000000000000000000000000000000000000008152600401611d0e90613b5d565b60405180910390fd5b505050565b6000611d3d8473ffffffffffffffffffffffffffffffffffffffff16612369565b15611ece578373ffffffffffffffffffffffffffffffffffffffff1663150b7a02611d6661141a565b8786866040518563ffffffff167c0100000000000000000000000000000000000000000000000000000000028152600401611da49493929190613cc4565b6020604051808303816000875af1925050508015611de057506040513d601f19601f82011682018060405250810190611ddd9190613d25565b60015b611e62573d8060008114611e10576040519150601f19603f3d011682016040523d82523d6000602084013e611e15565b606091505b506000815103611e5a576040517f08c379a0000000000000000000000000000000000000000000000000000000008152600401611e5190613b5d565b60405180910390fd5b805181602001fd5b63150b7a027c0100000000000000000000000000000000000000000000000000000000027bffffffffffffffffffffffffffffffffffffffffffffffffffffffff1916817bffffffffffffffffffffffffffffffffffffffffffffffffffffffff191614915050611ed3565b600190505b949350505050565b6060600d8054611eea906130c4565b80601f0160208091040260200160405190810160405280929190818152602001828054611f16906130c4565b8015611f635780601f10611f3857610100808354040283529160200191611f63565b820191906000526020600020905b815481529060010190602001808311611f4657829003601f168201915b5050505050905090565b6060611f78826113ae565b611fb7576040517f08c379a0000000000000000000000000000000000000000000000000000000008152600401611fae90613dc4565b60405180910390fd5b6000611fc1611edb565b90506000815111611fe1576040518060200160405280600081525061200c565b80611feb8461238c565b604051602001611ffc929190613c4b565b6040516020818303038152906040525b915050919050565b60007f01ffc9a7000000000000000000000000000000000000000000000000000000007bffffffffffffffffffffffffffffffffffffffffffffffffffffffff1916827bffffffffffffffffffffffffffffffffffffffffffffffffffffffff1916149050919050565b61208983838361250b565b600073ffffffffffffffffffffffffffffffffffffffff168373ffffffffffffffffffffffffffffffffffffffff16036120cb576120c681612510565b61210a565b8173ffffffffffffffffffffffffffffffffffffffff168373ffffffffffffffffffffffffffffffffffffffff1614612109576121088382612559565b5b5b600073ffffffffffffffffffffffffffffffffffffffff168273ffffffffffffffffffffffffffffffffffffffff160361214c57612147816126c6565b61218b565b8273ffffffffffffffffffffffffffffffffffffffff168273ffffffffffffffffffffffffffffffffffffffff161461218a576121898282612797565b5b5b505050565b600073ffffffffffffffffffffffffffffffffffffffff168273ffffffffffffffffffffffffffffffffffffffff16036121ff576040517f08c379a00000000000000000000000000000000000000000000000000000000081526004016121f690613e30565b60405180910390fd5b612208816113ae565b15612248576040517f08c379a000000000000000000000000000000000000000000000000000000000815260040161223f90613e9c565b60405180910390fd5b61225460008383611cac565b6001600360008473ffffffffffffffffffffffffffffffffffffffff1673ffffffffffffffffffffffffffffffffffffffff16815260200190815260200160002060008282546122a49190613997565b92505081905550816002600083815260200190815260200160002060006101000a81548173ffffffffffffffffffffffffffffffffffffffff021916908373ffffffffffffffffffffffffffffffffffffffff160217905550808273ffffffffffffffffffffffffffffffffffffffff16600073ffffffffffffffffffffffffffffffffffffffff167fddf252ad1be2c89b69c2b068fc378daa952ba7f163c4a11628f55a4df523b3ef60405160405180910390a461236560008383611cbc565b5050565b6000808273ffffffffffffffffffffffffffffffffffffffff163b119050919050565b6060600082036123d3576040518060400160405280600181526020017f30000000000000000000000000000000000000000000000000000000000000008152509050612506565b600082905060005b600082146124055780806123ee906134d6565b915050600a826123fe9190613eeb565b91506123db565b60008167ffffffffffffffff81111561242157612420612bf0565b5b6040519080825280601f01601f1916602001820160405280156124535781602001600182028036833780820191505090505b5090505b600085146124ff5760018261246c9190613963565b9150600a8561247b9190613f1c565b60306124879190613997565b7f0100000000000000000000000000000000000000000000000000000000000000028183815181106124bc576124bb61351e565b5b60200101907effffffffffffffffffffffffffffffffffffffffffffffffffffffffffffff1916908160001a905350600a856124f89190613eeb565b9450612457565b8093505050505b919050565b505050565b6008805490506009600083815260200190815260200160002081905550600881908060018154018082558091505060019003906000526020600020016000909190919091505550565b6000600161256684610e3c565b6125709190613963565b9050600060076000848152602001908152602001600020549050818114612655576000600660008673ffffffffffffffffffffffffffffffffffffffff1673ffffffffffffffffffffffffffffffffffffffff168152602001908152602001600020600084815260200190815260200160002054905080600660008773ffffffffffffffffffffffffffffffffffffffff1673ffffffffffffffffffffffffffffffffffffffff168152602001908152602001600020600084815260200190815260200160002081905550816007600083815260200190815260200160002081905550505b6007600084815260200190815260200160002060009055600660008573ffffffffffffffffffffffffffffffffffffffff1673ffffffffffffffffffffffffffffffffffffffff16815260200190815260200160002060008381526020019081526020016000206000905550505050565b600060016008805490506126da9190613963565b905060006009600084815260200190815260200160002054905060006008838154811061270a5761270961351e565b5b90600052602060002001549050806008838154811061272c5761272b61351e565b5b90600052602060002001819055508160096000838152602001908152602001600020819055506009600085815260200190815260200160002060009055600880548061277b5761277a613f4d565b5b6001900381819060005260206000200160009055905550505050565b60006127a283610e3c565b905081600660008573ffffffffffffffffffffffffffffffffffffffff1673ffffffffffffffffffffffffffffffffffffffff168152602001908152602001600020600083815260200190815260200160002081905550806007600084815260200190815260200160002081905550505050565b828054612822906130c4565b90600052602060002090601f016020900481019282612844576000855561288b565b82601f1061285d57805160ff191683800117855561288b565b8280016001018555821561288b579182015b8281111561288a57825182559160200191906001019061286f565b5b509050612898919061289c565b5090565b5b808211156128b557600081600090555060010161289d565b5090565b6000604051905090565b600080fd5b600080fd5b60007fffffffff0000000000000000000000000000000000000000000000000000000082169050919050565b612902816128cd565b811461290d57600080fd5b50565b60008135905061291f816128f9565b92915050565b60006020828403121561293b5761293a6128c3565b5b600061294984828501612910565b91505092915050565b60008115159050919050565b61296781612952565b82525050565b6000602082019050612982600083018461295e565b92915050565b600081519050919050565b600082825260208201905092915050565b60005b838110156129c25780820151818401526020810190506129a7565b838111156129d1576000848401525b50505050565b6000601f19601f8301169050919050565b60006129f382612988565b6129fd8185612993565b9350612a0d8185602086016129a4565b612a16816129d7565b840191505092915050565b60006020820190508181036000830152612a3b81846129e8565b905092915050565b6000819050919050565b612a5681612a43565b8114612a6157600080fd5b50565b600081359050612a7381612a4d565b92915050565b600060208284031215612a8f57612a8e6128c3565b5b6000612a9d84828501612a64565b91505092915050565b600073ffffffffffffffffffffffffffffffffffffffff82169050919050565b6000612ad182612aa6565b9050919050565b612ae181612ac6565b82525050565b6000602082019050612afc6000830184612ad8565b92915050565b612b0b81612ac6565b8114612b1657600080fd5b50565b600081359050612b2881612b02565b92915050565b60008060408385031215612b4557612b446128c3565b5b6000612b5385828601612b19565b9250506020612b6485828601612a64565b9150509250929050565b612b7781612a43565b82525050565b6000602082019050612b926000830184612b6e565b92915050565b600080600060608486031215612bb157612bb06128c3565b5b6000612bbf86828701612b19565b9350506020612bd086828701612b19565b9250506040612be186828701612a64565b9150509250925092565b600080fd5b7f4e487b7100000000000000000000000000000000000000000000000000000000600052604160045260246000fd5b612c28826129d7565b810181811067ffffffffffffffff82111715612c4757612c46612bf0565b5b80604052505050565b6000612c5a6128b9565b9050612c668282612c1f565b919050565b600067ffffffffffffffff821115612c8657612c85612bf0565b5b602082029050602081019050919050565b600080fd5b600080fd5b600067ffffffffffffffff821115612cbc57612cbb612bf0565b5b612cc5826129d7565b9050602081019050919050565b82818337600083830152505050565b6000612cf4612cef84612ca1565b612c50565b905082815260208101848484011115612d1057612d0f612c9c565b5b612d1b848285612cd2565b509392505050565b600082601f830112612d3857612d37612beb565b5b8135612d48848260208601612ce1565b91505092915050565b6000612d64612d5f84612c6b565b612c50565b90508083825260208201905060208402830185811115612d8757612d86612c97565b5b835b81811015612dce57803567ffffffffffffffff811115612dac57612dab612beb565b5b808601612db98982612d23565b85526020850194505050602081019050612d89565b5050509392505050565b600082601f830112612ded57612dec612beb565b5b8135612dfd848260208601612d51565b91505092915050565b600060208284031215612e1c57612e1b6128c3565b5b600082013567ffffffffffffffff811115612e3a57612e396128c8565b5b612e4684828501612dd8565b91505092915050565b600060208284031215612e6557612e646128c3565b5b600082013567ffffffffffffffff811115612e8357612e826128c8565b5b612e8f84828501612d23565b91505092915050565b600060208284031215612eae57612ead6128c3565b5b6000612ebc84828501612b19565b91505092915050565b612ece81612952565b8114612ed957600080fd5b50565b600081359050612eeb81612ec5565b92915050565b60008060408385031215612f0857612f076128c3565b5b6000612f1685828601612b19565b9250506020612f2785828601612edc565b9150509250929050565b600067ffffffffffffffff821115612f4c57612f4b612bf0565b5b612f55826129d7565b9050602081019050919050565b6000612f75612f7084612f31565b612c50565b905082815260208101848484011115612f9157612f90612c9c565b5b612f9c848285612cd2565b509392505050565b600082601f830112612fb957612fb8612beb565b5b8135612fc9848260208601612f62565b91505092915050565b60008060008060808587031215612fec57612feb6128c3565b5b6000612ffa87828801612b19565b945050602061300b87828801612b19565b935050604061301c87828801612a64565b925050606085013567ffffffffffffffff81111561303d5761303c6128c8565b5b61304987828801612fa4565b91505092959194509250565b6000806040838503121561306c5761306b6128c3565b5b600061307a85828601612b19565b925050602061308b85828601612b19565b9150509250929050565b7f4e487b7100000000000000000000000000000000000000000000000000000000600052602260045260246000fd5b600060028204905060018216806130dc57607f821691505b6020821081036130ef576130ee613095565b5b50919050565b7f4552433732313a20617070726f76656420717565727920666f72206e6f6e657860008201527f697374656e7420746f6b656e0000000000000000000000000000000000000000602082015250565b6000613151602c83612993565b915061315c826130f5565b604082019050919050565b6000602082019050818103600083015261318081613144565b9050919050565b7f4552433732313a20617070726f76616c20746f2063757272656e74206f776e6560008201527f7200000000000000000000000000000000000000000000000000000000000000602082015250565b60006131e3602183612993565b91506131ee82613187565b604082019050919050565b60006020820190508181036000830152613212816131d6565b9050919050565b7f4552433732313a20617070726f76652063616c6c6572206973206e6f74206f7760008201527f6e6572206e6f7220617070726f76656420666f7220616c6c0000000000000000602082015250565b6000613275603883612993565b915061328082613219565b604082019050919050565b600060208201905081810360008301526132a481613268565b9050919050565b7f4552433732313a207472616e736665722063616c6c6572206973206e6f74206f60008201527f776e6572206e6f7220617070726f766564000000000000000000000000000000602082015250565b6000613307603183612993565b9150613312826132ab565b604082019050919050565b60006020820190508181036000830152613336816132fa565b9050919050565b7f455243373231456e756d657261626c653a206f776e657220696e646578206f7560008201527f74206f6620626f756e6473000000000000000000000000000000000000000000602082015250565b6000613399602b83612993565b91506133a48261333d565b604082019050919050565b600060208201905081810360008301526133c88161338c565b9050919050565b7f4e6f74206f776e65720000000000000000000000000000000000000000000000600082015250565b6000613405600983612993565b9150613410826133cf565b602082019050919050565b60006020820190508181036000830152613434816133f8565b9050919050565b7f556e61626c6520746f206d696e74206d6f7265206974656d7300000000000000600082015250565b6000613471601983612993565b915061347c8261343b565b602082019050919050565b600060208201905081810360008301526134a081613464565b9050919050565b7f4e487b7100000000000000000000000000000000000000000000000000000000600052601160045260246000fd5b60006134e182612a43565b91507fffffffffffffffffffffffffffffffffffffffffffffffffffffffffffffffff8203613513576135126134a7565b5b600182019050919050565b7f4e487b7100000000000000000000000000000000000000000000000000000000600052603260045260246000fd5b60006060820190506135626000830186612b6e565b61356f6020830185612ad8565b818103604083015261358181846129e8565b9050949350505050565b7f455243373231456e756d657261626c653a20676c6f62616c20696e646578206f60008201527f7574206f6620626f756e64730000000000000000000000000000000000000000602082015250565b60006135e7602c83612993565b91506135f28261358b565b604082019050919050565b60006020820190508181036000830152613616816135da565b9050919050565b7f4552433732313a206f776e657220717565727920666f72206e6f6e657869737460008201527f656e7420746f6b656e0000000000000000000000000000000000000000000000602082015250565b6000613679602983612993565b91506136848261361d565b604082019050919050565b600060208201905081810360008301526136a88161366c565b9050919050565b7f4552433732313a2062616c616e636520717565727920666f7220746865207a6560008201527f726f206164647265737300000000000000000000000000000000000000000000602082015250565b600061370b602a83612993565b9150613716826136af565b604082019050919050565b6000602082019050818103600083015261373a816136fe565b9050919050565b7f41646472657373206e6f742076616c6964000000000000000000000000000000600082015250565b6000613777601183612993565b915061378282613741565b602082019050919050565b600060208201905081810360008301526137a68161376a565b9050919050565b7f4552433732313a206f70657261746f7220717565727920666f72206e6f6e657860008201527f697374656e7420746f6b656e0000000000000000000000000000000000000000602082015250565b6000613809602c83612993565b9150613814826137ad565b604082019050919050565b60006020820190508181036000830152613838816137fc565b9050919050565b7f4552433732313a207472616e736665722066726f6d20696e636f72726563742060008201527f6f776e6572000000000000000000000000000000000000000000000000000000602082015250565b600061389b602583612993565b91506138a68261383f565b604082019050919050565b600060208201905081810360008301526138ca8161388e565b9050919050565b7f4552433732313a207472616e7366657220746f20746865207a65726f2061646460008201527f7265737300000000000000000000000000000000000000000000000000000000602082015250565b600061392d602483612993565b9150613938826138d1565b604082019050919050565b6000602082019050818103600083015261395c81613920565b9050919050565b600061396e82612a43565b915061397983612a43565b92508282101561398c5761398b6134a7565b5b828203905092915050565b60006139a282612a43565b91506139ad83612a43565b9250827fffffffffffffffffffffffffffffffffffffffffffffffffffffffffffffffff038211156139e2576139e16134a7565b5b828201905092915050565b7f45524337323155524953746f726167653a2055524920736574206f66206e6f6e60008201527f6578697374656e7420746f6b656e000000000000000000000000000000000000602082015250565b6000613a49602e83612993565b9150613a54826139ed565b604082019050919050565b60006020820190508181036000830152613a7881613a3c565b9050919050565b7f4552433732313a20617070726f766520746f2063616c6c657200000000000000600082015250565b6000613ab5601983612993565b9150613ac082613a7f565b602082019050919050565b60006020820190508181036000830152613ae481613aa8565b9050919050565b7f4552433732313a207472616e7366657220746f206e6f6e20455243373231526560008201527f63656976657220696d706c656d656e7465720000000000000000000000000000602082015250565b6000613b47603283612993565b9150613b5282613aeb565b604082019050919050565b60006020820190508181036000830152613b7681613b3a565b9050919050565b7f45524337323155524953746f726167653a2055524920717565727920666f722060008201527f6e6f6e6578697374656e7420746f6b656e000000000000000000000000000000602082015250565b6000613bd9603183612993565b9150613be482613b7d565b604082019050919050565b60006020820190508181036000830152613c0881613bcc565b9050919050565b600081905092915050565b6000613c2582612988565b613c2f8185613c0f565b9350613c3f8185602086016129a4565b80840191505092915050565b6000613c578285613c1a565b9150613c638284613c1a565b91508190509392505050565b600081519050919050565b600082825260208201905092915050565b6000613c9682613c6f565b613ca08185613c7a565b9350613cb08185602086016129a4565b613cb9816129d7565b840191505092915050565b6000608082019050613cd96000830187612ad8565b613ce66020830186612ad8565b613cf36040830185612b6e565b8181036060830152613d058184613c8b565b905095945050505050565b600081519050613d1f816128f9565b92915050565b600060208284031215613d3b57613d3a6128c3565b5b6000613d4984828501613d10565b91505092915050565b7f4552433732314d657461646174613a2055524920717565727920666f72206e6f60008201527f6e6578697374656e7420746f6b656e0000000000000000000000000000000000602082015250565b6000613dae602f83612993565b9150613db982613d52565b604082019050919050565b60006020820190508181036000830152613ddd81613da1565b9050919050565b7f4552433732313a206d696e7420746f20746865207a65726f2061646472657373600082015250565b6000613e1a602083612993565b9150613e2582613de4565b602082019050919050565b60006020820190508181036000830152613e4981613e0d565b9050919050565b7f4552433732313a20746f6b656e20616c7265616479206d696e74656400000000600082015250565b6000613e86601c83612993565b9150613e9182613e50565b602082019050919050565b60006020820190508181036000830152613eb581613e79565b9050919050565b7f4e487b7100000000000000000000000000000000000000000000000000000000600052601260045260246000fd5b6000613ef682612a43565b9150613f0183612a43565b925082613f1157613f10613ebc565b5b828204905092915050565b6000613f2782612a43565b9150613f3283612a43565b925082613f4257613f41613ebc565b5b828206905092915050565b7f4e487b7100000000000000000000000000000000000000000000000000000000600052603160045260246000fdfea2646970667358221220c1aad8c18f68245f0a769e6f70bf1186b6f8789a144eb79635093612d007ada164736f6c634300080d0033a26469706673582212203d8dd1a71ddf788f7c11331ecea720e87bd715a5b08b7ed23e82ba38c9084e7a64736f6c634300080d0033",
  "immutableReferences": {},
  "source": "// SPDX-License-Identifier: MIT\npragma solidity 0.8.13;\n\n// importing the ERC-721 contract to deploy for an collection\nimport \"./CollectionToken.sol\";\n\n/**\n  * @notice Give the ability to deploy a contract to manage ERC-721 tokens for an collection. S/O @Snow\n  * @dev    If the contract is already deployed for an _collectionName, it will revert.\n  */\ncontract CollectionFactory {\n\n    event NFTCollectionCreated(string _collectionName, address _collectionAddress, address _owner, uint _timestamp);\n\n    /**\n      * @notice Deploy the ERC-721 Collection contract of the collection caller to be able to create NFTs later\n      *\n      * @return collectionAddress the address of the created collection contract\n      */\n    function createNFTCollection(\n        string memory _collectionName,\n        string memory _collectionSymbol,\n        string memory _baseURI,\n        address _marketContractAddress\n    ) external returns (address collectionAddress) {\n        CollectionToken newCollection = new CollectionToken(msg.sender, _collectionName, _collectionSymbol, _baseURI, _marketContractAddress);\n\n        collectionAddress = address(newCollection);\n        emit NFTCollectionCreated(_collectionName, collectionAddress, msg.sender, block.timestamp);\n        return collectionAddress;\n    }\n}\n",
  "sourcePath": "/Users/aline/alyra/alyra_nft/contracts/CollectionFactory.sol",
  "compiler": {
    "name": "solc",
    "version": "0.8.13+commit.abaa5c0e.Emscripten.clang"
  },
  "schemaVersion": "3.4.6",
  "updatedAt": "2022-05-15T20:05:08.688Z",
  "networkType": "ethereum",
  "devdoc": {
    "details": "If the contract is already deployed for an _collectionName, it will revert.",
    "kind": "dev",
    "methods": {
      "createNFTCollection(string,string,string,address)": {
        "returns": {
          "collectionAddress": "the address of the created collection contract"
        }
      }
    },
    "version": 1
  },
  "userdoc": {
    "kind": "user",
    "methods": {
      "createNFTCollection(string,string,string,address)": {
        "notice": "Deploy the ERC-721 Collection contract of the collection caller to be able to create NFTs later"
      }
    },
    "notice": "Give the ability to deploy a contract to manage ERC-721 tokens for an collection. S/O @Snow",
    "version": 1
  }
}