{
  "contractName": "CollectionToken",
  "abi": [
    {
      "inputs": [
        {
          "internalType": "string",
          "name": "_newBaseURI",
          "type": "string"
        },
        {
          "internalType": "address",
          "name": "_marketContractAddress",
          "type": "address"
        }
      ],
      "stateMutability": "nonpayable",
      "type": "constructor"
    },
    {
      "anonymous": false,
      "inputs": [
        {
          "indexed": true,
          "internalType": "address",
          "name": "owner",
          "type": "address"
        },
        {
          "indexed": true,
          "internalType": "address",
          "name": "approved",
          "type": "address"
        },
        {
          "indexed": true,
          "internalType": "uint256",
          "name": "tokenId",
          "type": "uint256"
        }
      ],
      "name": "Approval",
      "type": "event"
    },
    {
      "anonymous": false,
      "inputs": [
        {
          "indexed": true,
          "internalType": "address",
          "name": "owner",
          "type": "address"
        },
        {
          "indexed": true,
          "internalType": "address",
          "name": "operator",
          "type": "address"
        },
        {
          "indexed": false,
          "internalType": "bool",
          "name": "approved",
          "type": "bool"
        }
      ],
      "name": "ApprovalForAll",
      "type": "event"
    },
    {
      "anonymous": false,
      "inputs": [
        {
          "indexed": true,
          "internalType": "address",
          "name": "previousOwner",
          "type": "address"
        },
        {
          "indexed": true,
          "internalType": "address",
          "name": "newOwner",
          "type": "address"
        }
      ],
      "name": "OwnershipTransferred",
      "type": "event"
    },
    {
      "anonymous": false,
      "inputs": [
        {
          "indexed": false,
          "internalType": "uint256",
          "name": "tokenId",
          "type": "uint256"
        },
        {
          "indexed": false,
          "internalType": "address",
          "name": "owner",
          "type": "address"
        },
        {
          "indexed": false,
          "internalType": "string",
          "name": "tokenURI",
          "type": "string"
        }
      ],
      "name": "TokenMinted",
      "type": "event"
    },
    {
      "anonymous": false,
      "inputs": [
        {
          "indexed": true,
          "internalType": "address",
          "name": "from",
          "type": "address"
        },
        {
          "indexed": true,
          "internalType": "address",
          "name": "to",
          "type": "address"
        },
        {
          "indexed": true,
          "internalType": "uint256",
          "name": "tokenId",
          "type": "uint256"
        }
      ],
      "name": "Transfer",
      "type": "event"
    },
    {
      "inputs": [
        {
          "internalType": "address",
          "name": "to",
          "type": "address"
        },
        {
          "internalType": "uint256",
          "name": "tokenId",
          "type": "uint256"
        }
      ],
      "name": "approve",
      "outputs": [],
      "stateMutability": "nonpayable",
      "type": "function"
    },
    {
      "inputs": [
        {
          "internalType": "address",
          "name": "owner",
          "type": "address"
        }
      ],
      "name": "balanceOf",
      "outputs": [
        {
          "internalType": "uint256",
          "name": "",
          "type": "uint256"
        }
      ],
      "stateMutability": "view",
      "type": "function",
      "constant": true
    },
    {
      "inputs": [
        {
          "internalType": "uint256",
          "name": "tokenId",
          "type": "uint256"
        }
      ],
      "name": "getApproved",
      "outputs": [
        {
          "internalType": "address",
          "name": "",
          "type": "address"
        }
      ],
      "stateMutability": "view",
      "type": "function",
      "constant": true
    },
    {
      "inputs": [
        {
          "internalType": "address",
          "name": "owner",
          "type": "address"
        },
        {
          "internalType": "address",
          "name": "operator",
          "type": "address"
        }
      ],
      "name": "isApprovedForAll",
      "outputs": [
        {
          "internalType": "bool",
          "name": "",
          "type": "bool"
        }
      ],
      "stateMutability": "view",
      "type": "function",
      "constant": true
    },
    {
      "inputs": [],
      "name": "marketContractAddress",
      "outputs": [
        {
          "internalType": "address",
          "name": "",
          "type": "address"
        }
      ],
      "stateMutability": "view",
      "type": "function",
      "constant": true
    },
    {
      "inputs": [],
      "name": "maxSupply",
      "outputs": [
        {
          "internalType": "uint256",
          "name": "",
          "type": "uint256"
        }
      ],
      "stateMutability": "view",
      "type": "function",
      "constant": true
    },
    {
      "inputs": [],
      "name": "name",
      "outputs": [
        {
          "internalType": "string",
          "name": "",
          "type": "string"
        }
      ],
      "stateMutability": "view",
      "type": "function",
      "constant": true
    },
    {
      "inputs": [],
      "name": "owner",
      "outputs": [
        {
          "internalType": "address",
          "name": "",
          "type": "address"
        }
      ],
      "stateMutability": "view",
      "type": "function",
      "constant": true
    },
    {
      "inputs": [
        {
          "internalType": "uint256",
          "name": "tokenId",
          "type": "uint256"
        }
      ],
      "name": "ownerOf",
      "outputs": [
        {
          "internalType": "address",
          "name": "",
          "type": "address"
        }
      ],
      "stateMutability": "view",
      "type": "function",
      "constant": true
    },
    {
      "inputs": [],
      "name": "renounceOwnership",
      "outputs": [],
      "stateMutability": "nonpayable",
      "type": "function"
    },
    {
      "inputs": [
        {
          "internalType": "address",
          "name": "from",
          "type": "address"
        },
        {
          "internalType": "address",
          "name": "to",
          "type": "address"
        },
        {
          "internalType": "uint256",
          "name": "tokenId",
          "type": "uint256"
        }
      ],
      "name": "safeTransferFrom",
      "outputs": [],
      "stateMutability": "nonpayable",
      "type": "function"
    },
    {
      "inputs": [
        {
          "internalType": "address",
          "name": "from",
          "type": "address"
        },
        {
          "internalType": "address",
          "name": "to",
          "type": "address"
        },
        {
          "internalType": "uint256",
          "name": "tokenId",
          "type": "uint256"
        },
        {
          "internalType": "bytes",
          "name": "_data",
          "type": "bytes"
        }
      ],
      "name": "safeTransferFrom",
      "outputs": [],
      "stateMutability": "nonpayable",
      "type": "function"
    },
    {
      "inputs": [
        {
          "internalType": "address",
          "name": "operator",
          "type": "address"
        },
        {
          "internalType": "bool",
          "name": "approved",
          "type": "bool"
        }
      ],
      "name": "setApprovalForAll",
      "outputs": [],
      "stateMutability": "nonpayable",
      "type": "function"
    },
    {
      "inputs": [],
      "name": "symbol",
      "outputs": [
        {
          "internalType": "string",
          "name": "",
          "type": "string"
        }
      ],
      "stateMutability": "view",
      "type": "function",
      "constant": true
    },
    {
      "inputs": [
        {
          "internalType": "uint256",
          "name": "index",
          "type": "uint256"
        }
      ],
      "name": "tokenByIndex",
      "outputs": [
        {
          "internalType": "uint256",
          "name": "",
          "type": "uint256"
        }
      ],
      "stateMutability": "view",
      "type": "function",
      "constant": true
    },
    {
      "inputs": [
        {
          "internalType": "address",
          "name": "owner",
          "type": "address"
        },
        {
          "internalType": "uint256",
          "name": "index",
          "type": "uint256"
        }
      ],
      "name": "tokenOfOwnerByIndex",
      "outputs": [
        {
          "internalType": "uint256",
          "name": "",
          "type": "uint256"
        }
      ],
      "stateMutability": "view",
      "type": "function",
      "constant": true
    },
    {
      "inputs": [],
      "name": "totalSupply",
      "outputs": [
        {
          "internalType": "uint256",
          "name": "",
          "type": "uint256"
        }
      ],
      "stateMutability": "view",
      "type": "function",
      "constant": true
    },
    {
      "inputs": [
        {
          "internalType": "address",
          "name": "from",
          "type": "address"
        },
        {
          "internalType": "address",
          "name": "to",
          "type": "address"
        },
        {
          "internalType": "uint256",
          "name": "tokenId",
          "type": "uint256"
        }
      ],
      "name": "transferFrom",
      "outputs": [],
      "stateMutability": "nonpayable",
      "type": "function"
    },
    {
      "inputs": [
        {
          "internalType": "address",
          "name": "newOwner",
          "type": "address"
        }
      ],
      "name": "transferOwnership",
      "outputs": [],
      "stateMutability": "nonpayable",
      "type": "function"
    },
    {
      "inputs": [
        {
          "internalType": "uint256",
          "name": "_maxSupply",
          "type": "uint256"
        }
      ],
      "name": "setMaxSupply",
      "outputs": [],
      "stateMutability": "nonpayable",
      "type": "function"
    },
    {
      "inputs": [
        {
          "internalType": "address",
          "name": "_marketContractAddress",
          "type": "address"
        }
      ],
      "name": "setMarketContractAddress",
      "outputs": [],
      "stateMutability": "nonpayable",
      "type": "function"
    },
    {
      "inputs": [],
      "name": "getBaseURI",
      "outputs": [
        {
          "internalType": "string",
          "name": "",
          "type": "string"
        }
      ],
      "stateMutability": "view",
      "type": "function",
      "constant": true
    },
    {
      "inputs": [
        {
          "internalType": "string",
          "name": "_newBaseURI",
          "type": "string"
        }
      ],
      "name": "setBaseURI",
      "outputs": [],
      "stateMutability": "nonpayable",
      "type": "function"
    },
    {
      "inputs": [],
      "name": "mintCollection",
      "outputs": [],
      "stateMutability": "nonpayable",
      "type": "function"
    },
    {
      "inputs": [
        {
          "internalType": "bytes4",
          "name": "interfaceId",
          "type": "bytes4"
        }
      ],
      "name": "supportsInterface",
      "outputs": [
        {
          "internalType": "bool",
          "name": "",
          "type": "bool"
        }
      ],
      "stateMutability": "view",
      "type": "function",
      "constant": true
    },
    {
      "inputs": [
        {
          "internalType": "uint256",
          "name": "tokenId",
          "type": "uint256"
        }
      ],
      "name": "tokenURI",
      "outputs": [
        {
          "internalType": "string",
          "name": "",
          "type": "string"
        }
      ],
      "stateMutability": "view",
      "type": "function",
      "constant": true
    }
  ],
  "bytecode": "0x60806040526003600c553480156200001657600080fd5b50604051620046183803806200461883398181016040528101906200003c9190620004f0565b6040518060400160405280600f81526020017f43727970746f2042726f746865727300000000000000000000000000000000008152506040518060400160405280600281526020017f43420000000000000000000000000000000000000000000000000000000000008152508160009080519060200190620000c09291906200023e565b508060019080519060200190620000d99291906200023e565b5050506200010e620000f962000170640100000000026401000000009004565b62000178640100000000026401000000009004565b81600d9080519060200190620001269291906200023e565b5080600e60006101000a81548173ffffffffffffffffffffffffffffffffffffffff021916908373ffffffffffffffffffffffffffffffffffffffff1602179055505050620005ba565b600033905090565b6000600b60009054906101000a900473ffffffffffffffffffffffffffffffffffffffff16905081600b60006101000a81548173ffffffffffffffffffffffffffffffffffffffff021916908373ffffffffffffffffffffffffffffffffffffffff1602179055508173ffffffffffffffffffffffffffffffffffffffff168173ffffffffffffffffffffffffffffffffffffffff167f8be0079c531659141344cd1fd0a4f28419497f9722a3daafe3b4186f6b6457e060405160405180910390a35050565b8280546200024c9062000585565b90600052602060002090601f016020900481019282620002705760008555620002bc565b82601f106200028b57805160ff1916838001178555620002bc565b82800160010185558215620002bc579182015b82811115620002bb5782518255916020019190600101906200029e565b5b509050620002cb9190620002cf565b5090565b5b80821115620002ea576000816000905550600101620002d0565b5090565b6000604051905090565b600080fd5b600080fd5b600080fd5b600080fd5b6000601f19601f8301169050919050565b7f4e487b7100000000000000000000000000000000000000000000000000000000600052604160045260246000fd5b62000357826200030c565b810181811067ffffffffffffffff821117156200037957620003786200031d565b5b80604052505050565b60006200038e620002ee565b90506200039c82826200034c565b919050565b600067ffffffffffffffff821115620003bf57620003be6200031d565b5b620003ca826200030c565b9050602081019050919050565b60005b83811015620003f7578082015181840152602081019050620003da565b8381111562000407576000848401525b50505050565b6000620004246200041e84620003a1565b62000382565b90508281526020810184848401111562000443576200044262000307565b5b62000450848285620003d7565b509392505050565b600082601f83011262000470576200046f62000302565b5b8151620004828482602086016200040d565b91505092915050565b600073ffffffffffffffffffffffffffffffffffffffff82169050919050565b6000620004b8826200048b565b9050919050565b620004ca81620004ab565b8114620004d657600080fd5b50565b600081519050620004ea81620004bf565b92915050565b600080604083850312156200050a5762000509620002f8565b5b600083015167ffffffffffffffff8111156200052b576200052a620002fd565b5b620005398582860162000458565b92505060206200054c85828601620004d9565b9150509250929050565b7f4e487b7100000000000000000000000000000000000000000000000000000000600052602260045260246000fd5b600060028204905060018216806200059e57607f821691505b602082108103620005b457620005b362000556565b5b50919050565b61404e80620005ca6000396000f3fe608060405234801561001057600080fd5b50600436106101ab576000357c01000000000000000000000000000000000000000000000000000000009004806370a08231116100fb578063a22cb465116100b4578063c87b56dd1161008e578063c87b56dd14610478578063d5abeb01146104a8578063e985e9c5146104c6578063f2fde38b146104f6576101ab565b8063a22cb46514610424578063b88d4fde14610440578063c73358de1461045c576101ab565b806370a0823114610386578063714c5398146103b6578063715018a6146103d457806381cb3082146103de5780638da5cb5b146103e857806395d89b4114610406576101ab565b80632f745c59116101685780634f6ccce7116101425780634f6ccce7146102ee57806355f804b31461031e5780636352211e1461033a5780636f8b44b01461036a576101ab565b80632f745c59146102845780633087cbe3146102b457806342842e0e146102d2576101ab565b806301ffc9a7146101b057806306fdde03146101e0578063081812fc146101fe578063095ea7b31461022e57806318160ddd1461024a57806323b872dd14610268575b600080fd5b6101ca60048036038101906101c59190612a5e565b610512565b6040516101d79190612aa6565b60405180910390f35b6101e8610524565b6040516101f59190612b5a565b60405180910390f35b61021860048036038101906102139190612bb2565b6105b6565b6040516102259190612c20565b60405180910390f35b61024860048036038101906102439190612c67565b61063b565b005b610252610752565b60405161025f9190612cb6565b60405180910390f35b610282600480360381019061027d9190612cd1565b61075f565b005b61029e60048036038101906102999190612c67565b6107bf565b6040516102ab9190612cb6565b60405180910390f35b6102bc610864565b6040516102c99190612c20565b60405180910390f35b6102ec60048036038101906102e79190612cd1565b61088a565b005b61030860048036038101906103039190612bb2565b6108aa565b6040516103159190612cb6565b60405180910390f35b61033860048036038101906103339190612e59565b61091b565b005b610354600480360381019061034f9190612bb2565b6109b1565b6040516103619190612c20565b60405180910390f35b610384600480360381019061037f9190612bb2565b610a62565b005b6103a0600480360381019061039b9190612ea2565b610ae8565b6040516103ad9190612cb6565b60405180910390f35b6103be610b9f565b6040516103cb9190612b5a565b60405180910390f35b6103dc610cad565b005b6103e6610d35565b005b6103f0610fa1565b6040516103fd9190612c20565b60405180910390f35b61040e610fcb565b60405161041b9190612b5a565b60405180910390f35b61043e60048036038101906104399190612efb565b61105d565b005b61045a60048036038101906104559190612fdc565b611073565b005b61047660048036038101906104719190612ea2565b6110d5565b005b610492600480360381019061048d9190612bb2565b611204565b60405161049f9190612b5a565b60405180910390f35b6104b0611216565b6040516104bd9190612cb6565b60405180910390f35b6104e060048036038101906104db919061305f565b61121c565b6040516104ed9190612aa6565b60405180910390f35b610510600480360381019061050b9190612ea2565b6112b0565b005b600061051d826113a7565b9050919050565b606060008054610533906130ce565b80601f016020809104026020016040519081016040528092919081815260200182805461055f906130ce565b80156105ac5780601f10610581576101008083540402835291602001916105ac565b820191906000526020600020905b81548152906001019060200180831161058f57829003601f168201915b5050505050905090565b60006105c182611421565b610600576040517f08c379a00000000000000000000000000000000000000000000000000000000081526004016105f790613171565b60405180910390fd5b6004600083815260200190815260200160002060009054906101000a900473ffffffffffffffffffffffffffffffffffffffff169050919050565b6000610646826109b1565b90508073ffffffffffffffffffffffffffffffffffffffff168373ffffffffffffffffffffffffffffffffffffffff16036106b6576040517f08c379a00000000000000000000000000000000000000000000000000000000081526004016106ad90613203565b60405180910390fd5b8073ffffffffffffffffffffffffffffffffffffffff166106d561148d565b73ffffffffffffffffffffffffffffffffffffffff1614806107045750610703816106fe61148d565b61121c565b5b610743576040517f08c379a000000000000000000000000000000000000000000000000000000000815260040161073a90613295565b60405180910390fd5b61074d8383611495565b505050565b6000600880549050905090565b61077061076a61148d565b8261154e565b6107af576040517f08c379a00000000000000000000000000000000000000000000000000000000081526004016107a690613327565b60405180910390fd5b6107ba83838361162c565b505050565b60006107ca83610ae8565b821061080b576040517f08c379a0000000000000000000000000000000000000000000000000000000008152600401610802906133b9565b60405180910390fd5b600660008473ffffffffffffffffffffffffffffffffffffffff1673ffffffffffffffffffffffffffffffffffffffff168152602001908152602001600020600083815260200190815260200160002054905092915050565b600e60009054906101000a900473ffffffffffffffffffffffffffffffffffffffff1681565b6108a583838360405180602001604052806000815250611073565b505050565b60006108b4610752565b82106108f5576040517f08c379a00000000000000000000000000000000000000000000000000000000081526004016108ec9061344b565b60405180910390fd5b600882815481106109095761090861346b565b5b90600052602060002001549050919050565b61092361148d565b73ffffffffffffffffffffffffffffffffffffffff16610941610fa1565b73ffffffffffffffffffffffffffffffffffffffff1614610997576040517f08c379a000000000000000000000000000000000000000000000000000000000815260040161098e906134e6565b60405180910390fd5b80600d90805190602001906109ad92919061294f565b5050565b6000806002600084815260200190815260200160002060009054906101000a900473ffffffffffffffffffffffffffffffffffffffff169050600073ffffffffffffffffffffffffffffffffffffffff168173ffffffffffffffffffffffffffffffffffffffff1603610a59576040517f08c379a0000000000000000000000000000000000000000000000000000000008152600401610a5090613578565b60405180910390fd5b80915050919050565b610a6a61148d565b73ffffffffffffffffffffffffffffffffffffffff16610a88610fa1565b73ffffffffffffffffffffffffffffffffffffffff1614610ade576040517f08c379a0000000000000000000000000000000000000000000000000000000008152600401610ad5906134e6565b60405180910390fd5b80600c8190555050565b60008073ffffffffffffffffffffffffffffffffffffffff168273ffffffffffffffffffffffffffffffffffffffff1603610b58576040517f08c379a0000000000000000000000000000000000000000000000000000000008152600401610b4f9061360a565b60405180910390fd5b600360008373ffffffffffffffffffffffffffffffffffffffff1673ffffffffffffffffffffffffffffffffffffffff168152602001908152602001600020549050919050565b6060610ba961148d565b73ffffffffffffffffffffffffffffffffffffffff16610bc7610fa1565b73ffffffffffffffffffffffffffffffffffffffff1614610c1d576040517f08c379a0000000000000000000000000000000000000000000000000000000008152600401610c14906134e6565b60405180910390fd5b600d8054610c2a906130ce565b80601f0160208091040260200160405190810160405280929190818152602001828054610c56906130ce565b8015610ca35780601f10610c7857610100808354040283529160200191610ca3565b820191906000526020600020905b815481529060010190602001808311610c8657829003601f168201915b5050505050905090565b610cb561148d565b73ffffffffffffffffffffffffffffffffffffffff16610cd3610fa1565b73ffffffffffffffffffffffffffffffffffffffff1614610d29576040517f08c379a0000000000000000000000000000000000000000000000000000000008152600401610d20906134e6565b60405180910390fd5b610d336000611892565b565b610d3d61148d565b73ffffffffffffffffffffffffffffffffffffffff16610d5b610fa1565b73ffffffffffffffffffffffffffffffffffffffff1614610db1576040517f08c379a0000000000000000000000000000000000000000000000000000000008152600401610da8906134e6565b60405180910390fd5b6000610dbb610752565b9050600060405180606001604052806040518060400160405280600e81526020017f6d6f6a6f2d6a6f6a6f2e6a736f6e00000000000000000000000000000000000081525081526020016040518060400160405280600d81526020017f6d6f7270686575732e6a736f6e0000000000000000000000000000000000000081525081526020016040518060400160405280600b81526020017f6269676769652e6a736f6e0000000000000000000000000000000000000000008152508152509050600c548210610ebf576040517f08c379a0000000000000000000000000000000000000000000000000000000008152600401610eb690613676565b60405180910390fd5b60005b6003811015610f6f578280610ed6906136c5565b9350506000839050610ee83382611958565b610f0981848460038110610eff57610efe61346b565b5b6020020151611976565b7fec2cd236ed6d37bf5a71276ac93889db12834493a090efd543a3d2eca8dcdcc88133858560038110610f3f57610f3e61346b565b5b6020020151604051610f539392919061370d565b60405180910390a1508080610f67906136c5565b915050610ec2565b50610f9d600e60009054906101000a900473ffffffffffffffffffffffffffffffffffffffff16600161105d565b5050565b6000600b60009054906101000a900473ffffffffffffffffffffffffffffffffffffffff16905090565b606060018054610fda906130ce565b80601f0160208091040260200160405190810160405280929190818152602001828054611006906130ce565b80156110535780601f1061102857610100808354040283529160200191611053565b820191906000526020600020905b81548152906001019060200180831161103657829003601f168201915b5050505050905090565b61106f61106861148d565b83836119ea565b5050565b61108461107e61148d565b8361154e565b6110c3576040517f08c379a00000000000000000000000000000000000000000000000000000000081526004016110ba90613327565b60405180910390fd5b6110cf84848484611b56565b50505050565b6110dd61148d565b73ffffffffffffffffffffffffffffffffffffffff166110fb610fa1565b73ffffffffffffffffffffffffffffffffffffffff1614611151576040517f08c379a0000000000000000000000000000000000000000000000000000000008152600401611148906134e6565b60405180910390fd5b600073ffffffffffffffffffffffffffffffffffffffff168173ffffffffffffffffffffffffffffffffffffffff16036111c0576040517f08c379a00000000000000000000000000000000000000000000000000000000081526004016111b790613797565b60405180910390fd5b80600e60006101000a81548173ffffffffffffffffffffffffffffffffffffffff021916908373ffffffffffffffffffffffffffffffffffffffff16021790555050565b606061120f82611bb2565b9050919050565b600c5481565b6000600560008473ffffffffffffffffffffffffffffffffffffffff1673ffffffffffffffffffffffffffffffffffffffff16815260200190815260200160002060008373ffffffffffffffffffffffffffffffffffffffff1673ffffffffffffffffffffffffffffffffffffffff16815260200190815260200160002060009054906101000a900460ff16905092915050565b6112b861148d565b73ffffffffffffffffffffffffffffffffffffffff166112d6610fa1565b73ffffffffffffffffffffffffffffffffffffffff161461132c576040517f08c379a0000000000000000000000000000000000000000000000000000000008152600401611323906134e6565b60405180910390fd5b600073ffffffffffffffffffffffffffffffffffffffff168173ffffffffffffffffffffffffffffffffffffffff160361139b576040517f08c379a000000000000000000000000000000000000000000000000000000000815260040161139290613829565b60405180910390fd5b6113a481611892565b50565b60007f780e9d63000000000000000000000000000000000000000000000000000000007bffffffffffffffffffffffffffffffffffffffffffffffffffffffff1916827bffffffffffffffffffffffffffffffffffffffffffffffffffffffff1916148061141a575061141982611d03565b5b9050919050565b60008073ffffffffffffffffffffffffffffffffffffffff166002600084815260200190815260200160002060009054906101000a900473ffffffffffffffffffffffffffffffffffffffff1673ffffffffffffffffffffffffffffffffffffffff1614159050919050565b600033905090565b816004600083815260200190815260200160002060006101000a81548173ffffffffffffffffffffffffffffffffffffffff021916908373ffffffffffffffffffffffffffffffffffffffff160217905550808273ffffffffffffffffffffffffffffffffffffffff16611508836109b1565b73ffffffffffffffffffffffffffffffffffffffff167f8c5be1e5ebec7d5bd14f71427d1e84f3dd0314c0f7b2291e5b200ac8c7c3b92560405160405180910390a45050565b600061155982611421565b611598576040517f08c379a000000000000000000000000000000000000000000000000000000000815260040161158f906138bb565b60405180910390fd5b60006115a3836109b1565b90508073ffffffffffffffffffffffffffffffffffffffff168473ffffffffffffffffffffffffffffffffffffffff16148061161257508373ffffffffffffffffffffffffffffffffffffffff166115fa846105b6565b73ffffffffffffffffffffffffffffffffffffffff16145b806116235750611622818561121c565b5b91505092915050565b8273ffffffffffffffffffffffffffffffffffffffff1661164c826109b1565b73ffffffffffffffffffffffffffffffffffffffff16146116a2576040517f08c379a00000000000000000000000000000000000000000000000000000000081526004016116999061394d565b60405180910390fd5b600073ffffffffffffffffffffffffffffffffffffffff168273ffffffffffffffffffffffffffffffffffffffff1603611711576040517f08c379a0000000000000000000000000000000000000000000000000000000008152600401611708906139df565b60405180910390fd5b61171c838383611de5565b611727600082611495565b6001600360008573ffffffffffffffffffffffffffffffffffffffff1673ffffffffffffffffffffffffffffffffffffffff168152602001908152602001600020600082825461177791906139ff565b925050819055506001600360008473ffffffffffffffffffffffffffffffffffffffff1673ffffffffffffffffffffffffffffffffffffffff16815260200190815260200160002060008282546117ce9190613a33565b92505081905550816002600083815260200190815260200160002060006101000a81548173ffffffffffffffffffffffffffffffffffffffff021916908373ffffffffffffffffffffffffffffffffffffffff160217905550808273ffffffffffffffffffffffffffffffffffffffff168473ffffffffffffffffffffffffffffffffffffffff167fddf252ad1be2c89b69c2b068fc378daa952ba7f163c4a11628f55a4df523b3ef60405160405180910390a461188d838383611df5565b505050565b6000600b60009054906101000a900473ffffffffffffffffffffffffffffffffffffffff16905081600b60006101000a81548173ffffffffffffffffffffffffffffffffffffffff021916908373ffffffffffffffffffffffffffffffffffffffff1602179055508173ffffffffffffffffffffffffffffffffffffffff168173ffffffffffffffffffffffffffffffffffffffff167f8be0079c531659141344cd1fd0a4f28419497f9722a3daafe3b4186f6b6457e060405160405180910390a35050565b611972828260405180602001604052806000815250611dfa565b5050565b61197f82611421565b6119be576040517f08c379a00000000000000000000000000000000000000000000000000000000081526004016119b590613afb565b60405180910390fd5b80600a600084815260200190815260200160002090805190602001906119e592919061294f565b505050565b8173ffffffffffffffffffffffffffffffffffffffff168373ffffffffffffffffffffffffffffffffffffffff1603611a58576040517f08c379a0000000000000000000000000000000000000000000000000000000008152600401611a4f90613b67565b60405180910390fd5b80600560008573ffffffffffffffffffffffffffffffffffffffff1673ffffffffffffffffffffffffffffffffffffffff16815260200190815260200160002060008473ffffffffffffffffffffffffffffffffffffffff1673ffffffffffffffffffffffffffffffffffffffff16815260200190815260200160002060006101000a81548160ff0219169083151502179055508173ffffffffffffffffffffffffffffffffffffffff168373ffffffffffffffffffffffffffffffffffffffff167f17307eab39ab6107e8899845ad3d59bd9653f200f220920489ca2b5937696c3183604051611b499190612aa6565b60405180910390a3505050565b611b6184848461162c565b611b6d84848484611e55565b611bac576040517f08c379a0000000000000000000000000000000000000000000000000000000008152600401611ba390613bf9565b60405180910390fd5b50505050565b6060611bbd82611421565b611bfc576040517f08c379a0000000000000000000000000000000000000000000000000000000008152600401611bf390613c8b565b60405180910390fd5b6000600a60008481526020019081526020016000208054611c1c906130ce565b80601f0160208091040260200160405190810160405280929190818152602001828054611c48906130ce565b8015611c955780601f10611c6a57610100808354040283529160200191611c95565b820191906000526020600020905b815481529060010190602001808311611c7857829003601f168201915b505050505090506000611ca6612014565b90506000815103611cbb578192505050611cfe565b600082511115611cf0578082604051602001611cd8929190613ce7565b60405160208183030381529060405292505050611cfe565b611cf9846120a6565b925050505b919050565b60007f80ac58cd000000000000000000000000000000000000000000000000000000007bffffffffffffffffffffffffffffffffffffffffffffffffffffffff1916827bffffffffffffffffffffffffffffffffffffffffffffffffffffffff19161480611dce57507f5b5e139f000000000000000000000000000000000000000000000000000000007bffffffffffffffffffffffffffffffffffffffffffffffffffffffff1916827bffffffffffffffffffffffffffffffffffffffffffffffffffffffff1916145b80611dde5750611ddd8261214d565b5b9050919050565b611df08383836121b7565b505050565b505050565b611e0483836122c9565b611e116000848484611e55565b611e50576040517f08c379a0000000000000000000000000000000000000000000000000000000008152600401611e4790613bf9565b60405180910390fd5b505050565b6000611e768473ffffffffffffffffffffffffffffffffffffffff166124a2565b15612007578373ffffffffffffffffffffffffffffffffffffffff1663150b7a02611e9f61148d565b8786866040518563ffffffff167c0100000000000000000000000000000000000000000000000000000000028152600401611edd9493929190613d60565b6020604051808303816000875af1925050508015611f1957506040513d601f19601f82011682018060405250810190611f169190613dc1565b60015b611f9b573d8060008114611f49576040519150601f19603f3d011682016040523d82523d6000602084013e611f4e565b606091505b506000815103611f93576040517f08c379a0000000000000000000000000000000000000000000000000000000008152600401611f8a90613bf9565b60405180910390fd5b805181602001fd5b63150b7a027c0100000000000000000000000000000000000000000000000000000000027bffffffffffffffffffffffffffffffffffffffffffffffffffffffff1916817bffffffffffffffffffffffffffffffffffffffffffffffffffffffff19161491505061200c565b600190505b949350505050565b6060600d8054612023906130ce565b80601f016020809104026020016040519081016040528092919081815260200182805461204f906130ce565b801561209c5780601f106120715761010080835404028352916020019161209c565b820191906000526020600020905b81548152906001019060200180831161207f57829003601f168201915b5050505050905090565b60606120b182611421565b6120f0576040517f08c379a00000000000000000000000000000000000000000000000000000000081526004016120e790613e60565b60405180910390fd5b60006120fa612014565b9050600081511161211a5760405180602001604052806000815250612145565b80612124846124c5565b604051602001612135929190613ce7565b6040516020818303038152906040525b915050919050565b60007f01ffc9a7000000000000000000000000000000000000000000000000000000007bffffffffffffffffffffffffffffffffffffffffffffffffffffffff1916827bffffffffffffffffffffffffffffffffffffffffffffffffffffffff1916149050919050565b6121c2838383612644565b600073ffffffffffffffffffffffffffffffffffffffff168373ffffffffffffffffffffffffffffffffffffffff1603612204576121ff81612649565b612243565b8173ffffffffffffffffffffffffffffffffffffffff168373ffffffffffffffffffffffffffffffffffffffff1614612242576122418382612692565b5b5b600073ffffffffffffffffffffffffffffffffffffffff168273ffffffffffffffffffffffffffffffffffffffff160361228557612280816127ff565b6122c4565b8273ffffffffffffffffffffffffffffffffffffffff168273ffffffffffffffffffffffffffffffffffffffff16146122c3576122c282826128d0565b5b5b505050565b600073ffffffffffffffffffffffffffffffffffffffff168273ffffffffffffffffffffffffffffffffffffffff1603612338576040517f08c379a000000000000000000000000000000000000000000000000000000000815260040161232f90613ecc565b60405180910390fd5b61234181611421565b15612381576040517f08c379a000000000000000000000000000000000000000000000000000000000815260040161237890613f38565b60405180910390fd5b61238d60008383611de5565b6001600360008473ffffffffffffffffffffffffffffffffffffffff1673ffffffffffffffffffffffffffffffffffffffff16815260200190815260200160002060008282546123dd9190613a33565b92505081905550816002600083815260200190815260200160002060006101000a81548173ffffffffffffffffffffffffffffffffffffffff021916908373ffffffffffffffffffffffffffffffffffffffff160217905550808273ffffffffffffffffffffffffffffffffffffffff16600073ffffffffffffffffffffffffffffffffffffffff167fddf252ad1be2c89b69c2b068fc378daa952ba7f163c4a11628f55a4df523b3ef60405160405180910390a461249e60008383611df5565b5050565b6000808273ffffffffffffffffffffffffffffffffffffffff163b119050919050565b60606000820361250c576040518060400160405280600181526020017f3000000000000000000000000000000000000000000000000000000000000000815250905061263f565b600082905060005b6000821461253e578080612527906136c5565b915050600a826125379190613f87565b9150612514565b60008167ffffffffffffffff81111561255a57612559612d2e565b5b6040519080825280601f01601f19166020018201604052801561258c5781602001600182028036833780820191505090505b5090505b60008514612638576001826125a591906139ff565b9150600a856125b49190613fb8565b60306125c09190613a33565b7f0100000000000000000000000000000000000000000000000000000000000000028183815181106125f5576125f461346b565b5b60200101907effffffffffffffffffffffffffffffffffffffffffffffffffffffffffffff1916908160001a905350600a856126319190613f87565b9450612590565b8093505050505b919050565b505050565b6008805490506009600083815260200190815260200160002081905550600881908060018154018082558091505060019003906000526020600020016000909190919091505550565b6000600161269f84610ae8565b6126a991906139ff565b905060006007600084815260200190815260200160002054905081811461278e576000600660008673ffffffffffffffffffffffffffffffffffffffff1673ffffffffffffffffffffffffffffffffffffffff168152602001908152602001600020600084815260200190815260200160002054905080600660008773ffffffffffffffffffffffffffffffffffffffff1673ffffffffffffffffffffffffffffffffffffffff168152602001908152602001600020600084815260200190815260200160002081905550816007600083815260200190815260200160002081905550505b6007600084815260200190815260200160002060009055600660008573ffffffffffffffffffffffffffffffffffffffff1673ffffffffffffffffffffffffffffffffffffffff16815260200190815260200160002060008381526020019081526020016000206000905550505050565b6000600160088054905061281391906139ff565b90506000600960008481526020019081526020016000205490506000600883815481106128435761284261346b565b5b9060005260206000200154905080600883815481106128655761286461346b565b5b9060005260206000200181905550816009600083815260200190815260200160002081905550600960008581526020019081526020016000206000905560088054806128b4576128b3613fe9565b5b6001900381819060005260206000200160009055905550505050565b60006128db83610ae8565b905081600660008573ffffffffffffffffffffffffffffffffffffffff1673ffffffffffffffffffffffffffffffffffffffff168152602001908152602001600020600083815260200190815260200160002081905550806007600084815260200190815260200160002081905550505050565b82805461295b906130ce565b90600052602060002090601f01602090048101928261297d57600085556129c4565b82601f1061299657805160ff19168380011785556129c4565b828001600101855582156129c4579182015b828111156129c35782518255916020019190600101906129a8565b5b5090506129d191906129d5565b5090565b5b808211156129ee5760008160009055506001016129d6565b5090565b6000604051905090565b600080fd5b600080fd5b60007fffffffff0000000000000000000000000000000000000000000000000000000082169050919050565b612a3b81612a06565b8114612a4657600080fd5b50565b600081359050612a5881612a32565b92915050565b600060208284031215612a7457612a736129fc565b5b6000612a8284828501612a49565b91505092915050565b60008115159050919050565b612aa081612a8b565b82525050565b6000602082019050612abb6000830184612a97565b92915050565b600081519050919050565b600082825260208201905092915050565b60005b83811015612afb578082015181840152602081019050612ae0565b83811115612b0a576000848401525b50505050565b6000601f19601f8301169050919050565b6000612b2c82612ac1565b612b368185612acc565b9350612b46818560208601612add565b612b4f81612b10565b840191505092915050565b60006020820190508181036000830152612b748184612b21565b905092915050565b6000819050919050565b612b8f81612b7c565b8114612b9a57600080fd5b50565b600081359050612bac81612b86565b92915050565b600060208284031215612bc857612bc76129fc565b5b6000612bd684828501612b9d565b91505092915050565b600073ffffffffffffffffffffffffffffffffffffffff82169050919050565b6000612c0a82612bdf565b9050919050565b612c1a81612bff565b82525050565b6000602082019050612c356000830184612c11565b92915050565b612c4481612bff565b8114612c4f57600080fd5b50565b600081359050612c6181612c3b565b92915050565b60008060408385031215612c7e57612c7d6129fc565b5b6000612c8c85828601612c52565b9250506020612c9d85828601612b9d565b9150509250929050565b612cb081612b7c565b82525050565b6000602082019050612ccb6000830184612ca7565b92915050565b600080600060608486031215612cea57612ce96129fc565b5b6000612cf886828701612c52565b9350506020612d0986828701612c52565b9250506040612d1a86828701612b9d565b9150509250925092565b600080fd5b600080fd5b7f4e487b7100000000000000000000000000000000000000000000000000000000600052604160045260246000fd5b612d6682612b10565b810181811067ffffffffffffffff82111715612d8557612d84612d2e565b5b80604052505050565b6000612d986129f2565b9050612da48282612d5d565b919050565b600067ffffffffffffffff821115612dc457612dc3612d2e565b5b612dcd82612b10565b9050602081019050919050565b82818337600083830152505050565b6000612dfc612df784612da9565b612d8e565b905082815260208101848484011115612e1857612e17612d29565b5b612e23848285612dda565b509392505050565b600082601f830112612e4057612e3f612d24565b5b8135612e50848260208601612de9565b91505092915050565b600060208284031215612e6f57612e6e6129fc565b5b600082013567ffffffffffffffff811115612e8d57612e8c612a01565b5b612e9984828501612e2b565b91505092915050565b600060208284031215612eb857612eb76129fc565b5b6000612ec684828501612c52565b91505092915050565b612ed881612a8b565b8114612ee357600080fd5b50565b600081359050612ef581612ecf565b92915050565b60008060408385031215612f1257612f116129fc565b5b6000612f2085828601612c52565b9250506020612f3185828601612ee6565b9150509250929050565b600067ffffffffffffffff821115612f5657612f55612d2e565b5b612f5f82612b10565b9050602081019050919050565b6000612f7f612f7a84612f3b565b612d8e565b905082815260208101848484011115612f9b57612f9a612d29565b5b612fa6848285612dda565b509392505050565b600082601f830112612fc357612fc2612d24565b5b8135612fd3848260208601612f6c565b91505092915050565b60008060008060808587031215612ff657612ff56129fc565b5b600061300487828801612c52565b945050602061301587828801612c52565b935050604061302687828801612b9d565b925050606085013567ffffffffffffffff81111561304757613046612a01565b5b61305387828801612fae565b91505092959194509250565b60008060408385031215613076576130756129fc565b5b600061308485828601612c52565b925050602061309585828601612c52565b9150509250929050565b7f4e487b7100000000000000000000000000000000000000000000000000000000600052602260045260246000fd5b600060028204905060018216806130e657607f821691505b6020821081036130f9576130f861309f565b5b50919050565b7f4552433732313a20617070726f76656420717565727920666f72206e6f6e657860008201527f697374656e7420746f6b656e0000000000000000000000000000000000000000602082015250565b600061315b602c83612acc565b9150613166826130ff565b604082019050919050565b6000602082019050818103600083015261318a8161314e565b9050919050565b7f4552433732313a20617070726f76616c20746f2063757272656e74206f776e6560008201527f7200000000000000000000000000000000000000000000000000000000000000602082015250565b60006131ed602183612acc565b91506131f882613191565b604082019050919050565b6000602082019050818103600083015261321c816131e0565b9050919050565b7f4552433732313a20617070726f76652063616c6c6572206973206e6f74206f7760008201527f6e6572206e6f7220617070726f76656420666f7220616c6c0000000000000000602082015250565b600061327f603883612acc565b915061328a82613223565b604082019050919050565b600060208201905081810360008301526132ae81613272565b9050919050565b7f4552433732313a207472616e736665722063616c6c6572206973206e6f74206f60008201527f776e6572206e6f7220617070726f766564000000000000000000000000000000602082015250565b6000613311603183612acc565b915061331c826132b5565b604082019050919050565b6000602082019050818103600083015261334081613304565b9050919050565b7f455243373231456e756d657261626c653a206f776e657220696e646578206f7560008201527f74206f6620626f756e6473000000000000000000000000000000000000000000602082015250565b60006133a3602b83612acc565b91506133ae82613347565b604082019050919050565b600060208201905081810360008301526133d281613396565b9050919050565b7f455243373231456e756d657261626c653a20676c6f62616c20696e646578206f60008201527f7574206f6620626f756e64730000000000000000000000000000000000000000602082015250565b6000613435602c83612acc565b9150613440826133d9565b604082019050919050565b6000602082019050818103600083015261346481613428565b9050919050565b7f4e487b7100000000000000000000000000000000000000000000000000000000600052603260045260246000fd5b7f4f776e61626c653a2063616c6c6572206973206e6f7420746865206f776e6572600082015250565b60006134d0602083612acc565b91506134db8261349a565b602082019050919050565b600060208201905081810360008301526134ff816134c3565b9050919050565b7f4552433732313a206f776e657220717565727920666f72206e6f6e657869737460008201527f656e7420746f6b656e0000000000000000000000000000000000000000000000602082015250565b6000613562602983612acc565b915061356d82613506565b604082019050919050565b6000602082019050818103600083015261359181613555565b9050919050565b7f4552433732313a2062616c616e636520717565727920666f7220746865207a6560008201527f726f206164647265737300000000000000000000000000000000000000000000602082015250565b60006135f4602a83612acc565b91506135ff82613598565b604082019050919050565b60006020820190508181036000830152613623816135e7565b9050919050565b7f556e61626c6520746f206d696e74206d6f7265206974656d7300000000000000600082015250565b6000613660601983612acc565b915061366b8261362a565b602082019050919050565b6000602082019050818103600083015261368f81613653565b9050919050565b7f4e487b7100000000000000000000000000000000000000000000000000000000600052601160045260246000fd5b60006136d082612b7c565b91507fffffffffffffffffffffffffffffffffffffffffffffffffffffffffffffffff820361370257613701613696565b5b600182019050919050565b60006060820190506137226000830186612ca7565b61372f6020830185612c11565b81810360408301526137418184612b21565b9050949350505050565b7f41646472657373206e6f742076616c6964000000000000000000000000000000600082015250565b6000613781601183612acc565b915061378c8261374b565b602082019050919050565b600060208201905081810360008301526137b081613774565b9050919050565b7f4f776e61626c653a206e6577206f776e657220697320746865207a65726f206160008201527f6464726573730000000000000000000000000000000000000000000000000000602082015250565b6000613813602683612acc565b915061381e826137b7565b604082019050919050565b6000602082019050818103600083015261384281613806565b9050919050565b7f4552433732313a206f70657261746f7220717565727920666f72206e6f6e657860008201527f697374656e7420746f6b656e0000000000000000000000000000000000000000602082015250565b60006138a5602c83612acc565b91506138b082613849565b604082019050919050565b600060208201905081810360008301526138d481613898565b9050919050565b7f4552433732313a207472616e736665722066726f6d20696e636f72726563742060008201527f6f776e6572000000000000000000000000000000000000000000000000000000602082015250565b6000613937602583612acc565b9150613942826138db565b604082019050919050565b600060208201905081810360008301526139668161392a565b9050919050565b7f4552433732313a207472616e7366657220746f20746865207a65726f2061646460008201527f7265737300000000000000000000000000000000000000000000000000000000602082015250565b60006139c9602483612acc565b91506139d48261396d565b604082019050919050565b600060208201905081810360008301526139f8816139bc565b9050919050565b6000613a0a82612b7c565b9150613a1583612b7c565b925082821015613a2857613a27613696565b5b828203905092915050565b6000613a3e82612b7c565b9150613a4983612b7c565b9250827fffffffffffffffffffffffffffffffffffffffffffffffffffffffffffffffff03821115613a7e57613a7d613696565b5b828201905092915050565b7f45524337323155524953746f726167653a2055524920736574206f66206e6f6e60008201527f6578697374656e7420746f6b656e000000000000000000000000000000000000602082015250565b6000613ae5602e83612acc565b9150613af082613a89565b604082019050919050565b60006020820190508181036000830152613b1481613ad8565b9050919050565b7f4552433732313a20617070726f766520746f2063616c6c657200000000000000600082015250565b6000613b51601983612acc565b9150613b5c82613b1b565b602082019050919050565b60006020820190508181036000830152613b8081613b44565b9050919050565b7f4552433732313a207472616e7366657220746f206e6f6e20455243373231526560008201527f63656976657220696d706c656d656e7465720000000000000000000000000000602082015250565b6000613be3603283612acc565b9150613bee82613b87565b604082019050919050565b60006020820190508181036000830152613c1281613bd6565b9050919050565b7f45524337323155524953746f726167653a2055524920717565727920666f722060008201527f6e6f6e6578697374656e7420746f6b656e000000000000000000000000000000602082015250565b6000613c75603183612acc565b9150613c8082613c19565b604082019050919050565b60006020820190508181036000830152613ca481613c68565b9050919050565b600081905092915050565b6000613cc182612ac1565b613ccb8185613cab565b9350613cdb818560208601612add565b80840191505092915050565b6000613cf38285613cb6565b9150613cff8284613cb6565b91508190509392505050565b600081519050919050565b600082825260208201905092915050565b6000613d3282613d0b565b613d3c8185613d16565b9350613d4c818560208601612add565b613d5581612b10565b840191505092915050565b6000608082019050613d756000830187612c11565b613d826020830186612c11565b613d8f6040830185612ca7565b8181036060830152613da18184613d27565b905095945050505050565b600081519050613dbb81612a32565b92915050565b600060208284031215613dd757613dd66129fc565b5b6000613de584828501613dac565b91505092915050565b7f4552433732314d657461646174613a2055524920717565727920666f72206e6f60008201527f6e6578697374656e7420746f6b656e0000000000000000000000000000000000602082015250565b6000613e4a602f83612acc565b9150613e5582613dee565b604082019050919050565b60006020820190508181036000830152613e7981613e3d565b9050919050565b7f4552433732313a206d696e7420746f20746865207a65726f2061646472657373600082015250565b6000613eb6602083612acc565b9150613ec182613e80565b602082019050919050565b60006020820190508181036000830152613ee581613ea9565b9050919050565b7f4552433732313a20746f6b656e20616c7265616479206d696e74656400000000600082015250565b6000613f22601c83612acc565b9150613f2d82613eec565b602082019050919050565b60006020820190508181036000830152613f5181613f15565b9050919050565b7f4e487b7100000000000000000000000000000000000000000000000000000000600052601260045260246000fd5b6000613f9282612b7c565b9150613f9d83612b7c565b925082613fad57613fac613f58565b5b828204905092915050565b6000613fc382612b7c565b9150613fce83612b7c565b925082613fde57613fdd613f58565b5b828206905092915050565b7f4e487b7100000000000000000000000000000000000000000000000000000000600052603160045260246000fdfea26469706673582212208063db04abf906ea5677fcc8af81325435e96997c9452b012265ec44bf9206ca64736f6c634300080d0033",
  "immutableReferences": {},
  "source": "// SPDX-License-Identifier: MIT\n\npragma solidity 0.8.13;\n\nimport \"@openzeppelin/contracts/token/ERC721/extensions/ERC721Enumerable.sol\";\nimport \"@openzeppelin/contracts/token/ERC721/extensions/ERC721URIStorage.sol\";\nimport \"@openzeppelin/contracts/access/Ownable.sol\";\n\n/**\n * @title Nft Collection Token Contract\n *\n * @author Jonacity\n *\n * @notice This contract manages the collection tokens\n */\ncontract CollectionToken is ERC721Enumerable, ERC721URIStorage, Ownable {\n    /**\n     * @dev Initial max supply\n     */\n    uint public maxSupply = 3;\n\n    /**\n     * @dev Base URI\n     */\n    string private baseURI;\n\n    /**\n     * @dev Market contract address\n     */\n    address public marketContractAddress;\n\n    /**\n     * @dev Token minted event\n     */\n    event TokenMinted (\n        uint tokenId,\n        address owner,\n        string tokenURI\n    );\n\n    /**\n     * @notice The constructor\n     *\n     * @param _newBaseURI Base URI => ipfs://<CID>/\n     * @param _marketContractAddress Market contract address\n     */\n    constructor(string memory _newBaseURI, address _marketContractAddress) ERC721(\"Crypto Brothers\", \"CB\") {\n        baseURI = _newBaseURI;\n        marketContractAddress = _marketContractAddress;\n    }\n\n    /**\n     * @notice Set max supply\n     *\n     * @param _maxSupply New max supply\n     */\n    function setMaxSupply(uint _maxSupply) external onlyOwner {\n        maxSupply = _maxSupply;\n    }\n\n    /**\n     * @notice Set market contract address\n     *\n     * @param _marketContractAddress New market contract address\n     */\n    function setMarketContractAddress(address _marketContractAddress) external onlyOwner {\n        require(_marketContractAddress != address(0), \"Address not valid\");\n\n        marketContractAddress = _marketContractAddress;\n    }\n\n    /**\n     * @notice Get base URI\n     *\n     * @return Base URI\n     */\n    function getBaseURI() external view onlyOwner returns (string memory) {\n        return baseURI;\n    }\n\n    /**\n     * @notice Set base URI\n     *\n     * @param _newBaseURI New base URI\n     */\n    function setBaseURI(string memory _newBaseURI) external onlyOwner {\n        baseURI = _newBaseURI;\n    }\n\n    /**\n     * @notice Mint the whole collection\n     */\n    function mintCollection() public onlyOwner {\n        uint totalSupply = totalSupply();\n        string[3] memory tokenMetadataURIs = [\n            \"mojo-jojo.json\",\n            \"morpheus.json\",\n            \"biggie.json\"\n        ];\n        require(totalSupply < maxSupply, \"Unable to mint more items\");\n\n        for (uint i = 0; i < tokenMetadataURIs.length; i++) {\n            totalSupply++;\n            uint newTokenId = totalSupply;\n            super._safeMint(msg.sender, newTokenId);\n            super._setTokenURI(newTokenId, tokenMetadataURIs[i]);\n\n            emit TokenMinted(newTokenId, msg.sender, tokenMetadataURIs[i]);\n        }\n\n        super.setApprovalForAll(marketContractAddress, true);\n    }\n\n    /**\n     * @inheritdoc ERC721Enumerable\n     */\n    function supportsInterface(bytes4 interfaceId)\n        public\n        view\n        override(ERC721, ERC721Enumerable)\n        returns (bool)\n    {\n        return super.supportsInterface(interfaceId);\n    }\n\n    /**\n     * @inheritdoc ERC721URIStorage\n     */\n    function tokenURI(uint256 tokenId)\n        public\n        view\n        override(ERC721, ERC721URIStorage)\n        returns (string memory)\n    {\n        return super.tokenURI(tokenId);\n    }\n\n    /**\n     * @inheritdoc ERC721\n     */\n    function _baseURI() internal view virtual override returns (string memory) {\n        return baseURI;\n    }\n\n    /**\n     * @inheritdoc ERC721Enumerable\n     */\n    function _beforeTokenTransfer(address from, address to, uint256 tokenId)\n        internal\n        override(ERC721, ERC721Enumerable)\n    {\n        super._beforeTokenTransfer(from, to, tokenId);\n    }\n\n    /**\n     * @inheritdoc ERC721URIStorage\n     */\n    function _burn(uint256 tokenId) internal override(ERC721, ERC721URIStorage) {\n        super._burn(tokenId);\n    }\n}\n",
  "sourcePath": "/app/contracts/CollectionToken.sol",
  "compiler": {
    "name": "solc",
    "version": "0.8.13+commit.abaa5c0e.Emscripten.clang"
  },
  "schemaVersion": "3.4.4",
  "updatedAt": "2022-05-12T21:03:54.928Z",
  "networkType": "ethereum",
  "devdoc": {
    "author": "Jonacity",
    "events": {
      "TokenMinted(uint256,address,string)": {
        "details": "Token minted event"
      }
    },
    "kind": "dev",
    "methods": {
      "approve(address,uint256)": {
        "details": "See {IERC721-approve}."
      },
      "balanceOf(address)": {
        "details": "See {IERC721-balanceOf}."
      },
      "constructor": {
        "params": {
          "_marketContractAddress": "Market contract address",
          "_newBaseURI": "Base URI => ipfs://<CID>/"
        }
      },
      "getApproved(uint256)": {
        "details": "See {IERC721-getApproved}."
      },
      "getBaseURI()": {
        "returns": {
          "_0": "Base URI"
        }
      },
      "isApprovedForAll(address,address)": {
        "details": "See {IERC721-isApprovedForAll}."
      },
      "name()": {
        "details": "See {IERC721Metadata-name}."
      },
      "owner()": {
        "details": "Returns the address of the current owner."
      },
      "ownerOf(uint256)": {
        "details": "See {IERC721-ownerOf}."
      },
      "renounceOwnership()": {
        "details": "Leaves the contract without owner. It will not be possible to call `onlyOwner` functions anymore. Can only be called by the current owner. NOTE: Renouncing ownership will leave the contract without an owner, thereby removing any functionality that is only available to the owner."
      },
      "safeTransferFrom(address,address,uint256)": {
        "details": "See {IERC721-safeTransferFrom}."
      },
      "safeTransferFrom(address,address,uint256,bytes)": {
        "details": "See {IERC721-safeTransferFrom}."
      },
      "setApprovalForAll(address,bool)": {
        "details": "See {IERC721-setApprovalForAll}."
      },
      "setBaseURI(string)": {
        "params": {
          "_newBaseURI": "New base URI"
        }
      },
      "setMarketContractAddress(address)": {
        "params": {
          "_marketContractAddress": "New market contract address"
        }
      },
      "setMaxSupply(uint256)": {
        "params": {
          "_maxSupply": "New max supply"
        }
      },
      "supportsInterface(bytes4)": {
        "details": "See {IERC165-supportsInterface}."
      },
      "symbol()": {
        "details": "See {IERC721Metadata-symbol}."
      },
      "tokenByIndex(uint256)": {
        "details": "See {IERC721Enumerable-tokenByIndex}."
      },
      "tokenOfOwnerByIndex(address,uint256)": {
        "details": "See {IERC721Enumerable-tokenOfOwnerByIndex}."
      },
      "tokenURI(uint256)": {
        "details": "See {IERC721Metadata-tokenURI}."
      },
      "totalSupply()": {
        "details": "See {IERC721Enumerable-totalSupply}."
      },
      "transferFrom(address,address,uint256)": {
        "details": "See {IERC721-transferFrom}."
      },
      "transferOwnership(address)": {
        "details": "Transfers ownership of the contract to a new account (`newOwner`). Can only be called by the current owner."
      }
    },
    "stateVariables": {
      "baseURI": {
        "details": "Base URI"
      },
      "marketContractAddress": {
        "details": "Market contract address"
      },
      "maxSupply": {
        "details": "Initial max supply"
      }
    },
    "title": "Nft Collection Token Contract",
    "version": 1
  },
  "userdoc": {
    "kind": "user",
    "methods": {
      "constructor": {
        "notice": "The constructor"
      },
      "getBaseURI()": {
        "notice": "Get base URI"
      },
      "mintCollection()": {
        "notice": "Mint the whole collection"
      },
      "setBaseURI(string)": {
        "notice": "Set base URI"
      },
      "setMarketContractAddress(address)": {
        "notice": "Set market contract address"
      },
      "setMaxSupply(uint256)": {
        "notice": "Set max supply"
      }
    },
    "notice": "This contract manages the collection tokens",
    "version": 1
  }
}