{
  "contractName": "CollectionMarket",
  "abi": [
    {
      "anonymous": false,
      "inputs": [
        {
          "indexed": false,
          "internalType": "uint256",
          "name": "itemId",
          "type": "uint256"
        },
        {
          "indexed": false,
          "internalType": "uint256",
          "name": "tokenId",
          "type": "uint256"
        },
        {
          "indexed": false,
          "internalType": "uint256",
          "name": "price",
          "type": "uint256"
        },
        {
          "indexed": false,
          "internalType": "address",
          "name": "tokenContractAddress",
          "type": "address"
        },
        {
          "indexed": false,
          "internalType": "address",
          "name": "seller",
          "type": "address"
        },
        {
          "indexed": false,
          "internalType": "address",
          "name": "owner",
          "type": "address"
        }
      ],
      "name": "ItemCreated",
      "type": "event"
    },
    {
      "anonymous": false,
      "inputs": [
        {
          "indexed": true,
          "internalType": "address",
          "name": "previousOwner",
          "type": "address"
        },
        {
          "indexed": true,
          "internalType": "address",
          "name": "newOwner",
          "type": "address"
        }
      ],
      "name": "OwnershipTransferred",
      "type": "event"
    },
    {
      "inputs": [
        {
          "internalType": "address",
          "name": "",
          "type": "address"
        },
        {
          "internalType": "address",
          "name": "",
          "type": "address"
        },
        {
          "internalType": "uint256",
          "name": "",
          "type": "uint256"
        },
        {
          "internalType": "bytes",
          "name": "",
          "type": "bytes"
        }
      ],
      "name": "onERC721Received",
      "outputs": [
        {
          "internalType": "bytes4",
          "name": "",
          "type": "bytes4"
        }
      ],
      "stateMutability": "nonpayable",
      "type": "function"
    },
    {
      "inputs": [],
      "name": "owner",
      "outputs": [
        {
          "internalType": "address",
          "name": "",
          "type": "address"
        }
      ],
      "stateMutability": "view",
      "type": "function",
      "constant": true
    },
    {
      "inputs": [],
      "name": "renounceOwnership",
      "outputs": [],
      "stateMutability": "nonpayable",
      "type": "function"
    },
    {
      "inputs": [
        {
          "internalType": "address",
          "name": "newOwner",
          "type": "address"
        }
      ],
      "name": "transferOwnership",
      "outputs": [],
      "stateMutability": "nonpayable",
      "type": "function"
    },
    {
      "inputs": [
        {
          "internalType": "address",
          "name": "_tokenContractAddress",
          "type": "address"
        },
        {
          "internalType": "uint256",
          "name": "_tokenId",
          "type": "uint256"
        },
        {
          "internalType": "uint256",
          "name": "_price",
          "type": "uint256"
        }
      ],
      "name": "addItem",
      "outputs": [],
      "stateMutability": "payable",
      "type": "function",
      "payable": true
    },
    {
      "inputs": [
        {
          "internalType": "address",
          "name": "_tokenContractAddress",
          "type": "address"
        },
        {
          "internalType": "uint256",
          "name": "_itemId",
          "type": "uint256"
        }
      ],
      "name": "buyItem",
      "outputs": [],
      "stateMutability": "payable",
      "type": "function",
      "payable": true
    },
    {
      "inputs": [],
      "name": "getSenderItems",
      "outputs": [
        {
          "components": [
            {
              "internalType": "uint256",
              "name": "itemId",
              "type": "uint256"
            },
            {
              "internalType": "uint256",
              "name": "tokenId",
              "type": "uint256"
            },
            {
              "internalType": "uint256",
              "name": "price",
              "type": "uint256"
            },
            {
              "internalType": "address",
              "name": "tokenContractAddress",
              "type": "address"
            },
            {
              "internalType": "address payable",
              "name": "seller",
              "type": "address"
            },
            {
              "internalType": "address payable",
              "name": "owner",
              "type": "address"
            }
          ],
          "internalType": "struct CollectionMarket.Item[]",
          "name": "",
          "type": "tuple[]"
        }
      ],
      "stateMutability": "view",
      "type": "function",
      "constant": true
    },
    {
      "inputs": [],
      "name": "getUnsoldItems",
      "outputs": [
        {
          "components": [
            {
              "internalType": "uint256",
              "name": "itemId",
              "type": "uint256"
            },
            {
              "internalType": "uint256",
              "name": "tokenId",
              "type": "uint256"
            },
            {
              "internalType": "uint256",
              "name": "price",
              "type": "uint256"
            },
            {
              "internalType": "address",
              "name": "tokenContractAddress",
              "type": "address"
            },
            {
              "internalType": "address payable",
              "name": "seller",
              "type": "address"
            },
            {
              "internalType": "address payable",
              "name": "owner",
              "type": "address"
            }
          ],
          "internalType": "struct CollectionMarket.Item[]",
          "name": "",
          "type": "tuple[]"
        }
      ],
      "stateMutability": "view",
      "type": "function",
      "constant": true
    },
    {
      "inputs": [
        {
          "internalType": "uint256",
          "name": "_itemId",
          "type": "uint256"
        }
      ],
      "name": "getItemById",
      "outputs": [
        {
          "components": [
            {
              "internalType": "uint256",
              "name": "itemId",
              "type": "uint256"
            },
            {
              "internalType": "uint256",
              "name": "tokenId",
              "type": "uint256"
            },
            {
              "internalType": "uint256",
              "name": "price",
              "type": "uint256"
            },
            {
              "internalType": "address",
              "name": "tokenContractAddress",
              "type": "address"
            },
            {
              "internalType": "address payable",
              "name": "seller",
              "type": "address"
            },
            {
              "internalType": "address payable",
              "name": "owner",
              "type": "address"
            }
          ],
          "internalType": "struct CollectionMarket.Item",
          "name": "",
          "type": "tuple"
        }
      ],
      "stateMutability": "view",
      "type": "function",
      "constant": true
    }
  ],
  "bytecode": "0x608060405234801561001057600080fd5b5061003f61002b610044640100000000026401000000009004565b61004c640100000000026401000000009004565b610110565b600033905090565b60008060009054906101000a900473ffffffffffffffffffffffffffffffffffffffff169050816000806101000a81548173ffffffffffffffffffffffffffffffffffffffff021916908373ffffffffffffffffffffffffffffffffffffffff1602179055508173ffffffffffffffffffffffffffffffffffffffff168173ffffffffffffffffffffffffffffffffffffffff167f8be0079c531659141344cd1fd0a4f28419497f9722a3daafe3b4186f6b6457e060405160405180910390a35050565b611b6a8061011f6000396000f3fe6080604052600436106100a3576000357c0100000000000000000000000000000000000000000000000000000000900480639f37092a116100765780639f37092a14610152578063c1b91dd91461016e578063cd2f07101461018a578063cf502d15146101c7578063f2fde38b146101f2576100a3565b8063150b7a02146100a8578063715018a6146100e55780638da5cb5b146100fc5780639b8bc12714610127575b600080fd5b3480156100b457600080fd5b506100cf60048036038101906100ca9190611365565b61021b565b6040516100dc9190611423565b60405180910390f35b3480156100f157600080fd5b506100fa61024b565b005b34801561010857600080fd5b506101116102d3565b60405161011e919061144d565b60405180910390f35b34801561013357600080fd5b5061013c6102fc565b60405161014991906115d1565b60405180910390f35b61016c600480360381019061016791906115f3565b61059a565b005b61018860048036038101906101839190611633565b61077f565b005b34801561019657600080fd5b506101b160048036038101906101ac9190611686565b610aa2565b6040516101be919061172e565b60405180910390f35b3480156101d357600080fd5b506101dc610bef565b6040516101e991906115d1565b60405180910390f35b3480156101fe57600080fd5b5061021960048036038101906102149190611749565b610f18565b005b600063150b7a027c0100000000000000000000000000000000000000000000000000000000029050949350505050565b61025361100f565b73ffffffffffffffffffffffffffffffffffffffff166102716102d3565b73ffffffffffffffffffffffffffffffffffffffff16146102c7576040517f08c379a00000000000000000000000000000000000000000000000000000000081526004016102be906117d3565b60405180910390fd5b6102d16000611017565b565b60008060009054906101000a900473ffffffffffffffffffffffffffffffffffffffff16905090565b6060600061030a60016110db565b9050600061031860026110db565b826103239190611822565b90506000808267ffffffffffffffff8111156103425761034161123a565b5b60405190808252806020026020018201604052801561037b57816020015b6103686110ff565b8152602001906001900390816103605790505b50905060005b8481101561058f57600073ffffffffffffffffffffffffffffffffffffffff16600360006001846103b29190611856565b815260200190815260200160002060050160009054906101000a900473ffffffffffffffffffffffffffffffffffffffff1673ffffffffffffffffffffffffffffffffffffffff160361057c576000600360006001846104129190611856565b81526020019081526020016000206040518060c00160405290816000820154815260200160018201548152602001600282015481526020016003820160009054906101000a900473ffffffffffffffffffffffffffffffffffffffff1673ffffffffffffffffffffffffffffffffffffffff1673ffffffffffffffffffffffffffffffffffffffff1681526020016004820160009054906101000a900473ffffffffffffffffffffffffffffffffffffffff1673ffffffffffffffffffffffffffffffffffffffff1673ffffffffffffffffffffffffffffffffffffffff1681526020016005820160009054906101000a900473ffffffffffffffffffffffffffffffffffffffff1673ffffffffffffffffffffffffffffffffffffffff1673ffffffffffffffffffffffffffffffffffffffff1681525050905080838581518110610561576105606118ac565b5b60200260200101819052508380610577906118db565b945050505b8080610587906118db565b915050610381565b508094505050505090565b600060036000838152602001908152602001600020600201549050600060036000848152602001908152602001600020600101549050813414610612576040517f08c379a00000000000000000000000000000000000000000000000000000000081526004016106099061196f565b60405180910390fd5b61061c60026110e9565b336003600085815260200190815260200160002060050160006101000a81548173ffffffffffffffffffffffffffffffffffffffff021916908373ffffffffffffffffffffffffffffffffffffffff1602179055506003600084815260200190815260200160002060040160009054906101000a900473ffffffffffffffffffffffffffffffffffffffff1673ffffffffffffffffffffffffffffffffffffffff166108fc349081150290604051600060405180830381858888f193505050501580156106ed573d6000803e3d6000fd5b508373ffffffffffffffffffffffffffffffffffffffff166323b872dd3033846040518463ffffffff167c01000000000000000000000000000000000000000000000000000000000281526004016107479392919061199e565b600060405180830381600087803b15801561076157600080fd5b505af1158015610775573d6000803e3d6000fd5b5050505050505050565b61078761100f565b73ffffffffffffffffffffffffffffffffffffffff166107a56102d3565b73ffffffffffffffffffffffffffffffffffffffff16146107fb576040517f08c379a00000000000000000000000000000000000000000000000000000000081526004016107f2906117d3565b60405180910390fd5b6000811161083e576040517f08c379a000000000000000000000000000000000000000000000000000000000815260040161083590611a21565b60405180910390fd5b61084860016110e9565b600061085460016110db565b90506040518060c001604052808281526020018481526020018381526020018573ffffffffffffffffffffffffffffffffffffffff1681526020013373ffffffffffffffffffffffffffffffffffffffff168152602001600073ffffffffffffffffffffffffffffffffffffffff168152506003600083815260200190815260200160002060008201518160000155602082015181600101556040820151816002015560608201518160030160006101000a81548173ffffffffffffffffffffffffffffffffffffffff021916908373ffffffffffffffffffffffffffffffffffffffff16021790555060808201518160040160006101000a81548173ffffffffffffffffffffffffffffffffffffffff021916908373ffffffffffffffffffffffffffffffffffffffff16021790555060a08201518160050160006101000a81548173ffffffffffffffffffffffffffffffffffffffff021916908373ffffffffffffffffffffffffffffffffffffffff1602179055509050508373ffffffffffffffffffffffffffffffffffffffff166342842e0e3330866040518463ffffffff167c0100000000000000000000000000000000000000000000000000000000028152600401610a289392919061199e565b600060405180830381600087803b158015610a4257600080fd5b505af1158015610a56573d6000803e3d6000fd5b505050507f60648cf2e25329213edbfca4fb969efbe180f0495f21156cd5e47fdd874fba4781848487336000604051610a9496959493929190611a41565b60405180910390a150505050565b610aaa6110ff565b600360008381526020019081526020016000206040518060c00160405290816000820154815260200160018201548152602001600282015481526020016003820160009054906101000a900473ffffffffffffffffffffffffffffffffffffffff1673ffffffffffffffffffffffffffffffffffffffff1673ffffffffffffffffffffffffffffffffffffffff1681526020016004820160009054906101000a900473ffffffffffffffffffffffffffffffffffffffff1673ffffffffffffffffffffffffffffffffffffffff1673ffffffffffffffffffffffffffffffffffffffff1681526020016005820160009054906101000a900473ffffffffffffffffffffffffffffffffffffffff1673ffffffffffffffffffffffffffffffffffffffff1673ffffffffffffffffffffffffffffffffffffffff16815250509050919050565b60606000610bfd60016110db565b905060008060005b83811015610ca4573373ffffffffffffffffffffffffffffffffffffffff1660036000600184610c359190611856565b815260200190815260200160002060050160009054906101000a900473ffffffffffffffffffffffffffffffffffffffff1673ffffffffffffffffffffffffffffffffffffffff1603610c91578280610c8d906118db565b9350505b8080610c9c906118db565b915050610c05565b5060008267ffffffffffffffff811115610cc157610cc061123a565b5b604051908082528060200260200182016040528015610cfa57816020015b610ce76110ff565b815260200190600190039081610cdf5790505b50905060005b84811015610f0d573373ffffffffffffffffffffffffffffffffffffffff1660036000600184610d309190611856565b815260200190815260200160002060050160009054906101000a900473ffffffffffffffffffffffffffffffffffffffff1673ffffffffffffffffffffffffffffffffffffffff1603610efa57600060036000600184610d909190611856565b81526020019081526020016000206040518060c00160405290816000820154815260200160018201548152602001600282015481526020016003820160009054906101000a900473ffffffffffffffffffffffffffffffffffffffff1673ffffffffffffffffffffffffffffffffffffffff1673ffffffffffffffffffffffffffffffffffffffff1681526020016004820160009054906101000a900473ffffffffffffffffffffffffffffffffffffffff1673ffffffffffffffffffffffffffffffffffffffff1673ffffffffffffffffffffffffffffffffffffffff1681526020016005820160009054906101000a900473ffffffffffffffffffffffffffffffffffffffff1673ffffffffffffffffffffffffffffffffffffffff1673ffffffffffffffffffffffffffffffffffffffff1681525050905080838581518110610edf57610ede6118ac565b5b60200260200101819052508380610ef5906118db565b945050505b8080610f05906118db565b915050610d00565b508094505050505090565b610f2061100f565b73ffffffffffffffffffffffffffffffffffffffff16610f3e6102d3565b73ffffffffffffffffffffffffffffffffffffffff1614610f94576040517f08c379a0000000000000000000000000000000000000000000000000000000008152600401610f8b906117d3565b60405180910390fd5b600073ffffffffffffffffffffffffffffffffffffffff168173ffffffffffffffffffffffffffffffffffffffff1603611003576040517f08c379a0000000000000000000000000000000000000000000000000000000008152600401610ffa90611b14565b60405180910390fd5b61100c81611017565b50565b600033905090565b60008060009054906101000a900473ffffffffffffffffffffffffffffffffffffffff169050816000806101000a81548173ffffffffffffffffffffffffffffffffffffffff021916908373ffffffffffffffffffffffffffffffffffffffff1602179055508173ffffffffffffffffffffffffffffffffffffffff168173ffffffffffffffffffffffffffffffffffffffff167f8be0079c531659141344cd1fd0a4f28419497f9722a3daafe3b4186f6b6457e060405160405180910390a35050565b600081600001549050919050565b6001816000016000828254019250508190555050565b6040518060c00160405280600081526020016000815260200160008152602001600073ffffffffffffffffffffffffffffffffffffffff168152602001600073ffffffffffffffffffffffffffffffffffffffff168152602001600073ffffffffffffffffffffffffffffffffffffffff1681525090565b6000604051905090565b600080fd5b600080fd5b600073ffffffffffffffffffffffffffffffffffffffff82169050919050565b60006111b68261118b565b9050919050565b6111c6816111ab565b81146111d157600080fd5b50565b6000813590506111e3816111bd565b92915050565b6000819050919050565b6111fc816111e9565b811461120757600080fd5b50565b600081359050611219816111f3565b92915050565b600080fd5b600080fd5b6000601f19601f8301169050919050565b7f4e487b7100000000000000000000000000000000000000000000000000000000600052604160045260246000fd5b61127282611229565b810181811067ffffffffffffffff821117156112915761129061123a565b5b80604052505050565b60006112a4611177565b90506112b08282611269565b919050565b600067ffffffffffffffff8211156112d0576112cf61123a565b5b6112d982611229565b9050602081019050919050565b82818337600083830152505050565b6000611308611303846112b5565b61129a565b90508281526020810184848401111561132457611323611224565b5b61132f8482856112e6565b509392505050565b600082601f83011261134c5761134b61121f565b5b813561135c8482602086016112f5565b91505092915050565b6000806000806080858703121561137f5761137e611181565b5b600061138d878288016111d4565b945050602061139e878288016111d4565b93505060406113af8782880161120a565b925050606085013567ffffffffffffffff8111156113d0576113cf611186565b5b6113dc87828801611337565b91505092959194509250565b60007fffffffff0000000000000000000000000000000000000000000000000000000082169050919050565b61141d816113e8565b82525050565b60006020820190506114386000830184611414565b92915050565b611447816111ab565b82525050565b6000602082019050611462600083018461143e565b92915050565b600081519050919050565b600082825260208201905092915050565b6000819050602082019050919050565b61149d816111e9565b82525050565b6114ac816111ab565b82525050565b60006114bd8261118b565b9050919050565b6114cd816114b2565b82525050565b60c0820160008201516114e96000850182611494565b5060208201516114fc6020850182611494565b50604082015161150f6040850182611494565b50606082015161152260608501826114a3565b50608082015161153560808501826114c4565b5060a082015161154860a08501826114c4565b50505050565b600061155a83836114d3565b60c08301905092915050565b6000602082019050919050565b600061157e82611468565b6115888185611473565b935061159383611484565b8060005b838110156115c45781516115ab888261154e565b97506115b683611566565b925050600181019050611597565b5085935050505092915050565b600060208201905081810360008301526115eb8184611573565b905092915050565b6000806040838503121561160a57611609611181565b5b6000611618858286016111d4565b92505060206116298582860161120a565b9150509250929050565b60008060006060848603121561164c5761164b611181565b5b600061165a868287016111d4565b935050602061166b8682870161120a565b925050604061167c8682870161120a565b9150509250925092565b60006020828403121561169c5761169b611181565b5b60006116aa8482850161120a565b91505092915050565b60c0820160008201516116c96000850182611494565b5060208201516116dc6020850182611494565b5060408201516116ef6040850182611494565b50606082015161170260608501826114a3565b50608082015161171560808501826114c4565b5060a082015161172860a08501826114c4565b50505050565b600060c08201905061174360008301846116b3565b92915050565b60006020828403121561175f5761175e611181565b5b600061176d848285016111d4565b91505092915050565b600082825260208201905092915050565b7f4f776e61626c653a2063616c6c6572206973206e6f7420746865206f776e6572600082015250565b60006117bd602083611776565b91506117c882611787565b602082019050919050565b600060208201905081810360008301526117ec816117b0565b9050919050565b7f4e487b7100000000000000000000000000000000000000000000000000000000600052601160045260246000fd5b600061182d826111e9565b9150611838836111e9565b92508282101561184b5761184a6117f3565b5b828203905092915050565b6000611861826111e9565b915061186c836111e9565b9250827fffffffffffffffffffffffffffffffffffffffffffffffffffffffffffffffff038211156118a1576118a06117f3565b5b828201905092915050565b7f4e487b7100000000000000000000000000000000000000000000000000000000600052603260045260246000fd5b60006118e6826111e9565b91507fffffffffffffffffffffffffffffffffffffffffffffffffffffffffffffffff8203611918576119176117f3565b5b600182019050919050565b7f57726f6e6720707269636520666f722074686973206974656d00000000000000600082015250565b6000611959601983611776565b915061196482611923565b602082019050919050565b600060208201905081810360008301526119888161194c565b9050919050565b611998816111e9565b82525050565b60006060820190506119b3600083018661143e565b6119c0602083018561143e565b6119cd604083018461198f565b949350505050565b7f4e6f204554482073656e74000000000000000000000000000000000000000000600082015250565b6000611a0b600b83611776565b9150611a16826119d5565b602082019050919050565b60006020820190508181036000830152611a3a816119fe565b9050919050565b600060c082019050611a56600083018961198f565b611a63602083018861198f565b611a70604083018761198f565b611a7d606083018661143e565b611a8a608083018561143e565b611a9760a083018461143e565b979650505050505050565b7f4f776e61626c653a206e6577206f776e657220697320746865207a65726f206160008201527f6464726573730000000000000000000000000000000000000000000000000000602082015250565b6000611afe602683611776565b9150611b0982611aa2565b604082019050919050565b60006020820190508181036000830152611b2d81611af1565b905091905056fea2646970667358221220341fb47a0b88a5d280d1e740be1f937f21497e42a11a9a22cd6aff0d6210214364736f6c634300080d0033",
  "immutableReferences": {},
  "source": "// SPDX-License-Identifier: MIT\n\npragma solidity 0.8.13;\n\nimport \"@openzeppelin/contracts/access/Ownable.sol\";\nimport \"@openzeppelin/contracts/token/ERC721/ERC721.sol\";\nimport \"@openzeppelin/contracts/token/ERC721/utils/ERC721Holder.sol\";\nimport \"@openzeppelin/contracts/utils/Counters.sol\";\n\n/**\n * @title Nft Collection Market contract\n *\n * @author Jonacity\n *\n * @notice This contract manages the collection market\n */\ncontract CollectionMarket is ERC721Holder, Ownable {\n    using Counters for Counters.Counter;\n\n    /**\n     * @notice A counter for item ids\n     */\n    Counters.Counter private itemId;\n\n    /**\n     * @notice A counter for sold items count\n     */\n    Counters.Counter private itemSoldCount;\n\n    /**\n     * @dev Item struct\n     */\n    struct Item {\n        uint itemId;\n        uint tokenId;\n        uint price;\n        address tokenContractAddress;\n        address payable seller;\n        address payable owner;\n    }\n\n    /**\n     * @dev Item created event\n     */\n    event ItemCreated (\n        uint itemId,\n        uint tokenId,\n        uint price,\n        address tokenContractAddress,\n        address seller,\n        address owner\n    );\n\n    /**\n     * @dev From item id to item map\n     */\n    mapping(uint => Item) private items;\n\n    /**\n     * @notice Add a new item to items and transfer the token\n     *\n     * @param _tokenContractAddress Token contract address\n     * @param _tokenId Token id\n     * @param _price Price\n     */\n    function addItem(address _tokenContractAddress, uint _tokenId, uint _price)\n        external\n        payable\n        onlyOwner\n    {\n        require(_price > 0, \"No ETH sent\");\n\n        itemId.increment();\n        uint currentItemId = itemId.current();\n        items[currentItemId] = Item(\n            currentItemId,\n            _tokenId,\n            _price,\n            _tokenContractAddress,\n            payable(msg.sender),\n            payable(address(0))\n        );\n        IERC721(_tokenContractAddress).safeTransferFrom(msg.sender, address(this), _tokenId);\n\n        emit ItemCreated(\n            currentItemId,\n            _tokenId,\n            _price,\n            _tokenContractAddress,\n            msg.sender,\n            address(0)\n        );\n    }\n\n    /**\n     * @notice Buy the item and transfer the ownership\n     */\n    function buyItem(address _tokenContractAddress, uint _itemId) external payable {\n        uint price = items[_itemId].price;\n        uint tokenId = items[_itemId].tokenId;\n        require(msg.value == price, \"Wrong price for this item\");\n\n        itemSoldCount.increment();\n        items[_itemId].owner = payable(msg.sender);\n        items[_itemId].seller.transfer(msg.value);\n        IERC721(_tokenContractAddress).transferFrom(address(this), msg.sender, tokenId);\n    }\n\n    /**\n     * @notice Get sender's collection items\n     *\n     * @return Sender collection items\n     */\n    function getSenderItems() external view returns (Item[] memory) {\n        uint totalItem = itemId.current();\n        uint totalSenderItems = 0;\n        uint senderItemsIndex = 0;\n\n        for (uint i = 0; i < totalItem; i++) {\n            if (items[i + 1].owner == msg.sender) {\n                totalSenderItems++;\n            }\n        }\n\n        Item[] memory senderItems = new Item[](totalSenderItems);\n\n        for (uint i = 0; i < totalItem; i++) {\n            if (items[i + 1].owner == msg.sender) {\n                Item memory currentItem = items[i + 1];\n                senderItems[senderItemsIndex] = currentItem;\n                senderItemsIndex++;\n            }\n        }\n\n        return senderItems;\n    }\n\n    /**\n     * @notice Get unsold items\n     *\n     * @return Unsold items list\n     */\n    function getUnsoldItems() external view returns (Item[] memory) {\n        uint totalItem = itemId.current();\n        uint totalUnsoldItems = totalItem - itemSoldCount.current();\n        uint unsoldItemsIndex = 0;\n        Item[] memory unsoldItems = new Item[](totalUnsoldItems);\n\n        for (uint i = 0; i < totalItem; i++) {\n            if (items[i + 1].owner == address(0)) {\n                Item memory currentItem = items[i + 1];\n                unsoldItems[unsoldItemsIndex] = currentItem;\n                unsoldItemsIndex++;\n            }\n        }\n\n        return unsoldItems;\n    }\n\n    /**\n     * @notice Get item by id\n     *\n     * @param _itemId Item id\n     *\n     * @return Item\n     */\n    function getItemById(uint _itemId) external view returns (Item memory) {\n        return items[_itemId];\n    }\n}\n",
  "sourcePath": "/app/contracts/CollectionMarket.sol",
  "compiler": {
    "name": "solc",
    "version": "0.8.13+commit.abaa5c0e.Emscripten.clang"
  },
  "schemaVersion": "3.4.4",
  "updatedAt": "2022-05-14T16:52:11.109Z",
  "networkType": "ethereum",
  "devdoc": {
    "author": "Jonacity",
    "events": {
      "ItemCreated(uint256,uint256,uint256,address,address,address)": {
        "details": "Item created event"
      }
    },
    "kind": "dev",
    "methods": {
      "addItem(address,uint256,uint256)": {
        "params": {
          "_price": "Price",
          "_tokenContractAddress": "Token contract address",
          "_tokenId": "Token id"
        }
      },
      "getItemById(uint256)": {
        "params": {
          "_itemId": "Item id"
        },
        "returns": {
          "_0": "Item"
        }
      },
      "getSenderItems()": {
        "returns": {
          "_0": "Sender collection items"
        }
      },
      "getUnsoldItems()": {
        "returns": {
          "_0": "Unsold items list"
        }
      },
      "onERC721Received(address,address,uint256,bytes)": {
        "details": "See {IERC721Receiver-onERC721Received}. Always returns `IERC721Receiver.onERC721Received.selector`."
      },
      "owner()": {
        "details": "Returns the address of the current owner."
      },
      "renounceOwnership()": {
        "details": "Leaves the contract without owner. It will not be possible to call `onlyOwner` functions anymore. Can only be called by the current owner. NOTE: Renouncing ownership will leave the contract without an owner, thereby removing any functionality that is only available to the owner."
      },
      "transferOwnership(address)": {
        "details": "Transfers ownership of the contract to a new account (`newOwner`). Can only be called by the current owner."
      }
    },
    "stateVariables": {
      "items": {
        "details": "From item id to item map"
      }
    },
    "title": "Nft Collection Market contract",
    "version": 1
  },
  "userdoc": {
    "kind": "user",
    "methods": {
      "addItem(address,uint256,uint256)": {
        "notice": "Add a new item to items and transfer the token"
      },
      "buyItem(address,uint256)": {
        "notice": "Buy the item and transfer the ownership"
      },
      "getItemById(uint256)": {
        "notice": "Get item by id"
      },
      "getSenderItems()": {
        "notice": "Get sender's collection items"
      },
      "getUnsoldItems()": {
        "notice": "Get unsold items"
      }
    },
    "notice": "This contract manages the collection market",
    "version": 1
  }
}