{
  "contractName": "CollectionToken",
  "abi": [
    {
      "inputs": [
        {
          "internalType": "string",
          "name": "_collectionName",
          "type": "string"
        },
        {
          "internalType": "string",
          "name": "_collectionSymbol",
          "type": "string"
        },
        {
          "internalType": "string",
          "name": "_newBaseURI",
          "type": "string"
        },
        {
          "internalType": "address",
          "name": "_marketContractAddress",
          "type": "address"
        }
      ],
      "stateMutability": "nonpayable",
      "type": "constructor"
    },
    {
      "anonymous": false,
      "inputs": [
        {
          "indexed": true,
          "internalType": "address",
          "name": "owner",
          "type": "address"
        },
        {
          "indexed": true,
          "internalType": "address",
          "name": "approved",
          "type": "address"
        },
        {
          "indexed": true,
          "internalType": "uint256",
          "name": "tokenId",
          "type": "uint256"
        }
      ],
      "name": "Approval",
      "type": "event"
    },
    {
      "anonymous": false,
      "inputs": [
        {
          "indexed": true,
          "internalType": "address",
          "name": "owner",
          "type": "address"
        },
        {
          "indexed": true,
          "internalType": "address",
          "name": "operator",
          "type": "address"
        },
        {
          "indexed": false,
          "internalType": "bool",
          "name": "approved",
          "type": "bool"
        }
      ],
      "name": "ApprovalForAll",
      "type": "event"
    },
    {
      "anonymous": false,
      "inputs": [
        {
          "indexed": true,
          "internalType": "address",
          "name": "previousOwner",
          "type": "address"
        },
        {
          "indexed": true,
          "internalType": "address",
          "name": "newOwner",
          "type": "address"
        }
      ],
      "name": "OwnershipTransferred",
      "type": "event"
    },
    {
      "anonymous": false,
      "inputs": [
        {
          "indexed": false,
          "internalType": "uint256",
          "name": "tokenId",
          "type": "uint256"
        },
        {
          "indexed": false,
          "internalType": "address",
          "name": "owner",
          "type": "address"
        },
        {
          "indexed": false,
          "internalType": "string",
          "name": "tokenURI",
          "type": "string"
        }
      ],
      "name": "TokenMinted",
      "type": "event"
    },
    {
      "anonymous": false,
      "inputs": [
        {
          "indexed": true,
          "internalType": "address",
          "name": "from",
          "type": "address"
        },
        {
          "indexed": true,
          "internalType": "address",
          "name": "to",
          "type": "address"
        },
        {
          "indexed": true,
          "internalType": "uint256",
          "name": "tokenId",
          "type": "uint256"
        }
      ],
      "name": "Transfer",
      "type": "event"
    },
    {
      "inputs": [
        {
          "internalType": "address",
          "name": "to",
          "type": "address"
        },
        {
          "internalType": "uint256",
          "name": "tokenId",
          "type": "uint256"
        }
      ],
      "name": "approve",
      "outputs": [],
      "stateMutability": "nonpayable",
      "type": "function"
    },
    {
      "inputs": [
        {
          "internalType": "address",
          "name": "owner",
          "type": "address"
        }
      ],
      "name": "balanceOf",
      "outputs": [
        {
          "internalType": "uint256",
          "name": "",
          "type": "uint256"
        }
      ],
      "stateMutability": "view",
      "type": "function"
    },
    {
      "inputs": [
        {
          "internalType": "uint256",
          "name": "tokenId",
          "type": "uint256"
        }
      ],
      "name": "getApproved",
      "outputs": [
        {
          "internalType": "address",
          "name": "",
          "type": "address"
        }
      ],
      "stateMutability": "view",
      "type": "function"
    },
    {
      "inputs": [
        {
          "internalType": "address",
          "name": "owner",
          "type": "address"
        },
        {
          "internalType": "address",
          "name": "operator",
          "type": "address"
        }
      ],
      "name": "isApprovedForAll",
      "outputs": [
        {
          "internalType": "bool",
          "name": "",
          "type": "bool"
        }
      ],
      "stateMutability": "view",
      "type": "function"
    },
    {
      "inputs": [],
      "name": "marketContractAddress",
      "outputs": [
        {
          "internalType": "address",
          "name": "",
          "type": "address"
        }
      ],
      "stateMutability": "view",
      "type": "function"
    },
    {
      "inputs": [],
      "name": "maxSupply",
      "outputs": [
        {
          "internalType": "uint256",
          "name": "",
          "type": "uint256"
        }
      ],
      "stateMutability": "view",
      "type": "function"
    },
    {
      "inputs": [],
      "name": "name",
      "outputs": [
        {
          "internalType": "string",
          "name": "",
          "type": "string"
        }
      ],
      "stateMutability": "view",
      "type": "function"
    },
    {
      "inputs": [],
      "name": "owner",
      "outputs": [
        {
          "internalType": "address",
          "name": "",
          "type": "address"
        }
      ],
      "stateMutability": "view",
      "type": "function"
    },
    {
      "inputs": [
        {
          "internalType": "uint256",
          "name": "tokenId",
          "type": "uint256"
        }
      ],
      "name": "ownerOf",
      "outputs": [
        {
          "internalType": "address",
          "name": "",
          "type": "address"
        }
      ],
      "stateMutability": "view",
      "type": "function"
    },
    {
      "inputs": [],
      "name": "renounceOwnership",
      "outputs": [],
      "stateMutability": "nonpayable",
      "type": "function"
    },
    {
      "inputs": [
        {
          "internalType": "address",
          "name": "from",
          "type": "address"
        },
        {
          "internalType": "address",
          "name": "to",
          "type": "address"
        },
        {
          "internalType": "uint256",
          "name": "tokenId",
          "type": "uint256"
        }
      ],
      "name": "safeTransferFrom",
      "outputs": [],
      "stateMutability": "nonpayable",
      "type": "function"
    },
    {
      "inputs": [
        {
          "internalType": "address",
          "name": "from",
          "type": "address"
        },
        {
          "internalType": "address",
          "name": "to",
          "type": "address"
        },
        {
          "internalType": "uint256",
          "name": "tokenId",
          "type": "uint256"
        },
        {
          "internalType": "bytes",
          "name": "_data",
          "type": "bytes"
        }
      ],
      "name": "safeTransferFrom",
      "outputs": [],
      "stateMutability": "nonpayable",
      "type": "function"
    },
    {
      "inputs": [
        {
          "internalType": "address",
          "name": "operator",
          "type": "address"
        },
        {
          "internalType": "bool",
          "name": "approved",
          "type": "bool"
        }
      ],
      "name": "setApprovalForAll",
      "outputs": [],
      "stateMutability": "nonpayable",
      "type": "function"
    },
    {
      "inputs": [],
      "name": "symbol",
      "outputs": [
        {
          "internalType": "string",
          "name": "",
          "type": "string"
        }
      ],
      "stateMutability": "view",
      "type": "function"
    },
    {
      "inputs": [
        {
          "internalType": "uint256",
          "name": "index",
          "type": "uint256"
        }
      ],
      "name": "tokenByIndex",
      "outputs": [
        {
          "internalType": "uint256",
          "name": "",
          "type": "uint256"
        }
      ],
      "stateMutability": "view",
      "type": "function"
    },
    {
      "inputs": [
        {
          "internalType": "address",
          "name": "owner",
          "type": "address"
        },
        {
          "internalType": "uint256",
          "name": "index",
          "type": "uint256"
        }
      ],
      "name": "tokenOfOwnerByIndex",
      "outputs": [
        {
          "internalType": "uint256",
          "name": "",
          "type": "uint256"
        }
      ],
      "stateMutability": "view",
      "type": "function"
    },
    {
      "inputs": [],
      "name": "totalSupply",
      "outputs": [
        {
          "internalType": "uint256",
          "name": "",
          "type": "uint256"
        }
      ],
      "stateMutability": "view",
      "type": "function"
    },
    {
      "inputs": [
        {
          "internalType": "address",
          "name": "from",
          "type": "address"
        },
        {
          "internalType": "address",
          "name": "to",
          "type": "address"
        },
        {
          "internalType": "uint256",
          "name": "tokenId",
          "type": "uint256"
        }
      ],
      "name": "transferFrom",
      "outputs": [],
      "stateMutability": "nonpayable",
      "type": "function"
    },
    {
      "inputs": [
        {
          "internalType": "address",
          "name": "newOwner",
          "type": "address"
        }
      ],
      "name": "transferOwnership",
      "outputs": [],
      "stateMutability": "nonpayable",
      "type": "function"
    },
    {
      "inputs": [
        {
          "internalType": "uint256",
          "name": "_maxSupply",
          "type": "uint256"
        }
      ],
      "name": "setMaxSupply",
      "outputs": [],
      "stateMutability": "nonpayable",
      "type": "function"
    },
    {
      "inputs": [
        {
          "internalType": "address",
          "name": "_marketContractAddress",
          "type": "address"
        }
      ],
      "name": "setMarketContractAddress",
      "outputs": [],
      "stateMutability": "nonpayable",
      "type": "function"
    },
    {
      "inputs": [],
      "name": "getBaseURI",
      "outputs": [
        {
          "internalType": "string",
          "name": "",
          "type": "string"
        }
      ],
      "stateMutability": "view",
      "type": "function"
    },
    {
      "inputs": [
        {
          "internalType": "string",
          "name": "_newBaseURI",
          "type": "string"
        }
      ],
      "name": "setBaseURI",
      "outputs": [],
      "stateMutability": "nonpayable",
      "type": "function"
    },
    {
      "inputs": [
        {
          "internalType": "string[]",
          "name": "tokenMetadataURIs",
          "type": "string[]"
        }
      ],
      "name": "mintCollection",
      "outputs": [],
      "stateMutability": "nonpayable",
      "type": "function"
    },
    {
      "inputs": [
        {
          "internalType": "bytes4",
          "name": "interfaceId",
          "type": "bytes4"
        }
      ],
      "name": "supportsInterface",
      "outputs": [
        {
          "internalType": "bool",
          "name": "",
          "type": "bool"
        }
      ],
      "stateMutability": "view",
      "type": "function"
    },
    {
      "inputs": [
        {
          "internalType": "uint256",
          "name": "tokenId",
          "type": "uint256"
        }
      ],
      "name": "tokenURI",
      "outputs": [
        {
          "internalType": "string",
          "name": "",
          "type": "string"
        }
      ],
      "stateMutability": "view",
      "type": "function"
    }
  ],
  "bytecode": "0x60806040526003600c553480156200001657600080fd5b50604051620046a2380380620046a283398181016040528101906200003c919062000488565b8383816000908051906020019062000056929190620001d6565b5080600190805190602001906200006f929190620001d6565b505050620000a46200008f62000108640100000000026401000000009004565b62000110640100000000026401000000009004565b81600d9080519060200190620000bc929190620001d6565b5080600e60006101000a81548173ffffffffffffffffffffffffffffffffffffffff021916908373ffffffffffffffffffffffffffffffffffffffff16021790555050505050620005bb565b600033905090565b6000600b60009054906101000a900473ffffffffffffffffffffffffffffffffffffffff16905081600b60006101000a81548173ffffffffffffffffffffffffffffffffffffffff021916908373ffffffffffffffffffffffffffffffffffffffff1602179055508173ffffffffffffffffffffffffffffffffffffffff168173ffffffffffffffffffffffffffffffffffffffff167f8be0079c531659141344cd1fd0a4f28419497f9722a3daafe3b4186f6b6457e060405160405180910390a35050565b828054620001e49062000586565b90600052602060002090601f01602090048101928262000208576000855562000254565b82601f106200022357805160ff191683800117855562000254565b8280016001018555821562000254579182015b828111156200025357825182559160200191906001019062000236565b5b50905062000263919062000267565b5090565b5b808211156200028257600081600090555060010162000268565b5090565b6000604051905090565b600080fd5b600080fd5b600080fd5b600080fd5b6000601f19601f8301169050919050565b7f4e487b7100000000000000000000000000000000000000000000000000000000600052604160045260246000fd5b620002ef82620002a4565b810181811067ffffffffffffffff82111715620003115762000310620002b5565b5b80604052505050565b60006200032662000286565b9050620003348282620002e4565b919050565b600067ffffffffffffffff821115620003575762000356620002b5565b5b6200036282620002a4565b9050602081019050919050565b60005b838110156200038f57808201518184015260208101905062000372565b838111156200039f576000848401525b50505050565b6000620003bc620003b68462000339565b6200031a565b905082815260208101848484011115620003db57620003da6200029f565b5b620003e88482856200036f565b509392505050565b600082601f8301126200040857620004076200029a565b5b81516200041a848260208601620003a5565b91505092915050565b600073ffffffffffffffffffffffffffffffffffffffff82169050919050565b6000620004508262000423565b9050919050565b620004628162000443565b81146200046e57600080fd5b50565b600081519050620004828162000457565b92915050565b60008060008060808587031215620004a557620004a462000290565b5b600085015167ffffffffffffffff811115620004c657620004c562000295565b5b620004d487828801620003f0565b945050602085015167ffffffffffffffff811115620004f857620004f762000295565b5b6200050687828801620003f0565b935050604085015167ffffffffffffffff8111156200052a576200052962000295565b5b6200053887828801620003f0565b92505060606200054b8782880162000471565b91505092959194509250565b7f4e487b7100000000000000000000000000000000000000000000000000000000600052602260045260246000fd5b600060028204905060018216806200059f57607f821691505b602082108103620005b557620005b462000557565b5b50919050565b6140d780620005cb6000396000f3fe608060405234801561001057600080fd5b50600436106101ab576000357c0100000000000000000000000000000000000000000000000000000000900480636f8b44b0116100fb578063a22cb465116100b4578063c87b56dd1161008e578063c87b56dd1461048a578063d5abeb01146104ba578063e985e9c5146104d8578063f2fde38b14610508576101ab565b8063a22cb46514610436578063b88d4fde14610452578063c73358de1461046e576101ab565b80636f8b44b01461038657806370a08231146103a2578063714c5398146103d2578063715018a6146103f05780638da5cb5b146103fa57806395d89b4114610418576101ab565b80632f745c591161016857806342842e0e1161014257806342842e0e146102ee5780634f6ccce71461030a57806355f804b31461033a5780636352211e14610356576101ab565b80632f745c59146102845780633087cbe3146102b457806337c3aa58146102d2576101ab565b806301ffc9a7146101b057806306fdde03146101e0578063081812fc146101fe578063095ea7b31461022e57806318160ddd1461024a57806323b872dd14610268575b600080fd5b6101ca60048036038101906101c591906129b8565b610524565b6040516101d79190612a00565b60405180910390f35b6101e8610536565b6040516101f59190612ab4565b60405180910390f35b61021860048036038101906102139190612b0c565b6105c8565b6040516102259190612b7a565b60405180910390f35b61024860048036038101906102439190612bc1565b61064d565b005b610252610764565b60405161025f9190612c10565b60405180910390f35b610282600480360381019061027d9190612c2b565b610771565b005b61029e60048036038101906102999190612bc1565b6107d1565b6040516102ab9190612c10565b60405180910390f35b6102bc610876565b6040516102c99190612b7a565b60405180910390f35b6102ec60048036038101906102e79190612e99565b61089c565b005b61030860048036038101906103039190612c2b565b610a50565b005b610324600480360381019061031f9190612b0c565b610a70565b6040516103319190612c10565b60405180910390f35b610354600480360381019061034f9190612ee2565b610ae1565b005b610370600480360381019061036b9190612b0c565b610b77565b60405161037d9190612b7a565b60405180910390f35b6103a0600480360381019061039b9190612b0c565b610c28565b005b6103bc60048036038101906103b79190612f2b565b610cae565b6040516103c99190612c10565b60405180910390f35b6103da610d65565b6040516103e79190612ab4565b60405180910390f35b6103f8610e73565b005b610402610efb565b60405161040f9190612b7a565b60405180910390f35b610420610f25565b60405161042d9190612ab4565b60405180910390f35b610450600480360381019061044b9190612f84565b610fb7565b005b61046c60048036038101906104679190613065565b610fcd565b005b61048860048036038101906104839190612f2b565b61102f565b005b6104a4600480360381019061049f9190612b0c565b61115e565b6040516104b19190612ab4565b60405180910390f35b6104c2611170565b6040516104cf9190612c10565b60405180910390f35b6104f260048036038101906104ed91906130e8565b611176565b6040516104ff9190612a00565b60405180910390f35b610522600480360381019061051d9190612f2b565b61120a565b005b600061052f82611301565b9050919050565b60606000805461054590613157565b80601f016020809104026020016040519081016040528092919081815260200182805461057190613157565b80156105be5780601f10610593576101008083540402835291602001916105be565b820191906000526020600020905b8154815290600101906020018083116105a157829003601f168201915b5050505050905090565b60006105d38261137b565b610612576040517f08c379a0000000000000000000000000000000000000000000000000000000008152600401610609906131fa565b60405180910390fd5b6004600083815260200190815260200160002060009054906101000a900473ffffffffffffffffffffffffffffffffffffffff169050919050565b600061065882610b77565b90508073ffffffffffffffffffffffffffffffffffffffff168373ffffffffffffffffffffffffffffffffffffffff16036106c8576040517f08c379a00000000000000000000000000000000000000000000000000000000081526004016106bf9061328c565b60405180910390fd5b8073ffffffffffffffffffffffffffffffffffffffff166106e76113e7565b73ffffffffffffffffffffffffffffffffffffffff1614806107165750610715816107106113e7565b611176565b5b610755576040517f08c379a000000000000000000000000000000000000000000000000000000000815260040161074c9061331e565b60405180910390fd5b61075f83836113ef565b505050565b6000600880549050905090565b61078261077c6113e7565b826114a8565b6107c1576040517f08c379a00000000000000000000000000000000000000000000000000000000081526004016107b8906133b0565b60405180910390fd5b6107cc838383611586565b505050565b60006107dc83610cae565b821061081d576040517f08c379a000000000000000000000000000000000000000000000000000000000815260040161081490613442565b60405180910390fd5b600660008473ffffffffffffffffffffffffffffffffffffffff1673ffffffffffffffffffffffffffffffffffffffff168152602001908152602001600020600083815260200190815260200160002054905092915050565b600e60009054906101000a900473ffffffffffffffffffffffffffffffffffffffff1681565b6108a46113e7565b73ffffffffffffffffffffffffffffffffffffffff166108c2610efb565b73ffffffffffffffffffffffffffffffffffffffff1614610918576040517f08c379a000000000000000000000000000000000000000000000000000000000815260040161090f906134ae565b60405180910390fd5b6000610922610764565b9050600c548110610968576040517f08c379a000000000000000000000000000000000000000000000000000000000815260040161095f9061351a565b60405180910390fd5b60005b8251811015610a1e57818061097f90613569565b925050600082905061099133826117ec565b6109b5818584815181106109a8576109a76135b1565b5b602002602001015161180a565b7fec2cd236ed6d37bf5a71276ac93889db12834493a090efd543a3d2eca8dcdcc881338685815181106109eb576109ea6135b1565b5b6020026020010151604051610a02939291906135e0565b60405180910390a1508080610a1690613569565b91505061096b565b50610a4c600e60009054906101000a900473ffffffffffffffffffffffffffffffffffffffff166001610fb7565b5050565b610a6b83838360405180602001604052806000815250610fcd565b505050565b6000610a7a610764565b8210610abb576040517f08c379a0000000000000000000000000000000000000000000000000000000008152600401610ab290613690565b60405180910390fd5b60088281548110610acf57610ace6135b1565b5b90600052602060002001549050919050565b610ae96113e7565b73ffffffffffffffffffffffffffffffffffffffff16610b07610efb565b73ffffffffffffffffffffffffffffffffffffffff1614610b5d576040517f08c379a0000000000000000000000000000000000000000000000000000000008152600401610b54906134ae565b60405180910390fd5b80600d9080519060200190610b739291906128a9565b5050565b6000806002600084815260200190815260200160002060009054906101000a900473ffffffffffffffffffffffffffffffffffffffff169050600073ffffffffffffffffffffffffffffffffffffffff168173ffffffffffffffffffffffffffffffffffffffff1603610c1f576040517f08c379a0000000000000000000000000000000000000000000000000000000008152600401610c1690613722565b60405180910390fd5b80915050919050565b610c306113e7565b73ffffffffffffffffffffffffffffffffffffffff16610c4e610efb565b73ffffffffffffffffffffffffffffffffffffffff1614610ca4576040517f08c379a0000000000000000000000000000000000000000000000000000000008152600401610c9b906134ae565b60405180910390fd5b80600c8190555050565b60008073ffffffffffffffffffffffffffffffffffffffff168273ffffffffffffffffffffffffffffffffffffffff1603610d1e576040517f08c379a0000000000000000000000000000000000000000000000000000000008152600401610d15906137b4565b60405180910390fd5b600360008373ffffffffffffffffffffffffffffffffffffffff1673ffffffffffffffffffffffffffffffffffffffff168152602001908152602001600020549050919050565b6060610d6f6113e7565b73ffffffffffffffffffffffffffffffffffffffff16610d8d610efb565b73ffffffffffffffffffffffffffffffffffffffff1614610de3576040517f08c379a0000000000000000000000000000000000000000000000000000000008152600401610dda906134ae565b60405180910390fd5b600d8054610df090613157565b80601f0160208091040260200160405190810160405280929190818152602001828054610e1c90613157565b8015610e695780601f10610e3e57610100808354040283529160200191610e69565b820191906000526020600020905b815481529060010190602001808311610e4c57829003601f168201915b5050505050905090565b610e7b6113e7565b73ffffffffffffffffffffffffffffffffffffffff16610e99610efb565b73ffffffffffffffffffffffffffffffffffffffff1614610eef576040517f08c379a0000000000000000000000000000000000000000000000000000000008152600401610ee6906134ae565b60405180910390fd5b610ef9600061187e565b565b6000600b60009054906101000a900473ffffffffffffffffffffffffffffffffffffffff16905090565b606060018054610f3490613157565b80601f0160208091040260200160405190810160405280929190818152602001828054610f6090613157565b8015610fad5780601f10610f8257610100808354040283529160200191610fad565b820191906000526020600020905b815481529060010190602001808311610f9057829003601f168201915b5050505050905090565b610fc9610fc26113e7565b8383611944565b5050565b610fde610fd86113e7565b836114a8565b61101d576040517f08c379a0000000000000000000000000000000000000000000000000000000008152600401611014906133b0565b60405180910390fd5b61102984848484611ab0565b50505050565b6110376113e7565b73ffffffffffffffffffffffffffffffffffffffff16611055610efb565b73ffffffffffffffffffffffffffffffffffffffff16146110ab576040517f08c379a00000000000000000000000000000000000000000000000000000000081526004016110a2906134ae565b60405180910390fd5b600073ffffffffffffffffffffffffffffffffffffffff168173ffffffffffffffffffffffffffffffffffffffff160361111a576040517f08c379a000000000000000000000000000000000000000000000000000000000815260040161111190613820565b60405180910390fd5b80600e60006101000a81548173ffffffffffffffffffffffffffffffffffffffff021916908373ffffffffffffffffffffffffffffffffffffffff16021790555050565b606061116982611b0c565b9050919050565b600c5481565b6000600560008473ffffffffffffffffffffffffffffffffffffffff1673ffffffffffffffffffffffffffffffffffffffff16815260200190815260200160002060008373ffffffffffffffffffffffffffffffffffffffff1673ffffffffffffffffffffffffffffffffffffffff16815260200190815260200160002060009054906101000a900460ff16905092915050565b6112126113e7565b73ffffffffffffffffffffffffffffffffffffffff16611230610efb565b73ffffffffffffffffffffffffffffffffffffffff1614611286576040517f08c379a000000000000000000000000000000000000000000000000000000000815260040161127d906134ae565b60405180910390fd5b600073ffffffffffffffffffffffffffffffffffffffff168173ffffffffffffffffffffffffffffffffffffffff16036112f5576040517f08c379a00000000000000000000000000000000000000000000000000000000081526004016112ec906138b2565b60405180910390fd5b6112fe8161187e565b50565b60007f780e9d63000000000000000000000000000000000000000000000000000000007bffffffffffffffffffffffffffffffffffffffffffffffffffffffff1916827bffffffffffffffffffffffffffffffffffffffffffffffffffffffff19161480611374575061137382611c5d565b5b9050919050565b60008073ffffffffffffffffffffffffffffffffffffffff166002600084815260200190815260200160002060009054906101000a900473ffffffffffffffffffffffffffffffffffffffff1673ffffffffffffffffffffffffffffffffffffffff1614159050919050565b600033905090565b816004600083815260200190815260200160002060006101000a81548173ffffffffffffffffffffffffffffffffffffffff021916908373ffffffffffffffffffffffffffffffffffffffff160217905550808273ffffffffffffffffffffffffffffffffffffffff1661146283610b77565b73ffffffffffffffffffffffffffffffffffffffff167f8c5be1e5ebec7d5bd14f71427d1e84f3dd0314c0f7b2291e5b200ac8c7c3b92560405160405180910390a45050565b60006114b38261137b565b6114f2576040517f08c379a00000000000000000000000000000000000000000000000000000000081526004016114e990613944565b60405180910390fd5b60006114fd83610b77565b90508073ffffffffffffffffffffffffffffffffffffffff168473ffffffffffffffffffffffffffffffffffffffff16148061156c57508373ffffffffffffffffffffffffffffffffffffffff16611554846105c8565b73ffffffffffffffffffffffffffffffffffffffff16145b8061157d575061157c8185611176565b5b91505092915050565b8273ffffffffffffffffffffffffffffffffffffffff166115a682610b77565b73ffffffffffffffffffffffffffffffffffffffff16146115fc576040517f08c379a00000000000000000000000000000000000000000000000000000000081526004016115f3906139d6565b60405180910390fd5b600073ffffffffffffffffffffffffffffffffffffffff168273ffffffffffffffffffffffffffffffffffffffff160361166b576040517f08c379a000000000000000000000000000000000000000000000000000000000815260040161166290613a68565b60405180910390fd5b611676838383611d3f565b6116816000826113ef565b6001600360008573ffffffffffffffffffffffffffffffffffffffff1673ffffffffffffffffffffffffffffffffffffffff16815260200190815260200160002060008282546116d19190613a88565b925050819055506001600360008473ffffffffffffffffffffffffffffffffffffffff1673ffffffffffffffffffffffffffffffffffffffff16815260200190815260200160002060008282546117289190613abc565b92505081905550816002600083815260200190815260200160002060006101000a81548173ffffffffffffffffffffffffffffffffffffffff021916908373ffffffffffffffffffffffffffffffffffffffff160217905550808273ffffffffffffffffffffffffffffffffffffffff168473ffffffffffffffffffffffffffffffffffffffff167fddf252ad1be2c89b69c2b068fc378daa952ba7f163c4a11628f55a4df523b3ef60405160405180910390a46117e7838383611d4f565b505050565b611806828260405180602001604052806000815250611d54565b5050565b6118138261137b565b611852576040517f08c379a000000000000000000000000000000000000000000000000000000000815260040161184990613b84565b60405180910390fd5b80600a600084815260200190815260200160002090805190602001906118799291906128a9565b505050565b6000600b60009054906101000a900473ffffffffffffffffffffffffffffffffffffffff16905081600b60006101000a81548173ffffffffffffffffffffffffffffffffffffffff021916908373ffffffffffffffffffffffffffffffffffffffff1602179055508173ffffffffffffffffffffffffffffffffffffffff168173ffffffffffffffffffffffffffffffffffffffff167f8be0079c531659141344cd1fd0a4f28419497f9722a3daafe3b4186f6b6457e060405160405180910390a35050565b8173ffffffffffffffffffffffffffffffffffffffff168373ffffffffffffffffffffffffffffffffffffffff16036119b2576040517f08c379a00000000000000000000000000000000000000000000000000000000081526004016119a990613bf0565b60405180910390fd5b80600560008573ffffffffffffffffffffffffffffffffffffffff1673ffffffffffffffffffffffffffffffffffffffff16815260200190815260200160002060008473ffffffffffffffffffffffffffffffffffffffff1673ffffffffffffffffffffffffffffffffffffffff16815260200190815260200160002060006101000a81548160ff0219169083151502179055508173ffffffffffffffffffffffffffffffffffffffff168373ffffffffffffffffffffffffffffffffffffffff167f17307eab39ab6107e8899845ad3d59bd9653f200f220920489ca2b5937696c3183604051611aa39190612a00565b60405180910390a3505050565b611abb848484611586565b611ac784848484611daf565b611b06576040517f08c379a0000000000000000000000000000000000000000000000000000000008152600401611afd90613c82565b60405180910390fd5b50505050565b6060611b178261137b565b611b56576040517f08c379a0000000000000000000000000000000000000000000000000000000008152600401611b4d90613d14565b60405180910390fd5b6000600a60008481526020019081526020016000208054611b7690613157565b80601f0160208091040260200160405190810160405280929190818152602001828054611ba290613157565b8015611bef5780601f10611bc457610100808354040283529160200191611bef565b820191906000526020600020905b815481529060010190602001808311611bd257829003601f168201915b505050505090506000611c00611f6e565b90506000815103611c15578192505050611c58565b600082511115611c4a578082604051602001611c32929190613d70565b60405160208183030381529060405292505050611c58565b611c5384612000565b925050505b919050565b60007f80ac58cd000000000000000000000000000000000000000000000000000000007bffffffffffffffffffffffffffffffffffffffffffffffffffffffff1916827bffffffffffffffffffffffffffffffffffffffffffffffffffffffff19161480611d2857507f5b5e139f000000000000000000000000000000000000000000000000000000007bffffffffffffffffffffffffffffffffffffffffffffffffffffffff1916827bffffffffffffffffffffffffffffffffffffffffffffffffffffffff1916145b80611d385750611d37826120a7565b5b9050919050565b611d4a838383612111565b505050565b505050565b611d5e8383612223565b611d6b6000848484611daf565b611daa576040517f08c379a0000000000000000000000000000000000000000000000000000000008152600401611da190613c82565b60405180910390fd5b505050565b6000611dd08473ffffffffffffffffffffffffffffffffffffffff166123fc565b15611f61578373ffffffffffffffffffffffffffffffffffffffff1663150b7a02611df96113e7565b8786866040518563ffffffff167c0100000000000000000000000000000000000000000000000000000000028152600401611e379493929190613de9565b6020604051808303816000875af1925050508015611e7357506040513d601f19601f82011682018060405250810190611e709190613e4a565b60015b611ef5573d8060008114611ea3576040519150601f19603f3d011682016040523d82523d6000602084013e611ea8565b606091505b506000815103611eed576040517f08c379a0000000000000000000000000000000000000000000000000000000008152600401611ee490613c82565b60405180910390fd5b805181602001fd5b63150b7a027c0100000000000000000000000000000000000000000000000000000000027bffffffffffffffffffffffffffffffffffffffffffffffffffffffff1916817bffffffffffffffffffffffffffffffffffffffffffffffffffffffff191614915050611f66565b600190505b949350505050565b6060600d8054611f7d90613157565b80601f0160208091040260200160405190810160405280929190818152602001828054611fa990613157565b8015611ff65780601f10611fcb57610100808354040283529160200191611ff6565b820191906000526020600020905b815481529060010190602001808311611fd957829003601f168201915b5050505050905090565b606061200b8261137b565b61204a576040517f08c379a000000000000000000000000000000000000000000000000000000000815260040161204190613ee9565b60405180910390fd5b6000612054611f6e565b90506000815111612074576040518060200160405280600081525061209f565b8061207e8461241f565b60405160200161208f929190613d70565b6040516020818303038152906040525b915050919050565b60007f01ffc9a7000000000000000000000000000000000000000000000000000000007bffffffffffffffffffffffffffffffffffffffffffffffffffffffff1916827bffffffffffffffffffffffffffffffffffffffffffffffffffffffff1916149050919050565b61211c83838361259e565b600073ffffffffffffffffffffffffffffffffffffffff168373ffffffffffffffffffffffffffffffffffffffff160361215e57612159816125a3565b61219d565b8173ffffffffffffffffffffffffffffffffffffffff168373ffffffffffffffffffffffffffffffffffffffff161461219c5761219b83826125ec565b5b5b600073ffffffffffffffffffffffffffffffffffffffff168273ffffffffffffffffffffffffffffffffffffffff16036121df576121da81612759565b61221e565b8273ffffffffffffffffffffffffffffffffffffffff168273ffffffffffffffffffffffffffffffffffffffff161461221d5761221c828261282a565b5b5b505050565b600073ffffffffffffffffffffffffffffffffffffffff168273ffffffffffffffffffffffffffffffffffffffff1603612292576040517f08c379a000000000000000000000000000000000000000000000000000000000815260040161228990613f55565b60405180910390fd5b61229b8161137b565b156122db576040517f08c379a00000000000000000000000000000000000000000000000000000000081526004016122d290613fc1565b60405180910390fd5b6122e760008383611d3f565b6001600360008473ffffffffffffffffffffffffffffffffffffffff1673ffffffffffffffffffffffffffffffffffffffff16815260200190815260200160002060008282546123379190613abc565b92505081905550816002600083815260200190815260200160002060006101000a81548173ffffffffffffffffffffffffffffffffffffffff021916908373ffffffffffffffffffffffffffffffffffffffff160217905550808273ffffffffffffffffffffffffffffffffffffffff16600073ffffffffffffffffffffffffffffffffffffffff167fddf252ad1be2c89b69c2b068fc378daa952ba7f163c4a11628f55a4df523b3ef60405160405180910390a46123f860008383611d4f565b5050565b6000808273ffffffffffffffffffffffffffffffffffffffff163b119050919050565b606060008203612466576040518060400160405280600181526020017f30000000000000000000000000000000000000000000000000000000000000008152509050612599565b600082905060005b6000821461249857808061248190613569565b915050600a826124919190614010565b915061246e565b60008167ffffffffffffffff8111156124b4576124b3612c83565b5b6040519080825280601f01601f1916602001820160405280156124e65781602001600182028036833780820191505090505b5090505b60008514612592576001826124ff9190613a88565b9150600a8561250e9190614041565b603061251a9190613abc565b7f01000000000000000000000000000000000000000000000000000000000000000281838151811061254f5761254e6135b1565b5b60200101907effffffffffffffffffffffffffffffffffffffffffffffffffffffffffffff1916908160001a905350600a8561258b9190614010565b94506124ea565b8093505050505b919050565b505050565b6008805490506009600083815260200190815260200160002081905550600881908060018154018082558091505060019003906000526020600020016000909190919091505550565b600060016125f984610cae565b6126039190613a88565b90506000600760008481526020019081526020016000205490508181146126e8576000600660008673ffffffffffffffffffffffffffffffffffffffff1673ffffffffffffffffffffffffffffffffffffffff168152602001908152602001600020600084815260200190815260200160002054905080600660008773ffffffffffffffffffffffffffffffffffffffff1673ffffffffffffffffffffffffffffffffffffffff168152602001908152602001600020600084815260200190815260200160002081905550816007600083815260200190815260200160002081905550505b6007600084815260200190815260200160002060009055600660008573ffffffffffffffffffffffffffffffffffffffff1673ffffffffffffffffffffffffffffffffffffffff16815260200190815260200160002060008381526020019081526020016000206000905550505050565b6000600160088054905061276d9190613a88565b905060006009600084815260200190815260200160002054905060006008838154811061279d5761279c6135b1565b5b9060005260206000200154905080600883815481106127bf576127be6135b1565b5b90600052602060002001819055508160096000838152602001908152602001600020819055506009600085815260200190815260200160002060009055600880548061280e5761280d614072565b5b6001900381819060005260206000200160009055905550505050565b600061283583610cae565b905081600660008573ffffffffffffffffffffffffffffffffffffffff1673ffffffffffffffffffffffffffffffffffffffff168152602001908152602001600020600083815260200190815260200160002081905550806007600084815260200190815260200160002081905550505050565b8280546128b590613157565b90600052602060002090601f0160209004810192826128d7576000855561291e565b82601f106128f057805160ff191683800117855561291e565b8280016001018555821561291e579182015b8281111561291d578251825591602001919060010190612902565b5b50905061292b919061292f565b5090565b5b80821115612948576000816000905550600101612930565b5090565b6000604051905090565b600080fd5b600080fd5b60007fffffffff0000000000000000000000000000000000000000000000000000000082169050919050565b61299581612960565b81146129a057600080fd5b50565b6000813590506129b28161298c565b92915050565b6000602082840312156129ce576129cd612956565b5b60006129dc848285016129a3565b91505092915050565b60008115159050919050565b6129fa816129e5565b82525050565b6000602082019050612a1560008301846129f1565b92915050565b600081519050919050565b600082825260208201905092915050565b60005b83811015612a55578082015181840152602081019050612a3a565b83811115612a64576000848401525b50505050565b6000601f19601f8301169050919050565b6000612a8682612a1b565b612a908185612a26565b9350612aa0818560208601612a37565b612aa981612a6a565b840191505092915050565b60006020820190508181036000830152612ace8184612a7b565b905092915050565b6000819050919050565b612ae981612ad6565b8114612af457600080fd5b50565b600081359050612b0681612ae0565b92915050565b600060208284031215612b2257612b21612956565b5b6000612b3084828501612af7565b91505092915050565b600073ffffffffffffffffffffffffffffffffffffffff82169050919050565b6000612b6482612b39565b9050919050565b612b7481612b59565b82525050565b6000602082019050612b8f6000830184612b6b565b92915050565b612b9e81612b59565b8114612ba957600080fd5b50565b600081359050612bbb81612b95565b92915050565b60008060408385031215612bd857612bd7612956565b5b6000612be685828601612bac565b9250506020612bf785828601612af7565b9150509250929050565b612c0a81612ad6565b82525050565b6000602082019050612c256000830184612c01565b92915050565b600080600060608486031215612c4457612c43612956565b5b6000612c5286828701612bac565b9350506020612c6386828701612bac565b9250506040612c7486828701612af7565b9150509250925092565b600080fd5b7f4e487b7100000000000000000000000000000000000000000000000000000000600052604160045260246000fd5b612cbb82612a6a565b810181811067ffffffffffffffff82111715612cda57612cd9612c83565b5b80604052505050565b6000612ced61294c565b9050612cf98282612cb2565b919050565b600067ffffffffffffffff821115612d1957612d18612c83565b5b602082029050602081019050919050565b600080fd5b600080fd5b600067ffffffffffffffff821115612d4f57612d4e612c83565b5b612d5882612a6a565b9050602081019050919050565b82818337600083830152505050565b6000612d87612d8284612d34565b612ce3565b905082815260208101848484011115612da357612da2612d2f565b5b612dae848285612d65565b509392505050565b600082601f830112612dcb57612dca612c7e565b5b8135612ddb848260208601612d74565b91505092915050565b6000612df7612df284612cfe565b612ce3565b90508083825260208201905060208402830185811115612e1a57612e19612d2a565b5b835b81811015612e6157803567ffffffffffffffff811115612e3f57612e3e612c7e565b5b808601612e4c8982612db6565b85526020850194505050602081019050612e1c565b5050509392505050565b600082601f830112612e8057612e7f612c7e565b5b8135612e90848260208601612de4565b91505092915050565b600060208284031215612eaf57612eae612956565b5b600082013567ffffffffffffffff811115612ecd57612ecc61295b565b5b612ed984828501612e6b565b91505092915050565b600060208284031215612ef857612ef7612956565b5b600082013567ffffffffffffffff811115612f1657612f1561295b565b5b612f2284828501612db6565b91505092915050565b600060208284031215612f4157612f40612956565b5b6000612f4f84828501612bac565b91505092915050565b612f61816129e5565b8114612f6c57600080fd5b50565b600081359050612f7e81612f58565b92915050565b60008060408385031215612f9b57612f9a612956565b5b6000612fa985828601612bac565b9250506020612fba85828601612f6f565b9150509250929050565b600067ffffffffffffffff821115612fdf57612fde612c83565b5b612fe882612a6a565b9050602081019050919050565b600061300861300384612fc4565b612ce3565b90508281526020810184848401111561302457613023612d2f565b5b61302f848285612d65565b509392505050565b600082601f83011261304c5761304b612c7e565b5b813561305c848260208601612ff5565b91505092915050565b6000806000806080858703121561307f5761307e612956565b5b600061308d87828801612bac565b945050602061309e87828801612bac565b93505060406130af87828801612af7565b925050606085013567ffffffffffffffff8111156130d0576130cf61295b565b5b6130dc87828801613037565b91505092959194509250565b600080604083850312156130ff576130fe612956565b5b600061310d85828601612bac565b925050602061311e85828601612bac565b9150509250929050565b7f4e487b7100000000000000000000000000000000000000000000000000000000600052602260045260246000fd5b6000600282049050600182168061316f57607f821691505b60208210810361318257613181613128565b5b50919050565b7f4552433732313a20617070726f76656420717565727920666f72206e6f6e657860008201527f697374656e7420746f6b656e0000000000000000000000000000000000000000602082015250565b60006131e4602c83612a26565b91506131ef82613188565b604082019050919050565b60006020820190508181036000830152613213816131d7565b9050919050565b7f4552433732313a20617070726f76616c20746f2063757272656e74206f776e6560008201527f7200000000000000000000000000000000000000000000000000000000000000602082015250565b6000613276602183612a26565b91506132818261321a565b604082019050919050565b600060208201905081810360008301526132a581613269565b9050919050565b7f4552433732313a20617070726f76652063616c6c6572206973206e6f74206f7760008201527f6e6572206e6f7220617070726f76656420666f7220616c6c0000000000000000602082015250565b6000613308603883612a26565b9150613313826132ac565b604082019050919050565b60006020820190508181036000830152613337816132fb565b9050919050565b7f4552433732313a207472616e736665722063616c6c6572206973206e6f74206f60008201527f776e6572206e6f7220617070726f766564000000000000000000000000000000602082015250565b600061339a603183612a26565b91506133a58261333e565b604082019050919050565b600060208201905081810360008301526133c98161338d565b9050919050565b7f455243373231456e756d657261626c653a206f776e657220696e646578206f7560008201527f74206f6620626f756e6473000000000000000000000000000000000000000000602082015250565b600061342c602b83612a26565b9150613437826133d0565b604082019050919050565b6000602082019050818103600083015261345b8161341f565b9050919050565b7f4f776e61626c653a2063616c6c6572206973206e6f7420746865206f776e6572600082015250565b6000613498602083612a26565b91506134a382613462565b602082019050919050565b600060208201905081810360008301526134c78161348b565b9050919050565b7f556e61626c6520746f206d696e74206d6f7265206974656d7300000000000000600082015250565b6000613504601983612a26565b915061350f826134ce565b602082019050919050565b60006020820190508181036000830152613533816134f7565b9050919050565b7f4e487b7100000000000000000000000000000000000000000000000000000000600052601160045260246000fd5b600061357482612ad6565b91507fffffffffffffffffffffffffffffffffffffffffffffffffffffffffffffffff82036135a6576135a561353a565b5b600182019050919050565b7f4e487b7100000000000000000000000000000000000000000000000000000000600052603260045260246000fd5b60006060820190506135f56000830186612c01565b6136026020830185612b6b565b81810360408301526136148184612a7b565b9050949350505050565b7f455243373231456e756d657261626c653a20676c6f62616c20696e646578206f60008201527f7574206f6620626f756e64730000000000000000000000000000000000000000602082015250565b600061367a602c83612a26565b91506136858261361e565b604082019050919050565b600060208201905081810360008301526136a98161366d565b9050919050565b7f4552433732313a206f776e657220717565727920666f72206e6f6e657869737460008201527f656e7420746f6b656e0000000000000000000000000000000000000000000000602082015250565b600061370c602983612a26565b9150613717826136b0565b604082019050919050565b6000602082019050818103600083015261373b816136ff565b9050919050565b7f4552433732313a2062616c616e636520717565727920666f7220746865207a6560008201527f726f206164647265737300000000000000000000000000000000000000000000602082015250565b600061379e602a83612a26565b91506137a982613742565b604082019050919050565b600060208201905081810360008301526137cd81613791565b9050919050565b7f41646472657373206e6f742076616c6964000000000000000000000000000000600082015250565b600061380a601183612a26565b9150613815826137d4565b602082019050919050565b60006020820190508181036000830152613839816137fd565b9050919050565b7f4f776e61626c653a206e6577206f776e657220697320746865207a65726f206160008201527f6464726573730000000000000000000000000000000000000000000000000000602082015250565b600061389c602683612a26565b91506138a782613840565b604082019050919050565b600060208201905081810360008301526138cb8161388f565b9050919050565b7f4552433732313a206f70657261746f7220717565727920666f72206e6f6e657860008201527f697374656e7420746f6b656e0000000000000000000000000000000000000000602082015250565b600061392e602c83612a26565b9150613939826138d2565b604082019050919050565b6000602082019050818103600083015261395d81613921565b9050919050565b7f4552433732313a207472616e736665722066726f6d20696e636f72726563742060008201527f6f776e6572000000000000000000000000000000000000000000000000000000602082015250565b60006139c0602583612a26565b91506139cb82613964565b604082019050919050565b600060208201905081810360008301526139ef816139b3565b9050919050565b7f4552433732313a207472616e7366657220746f20746865207a65726f2061646460008201527f7265737300000000000000000000000000000000000000000000000000000000602082015250565b6000613a52602483612a26565b9150613a5d826139f6565b604082019050919050565b60006020820190508181036000830152613a8181613a45565b9050919050565b6000613a9382612ad6565b9150613a9e83612ad6565b925082821015613ab157613ab061353a565b5b828203905092915050565b6000613ac782612ad6565b9150613ad283612ad6565b9250827fffffffffffffffffffffffffffffffffffffffffffffffffffffffffffffffff03821115613b0757613b0661353a565b5b828201905092915050565b7f45524337323155524953746f726167653a2055524920736574206f66206e6f6e60008201527f6578697374656e7420746f6b656e000000000000000000000000000000000000602082015250565b6000613b6e602e83612a26565b9150613b7982613b12565b604082019050919050565b60006020820190508181036000830152613b9d81613b61565b9050919050565b7f4552433732313a20617070726f766520746f2063616c6c657200000000000000600082015250565b6000613bda601983612a26565b9150613be582613ba4565b602082019050919050565b60006020820190508181036000830152613c0981613bcd565b9050919050565b7f4552433732313a207472616e7366657220746f206e6f6e20455243373231526560008201527f63656976657220696d706c656d656e7465720000000000000000000000000000602082015250565b6000613c6c603283612a26565b9150613c7782613c10565b604082019050919050565b60006020820190508181036000830152613c9b81613c5f565b9050919050565b7f45524337323155524953746f726167653a2055524920717565727920666f722060008201527f6e6f6e6578697374656e7420746f6b656e000000000000000000000000000000602082015250565b6000613cfe603183612a26565b9150613d0982613ca2565b604082019050919050565b60006020820190508181036000830152613d2d81613cf1565b9050919050565b600081905092915050565b6000613d4a82612a1b565b613d548185613d34565b9350613d64818560208601612a37565b80840191505092915050565b6000613d7c8285613d3f565b9150613d888284613d3f565b91508190509392505050565b600081519050919050565b600082825260208201905092915050565b6000613dbb82613d94565b613dc58185613d9f565b9350613dd5818560208601612a37565b613dde81612a6a565b840191505092915050565b6000608082019050613dfe6000830187612b6b565b613e0b6020830186612b6b565b613e186040830185612c01565b8181036060830152613e2a8184613db0565b905095945050505050565b600081519050613e448161298c565b92915050565b600060208284031215613e6057613e5f612956565b5b6000613e6e84828501613e35565b91505092915050565b7f4552433732314d657461646174613a2055524920717565727920666f72206e6f60008201527f6e6578697374656e7420746f6b656e0000000000000000000000000000000000602082015250565b6000613ed3602f83612a26565b9150613ede82613e77565b604082019050919050565b60006020820190508181036000830152613f0281613ec6565b9050919050565b7f4552433732313a206d696e7420746f20746865207a65726f2061646472657373600082015250565b6000613f3f602083612a26565b9150613f4a82613f09565b602082019050919050565b60006020820190508181036000830152613f6e81613f32565b9050919050565b7f4552433732313a20746f6b656e20616c7265616479206d696e74656400000000600082015250565b6000613fab601c83612a26565b9150613fb682613f75565b602082019050919050565b60006020820190508181036000830152613fda81613f9e565b9050919050565b7f4e487b7100000000000000000000000000000000000000000000000000000000600052601260045260246000fd5b600061401b82612ad6565b915061402683612ad6565b92508261403657614035613fe1565b5b828204905092915050565b600061404c82612ad6565b915061405783612ad6565b92508261406757614066613fe1565b5b828206905092915050565b7f4e487b7100000000000000000000000000000000000000000000000000000000600052603160045260246000fdfea26469706673582212208fc1c68f4b73378deca954cfdb22675fba0d71e41a8967c80a2118aa64674ac264736f6c634300080d0033",
  "immutableReferences": {},
  "source": "// SPDX-License-Identifier: MIT\n\npragma solidity 0.8.13;\n\nimport \"@openzeppelin/contracts/token/ERC721/extensions/ERC721Enumerable.sol\";\nimport \"@openzeppelin/contracts/token/ERC721/extensions/ERC721URIStorage.sol\";\nimport \"@openzeppelin/contracts/access/Ownable.sol\";\n\n/**\n * @title Nft Collection Token Contract\n *\n * @author Jonacity\n *\n * @notice This contract manages the collection tokens\n */\ncontract CollectionToken is ERC721Enumerable, ERC721URIStorage, Ownable {\n    /**\n     * @dev Initial max supply\n     */\n    uint public maxSupply = 3;\n\n    /**\n     * @dev Base URI\n     */\n    string private baseURI;\n\n    /**\n     * @dev Market contract address\n     */\n    address public marketContractAddress;\n\n    /**\n     * @dev Token minted event\n     */\n    event TokenMinted (\n        uint tokenId,\n        address owner,\n        string tokenURI\n    );\n\n    /**\n     * @notice The constructor\n     *\n     * @param _collectionName Collection name\n     * @param _collectionSymbol Collection symbol\n     * @param _newBaseURI Base URI => ipfs://<CID>/\n     * @param _marketContractAddress Market contract address\n     */\n    constructor(\n        string memory _collectionName,\n        string memory _collectionSymbol,\n        string memory _newBaseURI,\n        address _marketContractAddress\n    ) ERC721(_collectionName, _collectionSymbol) {\n        baseURI = _newBaseURI;\n        marketContractAddress = _marketContractAddress;\n    }\n\n    /**\n     * @notice Set max supply\n     *\n     * @param _maxSupply New max supply\n     */\n    function setMaxSupply(uint _maxSupply) external onlyOwner {\n        maxSupply = _maxSupply;\n    }\n\n    /**\n     * @notice Set market contract address\n     *\n     * @param _marketContractAddress New market contract address\n     */\n    function setMarketContractAddress(address _marketContractAddress) external onlyOwner {\n        require(_marketContractAddress != address(0), \"Address not valid\");\n\n        marketContractAddress = _marketContractAddress;\n    }\n\n    /**\n     * @notice Get base URI\n     *\n     * @return Base URI\n     */\n    function getBaseURI() external view onlyOwner returns (string memory) {\n        return baseURI;\n    }\n\n    /**\n     * @notice Set base URI\n     *\n     * @param _newBaseURI New base URI\n     */\n    function setBaseURI(string memory _newBaseURI) external onlyOwner {\n        baseURI = _newBaseURI;\n    }\n\n    /**\n     * @notice Mint the whole collection\n     */\n    function mintCollection(string[] memory tokenMetadataURIs) public onlyOwner {\n        uint totalSupply = totalSupply();\n        // string[3] memory tokenMetadataURIs = [\n        //     \"mojo-jojo.json\",\n        //     \"morpheus.json\",\n        //     \"biggie.json\"\n        // ];\n        require(totalSupply < maxSupply, \"Unable to mint more items\");\n\n        for (uint i = 0; i < tokenMetadataURIs.length; i++) {\n            totalSupply++;\n            uint newTokenId = totalSupply;\n            super._safeMint(msg.sender, newTokenId);\n            super._setTokenURI(newTokenId, tokenMetadataURIs[i]);\n\n            emit TokenMinted(newTokenId, msg.sender, tokenMetadataURIs[i]);\n        }\n\n        super.setApprovalForAll(marketContractAddress, true);\n    }\n\n    /**\n     * @inheritdoc ERC721Enumerable\n     */\n    function supportsInterface(bytes4 interfaceId)\n        public\n        view\n        override(ERC721, ERC721Enumerable)\n        returns (bool)\n    {\n        return super.supportsInterface(interfaceId);\n    }\n\n    /**\n     * @inheritdoc ERC721URIStorage\n     */\n    function tokenURI(uint256 tokenId)\n        public\n        view\n        override(ERC721, ERC721URIStorage)\n        returns (string memory)\n    {\n        return super.tokenURI(tokenId);\n    }\n\n    /**\n     * @inheritdoc ERC721\n     */\n    function _baseURI() internal view virtual override returns (string memory) {\n        return baseURI;\n    }\n\n    /**\n     * @inheritdoc ERC721Enumerable\n     */\n    function _beforeTokenTransfer(address from, address to, uint256 tokenId)\n        internal\n        override(ERC721, ERC721Enumerable)\n    {\n        super._beforeTokenTransfer(from, to, tokenId);\n    }\n\n    /**\n     * @inheritdoc ERC721URIStorage\n     */\n    function _burn(uint256 tokenId) internal override(ERC721, ERC721URIStorage) {\n        super._burn(tokenId);\n    }\n}\n",
  "sourcePath": "/Users/aline/alyra/alyra_nft/contracts/CollectionToken.sol",
  "compiler": {
    "name": "solc",
    "version": "0.8.13+commit.abaa5c0e.Emscripten.clang"
  },
  "schemaVersion": "3.4.6",
  "updatedAt": "2022-05-13T10:03:19.613Z",
  "devdoc": {
    "author": "Jonacity",
    "events": {
      "TokenMinted(uint256,address,string)": {
        "details": "Token minted event"
      }
    },
    "kind": "dev",
    "methods": {
      "approve(address,uint256)": {
        "details": "See {IERC721-approve}."
      },
      "balanceOf(address)": {
        "details": "See {IERC721-balanceOf}."
      },
      "constructor": {
        "params": {
          "_collectionName": "Collection name",
          "_collectionSymbol": "Collection symbol",
          "_marketContractAddress": "Market contract address",
          "_newBaseURI": "Base URI => ipfs://<CID>/"
        }
      },
      "getApproved(uint256)": {
        "details": "See {IERC721-getApproved}."
      },
      "getBaseURI()": {
        "returns": {
          "_0": "Base URI"
        }
      },
      "isApprovedForAll(address,address)": {
        "details": "See {IERC721-isApprovedForAll}."
      },
      "name()": {
        "details": "See {IERC721Metadata-name}."
      },
      "owner()": {
        "details": "Returns the address of the current owner."
      },
      "ownerOf(uint256)": {
        "details": "See {IERC721-ownerOf}."
      },
      "renounceOwnership()": {
        "details": "Leaves the contract without owner. It will not be possible to call `onlyOwner` functions anymore. Can only be called by the current owner. NOTE: Renouncing ownership will leave the contract without an owner, thereby removing any functionality that is only available to the owner."
      },
      "safeTransferFrom(address,address,uint256)": {
        "details": "See {IERC721-safeTransferFrom}."
      },
      "safeTransferFrom(address,address,uint256,bytes)": {
        "details": "See {IERC721-safeTransferFrom}."
      },
      "setApprovalForAll(address,bool)": {
        "details": "See {IERC721-setApprovalForAll}."
      },
      "setBaseURI(string)": {
        "params": {
          "_newBaseURI": "New base URI"
        }
      },
      "setMarketContractAddress(address)": {
        "params": {
          "_marketContractAddress": "New market contract address"
        }
      },
      "setMaxSupply(uint256)": {
        "params": {
          "_maxSupply": "New max supply"
        }
      },
      "supportsInterface(bytes4)": {
        "details": "See {IERC165-supportsInterface}."
      },
      "symbol()": {
        "details": "See {IERC721Metadata-symbol}."
      },
      "tokenByIndex(uint256)": {
        "details": "See {IERC721Enumerable-tokenByIndex}."
      },
      "tokenOfOwnerByIndex(address,uint256)": {
        "details": "See {IERC721Enumerable-tokenOfOwnerByIndex}."
      },
      "tokenURI(uint256)": {
        "details": "See {IERC721Metadata-tokenURI}."
      },
      "totalSupply()": {
        "details": "See {IERC721Enumerable-totalSupply}."
      },
      "transferFrom(address,address,uint256)": {
        "details": "See {IERC721-transferFrom}."
      },
      "transferOwnership(address)": {
        "details": "Transfers ownership of the contract to a new account (`newOwner`). Can only be called by the current owner."
      }
    },
    "stateVariables": {
      "baseURI": {
        "details": "Base URI"
      },
      "marketContractAddress": {
        "details": "Market contract address"
      },
      "maxSupply": {
        "details": "Initial max supply"
      }
    },
    "title": "Nft Collection Token Contract",
    "version": 1
  },
  "userdoc": {
    "kind": "user",
    "methods": {
      "constructor": {
        "notice": "The constructor"
      },
      "getBaseURI()": {
        "notice": "Get base URI"
      },
      "mintCollection(string[])": {
        "notice": "Mint the whole collection"
      },
      "setBaseURI(string)": {
        "notice": "Set base URI"
      },
      "setMarketContractAddress(address)": {
        "notice": "Set market contract address"
      },
      "setMaxSupply(uint256)": {
        "notice": "Set max supply"
      }
    },
    "notice": "This contract manages the collection tokens",
    "version": 1
  }
}