{
  "contractName": "CollectionToken",
  "abi": [
    {
      "inputs": [
        {
          "internalType": "address",
          "name": "_collectionOwner",
          "type": "address"
        },
        {
          "internalType": "string",
          "name": "_collectionName",
          "type": "string"
        },
        {
          "internalType": "string",
          "name": "_collectionSymbol",
          "type": "string"
        },
        {
          "internalType": "string",
          "name": "_newBaseURI",
          "type": "string"
        },
        {
          "internalType": "address",
          "name": "_marketContractAddress",
          "type": "address"
        }
      ],
      "stateMutability": "nonpayable",
      "type": "constructor"
    },
    {
      "anonymous": false,
      "inputs": [
        {
          "indexed": true,
          "internalType": "address",
          "name": "owner",
          "type": "address"
        },
        {
          "indexed": true,
          "internalType": "address",
          "name": "approved",
          "type": "address"
        },
        {
          "indexed": true,
          "internalType": "uint256",
          "name": "tokenId",
          "type": "uint256"
        }
      ],
      "name": "Approval",
      "type": "event"
    },
    {
      "anonymous": false,
      "inputs": [
        {
          "indexed": true,
          "internalType": "address",
          "name": "owner",
          "type": "address"
        },
        {
          "indexed": true,
          "internalType": "address",
          "name": "operator",
          "type": "address"
        },
        {
          "indexed": false,
          "internalType": "bool",
          "name": "approved",
          "type": "bool"
        }
      ],
      "name": "ApprovalForAll",
      "type": "event"
    },
    {
      "anonymous": false,
      "inputs": [
        {
          "indexed": false,
          "internalType": "uint256",
          "name": "tokenId",
          "type": "uint256"
        },
        {
          "indexed": false,
          "internalType": "address",
          "name": "owner",
          "type": "address"
        },
        {
          "indexed": false,
          "internalType": "string",
          "name": "tokenURI",
          "type": "string"
        }
      ],
      "name": "TokenMinted",
      "type": "event"
    },
    {
      "anonymous": false,
      "inputs": [
        {
          "indexed": true,
          "internalType": "address",
          "name": "from",
          "type": "address"
        },
        {
          "indexed": true,
          "internalType": "address",
          "name": "to",
          "type": "address"
        },
        {
          "indexed": true,
          "internalType": "uint256",
          "name": "tokenId",
          "type": "uint256"
        }
      ],
      "name": "Transfer",
      "type": "event"
    },
    {
      "inputs": [
        {
          "internalType": "address",
          "name": "to",
          "type": "address"
        },
        {
          "internalType": "uint256",
          "name": "tokenId",
          "type": "uint256"
        }
      ],
      "name": "approve",
      "outputs": [],
      "stateMutability": "nonpayable",
      "type": "function"
    },
    {
      "inputs": [
        {
          "internalType": "address",
          "name": "owner",
          "type": "address"
        }
      ],
      "name": "balanceOf",
      "outputs": [
        {
          "internalType": "uint256",
          "name": "",
          "type": "uint256"
        }
      ],
      "stateMutability": "view",
      "type": "function"
    },
    {
      "inputs": [],
      "name": "collectionOwner",
      "outputs": [
        {
          "internalType": "address",
          "name": "",
          "type": "address"
        }
      ],
      "stateMutability": "view",
      "type": "function"
    },
    {
      "inputs": [
        {
          "internalType": "uint256",
          "name": "tokenId",
          "type": "uint256"
        }
      ],
      "name": "getApproved",
      "outputs": [
        {
          "internalType": "address",
          "name": "",
          "type": "address"
        }
      ],
      "stateMutability": "view",
      "type": "function"
    },
    {
      "inputs": [
        {
          "internalType": "address",
          "name": "owner",
          "type": "address"
        },
        {
          "internalType": "address",
          "name": "operator",
          "type": "address"
        }
      ],
      "name": "isApprovedForAll",
      "outputs": [
        {
          "internalType": "bool",
          "name": "",
          "type": "bool"
        }
      ],
      "stateMutability": "view",
      "type": "function"
    },
    {
      "inputs": [],
      "name": "marketContractAddress",
      "outputs": [
        {
          "internalType": "address",
          "name": "",
          "type": "address"
        }
      ],
      "stateMutability": "view",
      "type": "function"
    },
    {
      "inputs": [],
      "name": "maxSupply",
      "outputs": [
        {
          "internalType": "uint256",
          "name": "",
          "type": "uint256"
        }
      ],
      "stateMutability": "view",
      "type": "function"
    },
    {
      "inputs": [],
      "name": "name",
      "outputs": [
        {
          "internalType": "string",
          "name": "",
          "type": "string"
        }
      ],
      "stateMutability": "view",
      "type": "function"
    },
    {
      "inputs": [
        {
          "internalType": "uint256",
          "name": "tokenId",
          "type": "uint256"
        }
      ],
      "name": "ownerOf",
      "outputs": [
        {
          "internalType": "address",
          "name": "",
          "type": "address"
        }
      ],
      "stateMutability": "view",
      "type": "function"
    },
    {
      "inputs": [
        {
          "internalType": "address",
          "name": "from",
          "type": "address"
        },
        {
          "internalType": "address",
          "name": "to",
          "type": "address"
        },
        {
          "internalType": "uint256",
          "name": "tokenId",
          "type": "uint256"
        }
      ],
      "name": "safeTransferFrom",
      "outputs": [],
      "stateMutability": "nonpayable",
      "type": "function"
    },
    {
      "inputs": [
        {
          "internalType": "address",
          "name": "from",
          "type": "address"
        },
        {
          "internalType": "address",
          "name": "to",
          "type": "address"
        },
        {
          "internalType": "uint256",
          "name": "tokenId",
          "type": "uint256"
        },
        {
          "internalType": "bytes",
          "name": "_data",
          "type": "bytes"
        }
      ],
      "name": "safeTransferFrom",
      "outputs": [],
      "stateMutability": "nonpayable",
      "type": "function"
    },
    {
      "inputs": [
        {
          "internalType": "address",
          "name": "operator",
          "type": "address"
        },
        {
          "internalType": "bool",
          "name": "approved",
          "type": "bool"
        }
      ],
      "name": "setApprovalForAll",
      "outputs": [],
      "stateMutability": "nonpayable",
      "type": "function"
    },
    {
      "inputs": [],
      "name": "symbol",
      "outputs": [
        {
          "internalType": "string",
          "name": "",
          "type": "string"
        }
      ],
      "stateMutability": "view",
      "type": "function"
    },
    {
      "inputs": [
        {
          "internalType": "uint256",
          "name": "index",
          "type": "uint256"
        }
      ],
      "name": "tokenByIndex",
      "outputs": [
        {
          "internalType": "uint256",
          "name": "",
          "type": "uint256"
        }
      ],
      "stateMutability": "view",
      "type": "function"
    },
    {
      "inputs": [
        {
          "internalType": "address",
          "name": "owner",
          "type": "address"
        },
        {
          "internalType": "uint256",
          "name": "index",
          "type": "uint256"
        }
      ],
      "name": "tokenOfOwnerByIndex",
      "outputs": [
        {
          "internalType": "uint256",
          "name": "",
          "type": "uint256"
        }
      ],
      "stateMutability": "view",
      "type": "function"
    },
    {
      "inputs": [],
      "name": "totalSupply",
      "outputs": [
        {
          "internalType": "uint256",
          "name": "",
          "type": "uint256"
        }
      ],
      "stateMutability": "view",
      "type": "function"
    },
    {
      "inputs": [
        {
          "internalType": "address",
          "name": "from",
          "type": "address"
        },
        {
          "internalType": "address",
          "name": "to",
          "type": "address"
        },
        {
          "internalType": "uint256",
          "name": "tokenId",
          "type": "uint256"
        }
      ],
      "name": "transferFrom",
      "outputs": [],
      "stateMutability": "nonpayable",
      "type": "function"
    },
    {
      "inputs": [
        {
          "internalType": "uint256",
          "name": "_maxSupply",
          "type": "uint256"
        }
      ],
      "name": "setMaxSupply",
      "outputs": [],
      "stateMutability": "nonpayable",
      "type": "function"
    },
    {
      "inputs": [
        {
          "internalType": "address",
          "name": "_marketContractAddress",
          "type": "address"
        }
      ],
      "name": "setMarketContractAddress",
      "outputs": [],
      "stateMutability": "nonpayable",
      "type": "function"
    },
    {
      "inputs": [],
      "name": "getBaseURI",
      "outputs": [
        {
          "internalType": "string",
          "name": "",
          "type": "string"
        }
      ],
      "stateMutability": "view",
      "type": "function"
    },
    {
      "inputs": [
        {
          "internalType": "string",
          "name": "_newBaseURI",
          "type": "string"
        }
      ],
      "name": "setBaseURI",
      "outputs": [],
      "stateMutability": "nonpayable",
      "type": "function"
    },
    {
      "inputs": [
        {
          "internalType": "string[]",
          "name": "tokenMetadataURIs",
          "type": "string[]"
        }
      ],
      "name": "mintCollection",
      "outputs": [],
      "stateMutability": "nonpayable",
      "type": "function"
    },
    {
      "inputs": [
        {
          "internalType": "bytes4",
          "name": "interfaceId",
          "type": "bytes4"
        }
      ],
      "name": "supportsInterface",
      "outputs": [
        {
          "internalType": "bool",
          "name": "",
          "type": "bool"
        }
      ],
      "stateMutability": "view",
      "type": "function"
    },
    {
      "inputs": [
        {
          "internalType": "uint256",
          "name": "tokenId",
          "type": "uint256"
        }
      ],
      "name": "tokenURI",
      "outputs": [
        {
          "internalType": "string",
          "name": "",
          "type": "string"
        }
      ],
      "stateMutability": "view",
      "type": "function"
    }
  ],
  "bytecode": "0x60806040526003600b553480156200001657600080fd5b50604051620043b7380380620043b783398181016040528101906200003c9190620003ca565b838381600090805190602001906200005692919062000118565b5080600190805190602001906200006f92919062000118565b50505084600c60006101000a81548173ffffffffffffffffffffffffffffffffffffffff021916908373ffffffffffffffffffffffffffffffffffffffff16021790555081600d9080519060200190620000cb92919062000118565b5080600e60006101000a81548173ffffffffffffffffffffffffffffffffffffffff021916908373ffffffffffffffffffffffffffffffffffffffff160217905550505050505062000513565b8280546200012690620004de565b90600052602060002090601f0160209004810192826200014a576000855562000196565b82601f106200016557805160ff191683800117855562000196565b8280016001018555821562000196579182015b828111156200019557825182559160200191906001019062000178565b5b509050620001a59190620001a9565b5090565b5b80821115620001c4576000816000905550600101620001aa565b5090565b6000604051905090565b600080fd5b600080fd5b600073ffffffffffffffffffffffffffffffffffffffff82169050919050565b60006200020982620001dc565b9050919050565b6200021b81620001fc565b81146200022757600080fd5b50565b6000815190506200023b8162000210565b92915050565b600080fd5b600080fd5b6000601f19601f8301169050919050565b7f4e487b7100000000000000000000000000000000000000000000000000000000600052604160045260246000fd5b62000296826200024b565b810181811067ffffffffffffffff82111715620002b857620002b76200025c565b5b80604052505050565b6000620002cd620001c8565b9050620002db82826200028b565b919050565b600067ffffffffffffffff821115620002fe57620002fd6200025c565b5b62000309826200024b565b9050602081019050919050565b60005b838110156200033657808201518184015260208101905062000319565b8381111562000346576000848401525b50505050565b6000620003636200035d84620002e0565b620002c1565b90508281526020810184848401111562000382576200038162000246565b5b6200038f84828562000316565b509392505050565b600082601f830112620003af57620003ae62000241565b5b8151620003c18482602086016200034c565b91505092915050565b600080600080600060a08688031215620003e957620003e8620001d2565b5b6000620003f9888289016200022a565b955050602086015167ffffffffffffffff8111156200041d576200041c620001d7565b5b6200042b8882890162000397565b945050604086015167ffffffffffffffff8111156200044f576200044e620001d7565b5b6200045d8882890162000397565b935050606086015167ffffffffffffffff811115620004815762000480620001d7565b5b6200048f8882890162000397565b9250506080620004a2888289016200022a565b9150509295509295909350565b7f4e487b7100000000000000000000000000000000000000000000000000000000600052602260045260246000fd5b60006002820490506001821680620004f757607f821691505b6020821081036200050d576200050c620004af565b5b50919050565b613e9480620005236000396000f3fe608060405234801561001057600080fd5b5060043610610175576000357c0100000000000000000000000000000000000000000000000000000000900480636352211e116100e0578063b88d4fde11610099578063b88d4fde146103f4578063c73358de14610410578063c87b56dd1461042c578063d5abeb011461045c578063df727d3b1461047a578063e985e9c51461049857610175565b80636352211e146103205780636f8b44b01461035057806370a082311461036c578063714c53981461039c57806395d89b41146103ba578063a22cb465146103d857610175565b80632f745c59116101325780632f745c591461024e5780633087cbe31461027e57806337c3aa581461029c57806342842e0e146102b85780634f6ccce7146102d457806355f804b31461030457610175565b806301ffc9a71461017a57806306fdde03146101aa578063081812fc146101c8578063095ea7b3146101f857806318160ddd1461021457806323b872dd14610232575b600080fd5b610194600480360381019061018f9190612807565b6104c8565b6040516101a1919061284f565b60405180910390f35b6101b26104da565b6040516101bf9190612903565b60405180910390f35b6101e260048036038101906101dd919061295b565b61056c565b6040516101ef91906129c9565b60405180910390f35b610212600480360381019061020d9190612a10565b6105f1565b005b61021c610708565b6040516102299190612a5f565b60405180910390f35b61024c60048036038101906102479190612a7a565b610715565b005b61026860048036038101906102639190612a10565b610775565b6040516102759190612a5f565b60405180910390f35b61028661081a565b60405161029391906129c9565b60405180910390f35b6102b660048036038101906102b19190612ce8565b610840565b005b6102d260048036038101906102cd9190612a7a565b610a08565b005b6102ee60048036038101906102e9919061295b565b610a28565b6040516102fb9190612a5f565b60405180910390f35b61031e60048036038101906103199190612d31565b610a99565b005b61033a6004803603810190610335919061295b565b610b43565b60405161034791906129c9565b60405180910390f35b61036a6004803603810190610365919061295b565b610bf4565b005b61038660048036038101906103819190612d7a565b610d1e565b6040516103939190612a5f565b60405180910390f35b6103a4610dd5565b6040516103b19190612903565b60405180910390f35b6103c2610ef7565b6040516103cf9190612903565b60405180910390f35b6103f260048036038101906103ed9190612dd3565b610f89565b005b61040e60048036038101906104099190612eb4565b610f9f565b005b61042a60048036038101906104259190612d7a565b611001565b005b6104466004803603810190610441919061295b565b611144565b6040516104539190612903565b60405180910390f35b610464611156565b6040516104719190612a5f565b60405180910390f35b61048261115c565b60405161048f91906129c9565b60405180910390f35b6104b260048036038101906104ad9190612f37565b611182565b6040516104bf919061284f565b60405180910390f35b60006104d382611216565b9050919050565b6060600080546104e990612fa6565b80601f016020809104026020016040519081016040528092919081815260200182805461051590612fa6565b80156105625780601f1061053757610100808354040283529160200191610562565b820191906000526020600020905b81548152906001019060200180831161054557829003601f168201915b5050505050905090565b600061057782611290565b6105b6576040517f08c379a00000000000000000000000000000000000000000000000000000000081526004016105ad90613049565b60405180910390fd5b6004600083815260200190815260200160002060009054906101000a900473ffffffffffffffffffffffffffffffffffffffff169050919050565b60006105fc82610b43565b90508073ffffffffffffffffffffffffffffffffffffffff168373ffffffffffffffffffffffffffffffffffffffff160361066c576040517f08c379a0000000000000000000000000000000000000000000000000000000008152600401610663906130db565b60405180910390fd5b8073ffffffffffffffffffffffffffffffffffffffff1661068b6112fc565b73ffffffffffffffffffffffffffffffffffffffff1614806106ba57506106b9816106b46112fc565b611182565b5b6106f9576040517f08c379a00000000000000000000000000000000000000000000000000000000081526004016106f09061316d565b60405180910390fd5b6107038383611304565b505050565b6000600880549050905090565b6107266107206112fc565b826113bd565b610765576040517f08c379a000000000000000000000000000000000000000000000000000000000815260040161075c906131ff565b60405180910390fd5b61077083838361149b565b505050565b600061078083610d1e565b82106107c1576040517f08c379a00000000000000000000000000000000000000000000000000000000081526004016107b890613291565b60405180910390fd5b600660008473ffffffffffffffffffffffffffffffffffffffff1673ffffffffffffffffffffffffffffffffffffffff168152602001908152602001600020600083815260200190815260200160002054905092915050565b600e60009054906101000a900473ffffffffffffffffffffffffffffffffffffffff1681565b600c60009054906101000a900473ffffffffffffffffffffffffffffffffffffffff1673ffffffffffffffffffffffffffffffffffffffff163373ffffffffffffffffffffffffffffffffffffffff16146108d0576040517f08c379a00000000000000000000000000000000000000000000000000000000081526004016108c7906132fd565b60405180910390fd5b60006108da610708565b9050600b548110610920576040517f08c379a000000000000000000000000000000000000000000000000000000000815260040161091790613369565b60405180910390fd5b60005b82518110156109d6578180610937906133b8565b92505060008290506109493382611701565b61096d818584815181106109605761095f613400565b5b602002602001015161171f565b7fec2cd236ed6d37bf5a71276ac93889db12834493a090efd543a3d2eca8dcdcc881338685815181106109a3576109a2613400565b5b60200260200101516040516109ba9392919061342f565b60405180910390a15080806109ce906133b8565b915050610923565b50610a04600e60009054906101000a900473ffffffffffffffffffffffffffffffffffffffff166001610f89565b5050565b610a2383838360405180602001604052806000815250610f9f565b505050565b6000610a32610708565b8210610a73576040517f08c379a0000000000000000000000000000000000000000000000000000000008152600401610a6a906134df565b60405180910390fd5b60088281548110610a8757610a86613400565b5b90600052602060002001549050919050565b600c60009054906101000a900473ffffffffffffffffffffffffffffffffffffffff1673ffffffffffffffffffffffffffffffffffffffff163373ffffffffffffffffffffffffffffffffffffffff1614610b29576040517f08c379a0000000000000000000000000000000000000000000000000000000008152600401610b20906132fd565b60405180910390fd5b80600d9080519060200190610b3f9291906126f8565b5050565b6000806002600084815260200190815260200160002060009054906101000a900473ffffffffffffffffffffffffffffffffffffffff169050600073ffffffffffffffffffffffffffffffffffffffff168173ffffffffffffffffffffffffffffffffffffffff1603610beb576040517f08c379a0000000000000000000000000000000000000000000000000000000008152600401610be290613571565b60405180910390fd5b80915050919050565b600c60009054906101000a900473ffffffffffffffffffffffffffffffffffffffff1673ffffffffffffffffffffffffffffffffffffffff163373ffffffffffffffffffffffffffffffffffffffff1614610c84576040517f08c379a0000000000000000000000000000000000000000000000000000000008152600401610c7b906132fd565b60405180910390fd5b600c60009054906101000a900473ffffffffffffffffffffffffffffffffffffffff1673ffffffffffffffffffffffffffffffffffffffff163373ffffffffffffffffffffffffffffffffffffffff1614610d14576040517f08c379a0000000000000000000000000000000000000000000000000000000008152600401610d0b906132fd565b60405180910390fd5b80600b8190555050565b60008073ffffffffffffffffffffffffffffffffffffffff168273ffffffffffffffffffffffffffffffffffffffff1603610d8e576040517f08c379a0000000000000000000000000000000000000000000000000000000008152600401610d8590613603565b60405180910390fd5b600360008373ffffffffffffffffffffffffffffffffffffffff1673ffffffffffffffffffffffffffffffffffffffff168152602001908152602001600020549050919050565b6060600c60009054906101000a900473ffffffffffffffffffffffffffffffffffffffff1673ffffffffffffffffffffffffffffffffffffffff163373ffffffffffffffffffffffffffffffffffffffff1614610e67576040517f08c379a0000000000000000000000000000000000000000000000000000000008152600401610e5e906132fd565b60405180910390fd5b600d8054610e7490612fa6565b80601f0160208091040260200160405190810160405280929190818152602001828054610ea090612fa6565b8015610eed5780601f10610ec257610100808354040283529160200191610eed565b820191906000526020600020905b815481529060010190602001808311610ed057829003601f168201915b5050505050905090565b606060018054610f0690612fa6565b80601f0160208091040260200160405190810160405280929190818152602001828054610f3290612fa6565b8015610f7f5780601f10610f5457610100808354040283529160200191610f7f565b820191906000526020600020905b815481529060010190602001808311610f6257829003601f168201915b5050505050905090565b610f9b610f946112fc565b8383611793565b5050565b610fb0610faa6112fc565b836113bd565b610fef576040517f08c379a0000000000000000000000000000000000000000000000000000000008152600401610fe6906131ff565b60405180910390fd5b610ffb848484846118ff565b50505050565b600c60009054906101000a900473ffffffffffffffffffffffffffffffffffffffff1673ffffffffffffffffffffffffffffffffffffffff163373ffffffffffffffffffffffffffffffffffffffff1614611091576040517f08c379a0000000000000000000000000000000000000000000000000000000008152600401611088906132fd565b60405180910390fd5b600073ffffffffffffffffffffffffffffffffffffffff168173ffffffffffffffffffffffffffffffffffffffff1603611100576040517f08c379a00000000000000000000000000000000000000000000000000000000081526004016110f79061366f565b60405180910390fd5b80600e60006101000a81548173ffffffffffffffffffffffffffffffffffffffff021916908373ffffffffffffffffffffffffffffffffffffffff16021790555050565b606061114f8261195b565b9050919050565b600b5481565b600c60009054906101000a900473ffffffffffffffffffffffffffffffffffffffff1681565b6000600560008473ffffffffffffffffffffffffffffffffffffffff1673ffffffffffffffffffffffffffffffffffffffff16815260200190815260200160002060008373ffffffffffffffffffffffffffffffffffffffff1673ffffffffffffffffffffffffffffffffffffffff16815260200190815260200160002060009054906101000a900460ff16905092915050565b60007f780e9d63000000000000000000000000000000000000000000000000000000007bffffffffffffffffffffffffffffffffffffffffffffffffffffffff1916827bffffffffffffffffffffffffffffffffffffffffffffffffffffffff19161480611289575061128882611aac565b5b9050919050565b60008073ffffffffffffffffffffffffffffffffffffffff166002600084815260200190815260200160002060009054906101000a900473ffffffffffffffffffffffffffffffffffffffff1673ffffffffffffffffffffffffffffffffffffffff1614159050919050565b600033905090565b816004600083815260200190815260200160002060006101000a81548173ffffffffffffffffffffffffffffffffffffffff021916908373ffffffffffffffffffffffffffffffffffffffff160217905550808273ffffffffffffffffffffffffffffffffffffffff1661137783610b43565b73ffffffffffffffffffffffffffffffffffffffff167f8c5be1e5ebec7d5bd14f71427d1e84f3dd0314c0f7b2291e5b200ac8c7c3b92560405160405180910390a45050565b60006113c882611290565b611407576040517f08c379a00000000000000000000000000000000000000000000000000000000081526004016113fe90613701565b60405180910390fd5b600061141283610b43565b90508073ffffffffffffffffffffffffffffffffffffffff168473ffffffffffffffffffffffffffffffffffffffff16148061148157508373ffffffffffffffffffffffffffffffffffffffff166114698461056c565b73ffffffffffffffffffffffffffffffffffffffff16145b8061149257506114918185611182565b5b91505092915050565b8273ffffffffffffffffffffffffffffffffffffffff166114bb82610b43565b73ffffffffffffffffffffffffffffffffffffffff1614611511576040517f08c379a000000000000000000000000000000000000000000000000000000000815260040161150890613793565b60405180910390fd5b600073ffffffffffffffffffffffffffffffffffffffff168273ffffffffffffffffffffffffffffffffffffffff1603611580576040517f08c379a000000000000000000000000000000000000000000000000000000000815260040161157790613825565b60405180910390fd5b61158b838383611b8e565b611596600082611304565b6001600360008573ffffffffffffffffffffffffffffffffffffffff1673ffffffffffffffffffffffffffffffffffffffff16815260200190815260200160002060008282546115e69190613845565b925050819055506001600360008473ffffffffffffffffffffffffffffffffffffffff1673ffffffffffffffffffffffffffffffffffffffff168152602001908152602001600020600082825461163d9190613879565b92505081905550816002600083815260200190815260200160002060006101000a81548173ffffffffffffffffffffffffffffffffffffffff021916908373ffffffffffffffffffffffffffffffffffffffff160217905550808273ffffffffffffffffffffffffffffffffffffffff168473ffffffffffffffffffffffffffffffffffffffff167fddf252ad1be2c89b69c2b068fc378daa952ba7f163c4a11628f55a4df523b3ef60405160405180910390a46116fc838383611b9e565b505050565b61171b828260405180602001604052806000815250611ba3565b5050565b61172882611290565b611767576040517f08c379a000000000000000000000000000000000000000000000000000000000815260040161175e90613941565b60405180910390fd5b80600a6000848152602001908152602001600020908051906020019061178e9291906126f8565b505050565b8173ffffffffffffffffffffffffffffffffffffffff168373ffffffffffffffffffffffffffffffffffffffff1603611801576040517f08c379a00000000000000000000000000000000000000000000000000000000081526004016117f8906139ad565b60405180910390fd5b80600560008573ffffffffffffffffffffffffffffffffffffffff1673ffffffffffffffffffffffffffffffffffffffff16815260200190815260200160002060008473ffffffffffffffffffffffffffffffffffffffff1673ffffffffffffffffffffffffffffffffffffffff16815260200190815260200160002060006101000a81548160ff0219169083151502179055508173ffffffffffffffffffffffffffffffffffffffff168373ffffffffffffffffffffffffffffffffffffffff167f17307eab39ab6107e8899845ad3d59bd9653f200f220920489ca2b5937696c31836040516118f2919061284f565b60405180910390a3505050565b61190a84848461149b565b61191684848484611bfe565b611955576040517f08c379a000000000000000000000000000000000000000000000000000000000815260040161194c90613a3f565b60405180910390fd5b50505050565b606061196682611290565b6119a5576040517f08c379a000000000000000000000000000000000000000000000000000000000815260040161199c90613ad1565b60405180910390fd5b6000600a600084815260200190815260200160002080546119c590612fa6565b80601f01602080910402602001604051908101604052809291908181526020018280546119f190612fa6565b8015611a3e5780601f10611a1357610100808354040283529160200191611a3e565b820191906000526020600020905b815481529060010190602001808311611a2157829003601f168201915b505050505090506000611a4f611dbd565b90506000815103611a64578192505050611aa7565b600082511115611a99578082604051602001611a81929190613b2d565b60405160208183030381529060405292505050611aa7565b611aa284611e4f565b925050505b919050565b60007f80ac58cd000000000000000000000000000000000000000000000000000000007bffffffffffffffffffffffffffffffffffffffffffffffffffffffff1916827bffffffffffffffffffffffffffffffffffffffffffffffffffffffff19161480611b7757507f5b5e139f000000000000000000000000000000000000000000000000000000007bffffffffffffffffffffffffffffffffffffffffffffffffffffffff1916827bffffffffffffffffffffffffffffffffffffffffffffffffffffffff1916145b80611b875750611b8682611ef6565b5b9050919050565b611b99838383611f60565b505050565b505050565b611bad8383612072565b611bba6000848484611bfe565b611bf9576040517f08c379a0000000000000000000000000000000000000000000000000000000008152600401611bf090613a3f565b60405180910390fd5b505050565b6000611c1f8473ffffffffffffffffffffffffffffffffffffffff1661224b565b15611db0578373ffffffffffffffffffffffffffffffffffffffff1663150b7a02611c486112fc565b8786866040518563ffffffff167c0100000000000000000000000000000000000000000000000000000000028152600401611c869493929190613ba6565b6020604051808303816000875af1925050508015611cc257506040513d601f19601f82011682018060405250810190611cbf9190613c07565b60015b611d44573d8060008114611cf2576040519150601f19603f3d011682016040523d82523d6000602084013e611cf7565b606091505b506000815103611d3c576040517f08c379a0000000000000000000000000000000000000000000000000000000008152600401611d3390613a3f565b60405180910390fd5b805181602001fd5b63150b7a027c0100000000000000000000000000000000000000000000000000000000027bffffffffffffffffffffffffffffffffffffffffffffffffffffffff1916817bffffffffffffffffffffffffffffffffffffffffffffffffffffffff191614915050611db5565b600190505b949350505050565b6060600d8054611dcc90612fa6565b80601f0160208091040260200160405190810160405280929190818152602001828054611df890612fa6565b8015611e455780601f10611e1a57610100808354040283529160200191611e45565b820191906000526020600020905b815481529060010190602001808311611e2857829003601f168201915b5050505050905090565b6060611e5a82611290565b611e99576040517f08c379a0000000000000000000000000000000000000000000000000000000008152600401611e9090613ca6565b60405180910390fd5b6000611ea3611dbd565b90506000815111611ec35760405180602001604052806000815250611eee565b80611ecd8461226e565b604051602001611ede929190613b2d565b6040516020818303038152906040525b915050919050565b60007f01ffc9a7000000000000000000000000000000000000000000000000000000007bffffffffffffffffffffffffffffffffffffffffffffffffffffffff1916827bffffffffffffffffffffffffffffffffffffffffffffffffffffffff1916149050919050565b611f6b8383836123ed565b600073ffffffffffffffffffffffffffffffffffffffff168373ffffffffffffffffffffffffffffffffffffffff1603611fad57611fa8816123f2565b611fec565b8173ffffffffffffffffffffffffffffffffffffffff168373ffffffffffffffffffffffffffffffffffffffff1614611feb57611fea838261243b565b5b5b600073ffffffffffffffffffffffffffffffffffffffff168273ffffffffffffffffffffffffffffffffffffffff160361202e57612029816125a8565b61206d565b8273ffffffffffffffffffffffffffffffffffffffff168273ffffffffffffffffffffffffffffffffffffffff161461206c5761206b8282612679565b5b5b505050565b600073ffffffffffffffffffffffffffffffffffffffff168273ffffffffffffffffffffffffffffffffffffffff16036120e1576040517f08c379a00000000000000000000000000000000000000000000000000000000081526004016120d890613d12565b60405180910390fd5b6120ea81611290565b1561212a576040517f08c379a000000000000000000000000000000000000000000000000000000000815260040161212190613d7e565b60405180910390fd5b61213660008383611b8e565b6001600360008473ffffffffffffffffffffffffffffffffffffffff1673ffffffffffffffffffffffffffffffffffffffff16815260200190815260200160002060008282546121869190613879565b92505081905550816002600083815260200190815260200160002060006101000a81548173ffffffffffffffffffffffffffffffffffffffff021916908373ffffffffffffffffffffffffffffffffffffffff160217905550808273ffffffffffffffffffffffffffffffffffffffff16600073ffffffffffffffffffffffffffffffffffffffff167fddf252ad1be2c89b69c2b068fc378daa952ba7f163c4a11628f55a4df523b3ef60405160405180910390a461224760008383611b9e565b5050565b6000808273ffffffffffffffffffffffffffffffffffffffff163b119050919050565b6060600082036122b5576040518060400160405280600181526020017f300000000000000000000000000000000000000000000000000000000000000081525090506123e8565b600082905060005b600082146122e75780806122d0906133b8565b915050600a826122e09190613dcd565b91506122bd565b60008167ffffffffffffffff81111561230357612302612ad2565b5b6040519080825280601f01601f1916602001820160405280156123355781602001600182028036833780820191505090505b5090505b600085146123e15760018261234e9190613845565b9150600a8561235d9190613dfe565b60306123699190613879565b7f01000000000000000000000000000000000000000000000000000000000000000281838151811061239e5761239d613400565b5b60200101907effffffffffffffffffffffffffffffffffffffffffffffffffffffffffffff1916908160001a905350600a856123da9190613dcd565b9450612339565b8093505050505b919050565b505050565b6008805490506009600083815260200190815260200160002081905550600881908060018154018082558091505060019003906000526020600020016000909190919091505550565b6000600161244884610d1e565b6124529190613845565b9050600060076000848152602001908152602001600020549050818114612537576000600660008673ffffffffffffffffffffffffffffffffffffffff1673ffffffffffffffffffffffffffffffffffffffff168152602001908152602001600020600084815260200190815260200160002054905080600660008773ffffffffffffffffffffffffffffffffffffffff1673ffffffffffffffffffffffffffffffffffffffff168152602001908152602001600020600084815260200190815260200160002081905550816007600083815260200190815260200160002081905550505b6007600084815260200190815260200160002060009055600660008573ffffffffffffffffffffffffffffffffffffffff1673ffffffffffffffffffffffffffffffffffffffff16815260200190815260200160002060008381526020019081526020016000206000905550505050565b600060016008805490506125bc9190613845565b90506000600960008481526020019081526020016000205490506000600883815481106125ec576125eb613400565b5b90600052602060002001549050806008838154811061260e5761260d613400565b5b90600052602060002001819055508160096000838152602001908152602001600020819055506009600085815260200190815260200160002060009055600880548061265d5761265c613e2f565b5b6001900381819060005260206000200160009055905550505050565b600061268483610d1e565b905081600660008573ffffffffffffffffffffffffffffffffffffffff1673ffffffffffffffffffffffffffffffffffffffff168152602001908152602001600020600083815260200190815260200160002081905550806007600084815260200190815260200160002081905550505050565b82805461270490612fa6565b90600052602060002090601f016020900481019282612726576000855561276d565b82601f1061273f57805160ff191683800117855561276d565b8280016001018555821561276d579182015b8281111561276c578251825591602001919060010190612751565b5b50905061277a919061277e565b5090565b5b8082111561279757600081600090555060010161277f565b5090565b6000604051905090565b600080fd5b600080fd5b60007fffffffff0000000000000000000000000000000000000000000000000000000082169050919050565b6127e4816127af565b81146127ef57600080fd5b50565b600081359050612801816127db565b92915050565b60006020828403121561281d5761281c6127a5565b5b600061282b848285016127f2565b91505092915050565b60008115159050919050565b61284981612834565b82525050565b60006020820190506128646000830184612840565b92915050565b600081519050919050565b600082825260208201905092915050565b60005b838110156128a4578082015181840152602081019050612889565b838111156128b3576000848401525b50505050565b6000601f19601f8301169050919050565b60006128d58261286a565b6128df8185612875565b93506128ef818560208601612886565b6128f8816128b9565b840191505092915050565b6000602082019050818103600083015261291d81846128ca565b905092915050565b6000819050919050565b61293881612925565b811461294357600080fd5b50565b6000813590506129558161292f565b92915050565b600060208284031215612971576129706127a5565b5b600061297f84828501612946565b91505092915050565b600073ffffffffffffffffffffffffffffffffffffffff82169050919050565b60006129b382612988565b9050919050565b6129c3816129a8565b82525050565b60006020820190506129de60008301846129ba565b92915050565b6129ed816129a8565b81146129f857600080fd5b50565b600081359050612a0a816129e4565b92915050565b60008060408385031215612a2757612a266127a5565b5b6000612a35858286016129fb565b9250506020612a4685828601612946565b9150509250929050565b612a5981612925565b82525050565b6000602082019050612a746000830184612a50565b92915050565b600080600060608486031215612a9357612a926127a5565b5b6000612aa1868287016129fb565b9350506020612ab2868287016129fb565b9250506040612ac386828701612946565b9150509250925092565b600080fd5b7f4e487b7100000000000000000000000000000000000000000000000000000000600052604160045260246000fd5b612b0a826128b9565b810181811067ffffffffffffffff82111715612b2957612b28612ad2565b5b80604052505050565b6000612b3c61279b565b9050612b488282612b01565b919050565b600067ffffffffffffffff821115612b6857612b67612ad2565b5b602082029050602081019050919050565b600080fd5b600080fd5b600067ffffffffffffffff821115612b9e57612b9d612ad2565b5b612ba7826128b9565b9050602081019050919050565b82818337600083830152505050565b6000612bd6612bd184612b83565b612b32565b905082815260208101848484011115612bf257612bf1612b7e565b5b612bfd848285612bb4565b509392505050565b600082601f830112612c1a57612c19612acd565b5b8135612c2a848260208601612bc3565b91505092915050565b6000612c46612c4184612b4d565b612b32565b90508083825260208201905060208402830185811115612c6957612c68612b79565b5b835b81811015612cb057803567ffffffffffffffff811115612c8e57612c8d612acd565b5b808601612c9b8982612c05565b85526020850194505050602081019050612c6b565b5050509392505050565b600082601f830112612ccf57612cce612acd565b5b8135612cdf848260208601612c33565b91505092915050565b600060208284031215612cfe57612cfd6127a5565b5b600082013567ffffffffffffffff811115612d1c57612d1b6127aa565b5b612d2884828501612cba565b91505092915050565b600060208284031215612d4757612d466127a5565b5b600082013567ffffffffffffffff811115612d6557612d646127aa565b5b612d7184828501612c05565b91505092915050565b600060208284031215612d9057612d8f6127a5565b5b6000612d9e848285016129fb565b91505092915050565b612db081612834565b8114612dbb57600080fd5b50565b600081359050612dcd81612da7565b92915050565b60008060408385031215612dea57612de96127a5565b5b6000612df8858286016129fb565b9250506020612e0985828601612dbe565b9150509250929050565b600067ffffffffffffffff821115612e2e57612e2d612ad2565b5b612e37826128b9565b9050602081019050919050565b6000612e57612e5284612e13565b612b32565b905082815260208101848484011115612e7357612e72612b7e565b5b612e7e848285612bb4565b509392505050565b600082601f830112612e9b57612e9a612acd565b5b8135612eab848260208601612e44565b91505092915050565b60008060008060808587031215612ece57612ecd6127a5565b5b6000612edc878288016129fb565b9450506020612eed878288016129fb565b9350506040612efe87828801612946565b925050606085013567ffffffffffffffff811115612f1f57612f1e6127aa565b5b612f2b87828801612e86565b91505092959194509250565b60008060408385031215612f4e57612f4d6127a5565b5b6000612f5c858286016129fb565b9250506020612f6d858286016129fb565b9150509250929050565b7f4e487b7100000000000000000000000000000000000000000000000000000000600052602260045260246000fd5b60006002820490506001821680612fbe57607f821691505b602082108103612fd157612fd0612f77565b5b50919050565b7f4552433732313a20617070726f76656420717565727920666f72206e6f6e657860008201527f697374656e7420746f6b656e0000000000000000000000000000000000000000602082015250565b6000613033602c83612875565b915061303e82612fd7565b604082019050919050565b6000602082019050818103600083015261306281613026565b9050919050565b7f4552433732313a20617070726f76616c20746f2063757272656e74206f776e6560008201527f7200000000000000000000000000000000000000000000000000000000000000602082015250565b60006130c5602183612875565b91506130d082613069565b604082019050919050565b600060208201905081810360008301526130f4816130b8565b9050919050565b7f4552433732313a20617070726f76652063616c6c6572206973206e6f74206f7760008201527f6e6572206e6f7220617070726f76656420666f7220616c6c0000000000000000602082015250565b6000613157603883612875565b9150613162826130fb565b604082019050919050565b600060208201905081810360008301526131868161314a565b9050919050565b7f4552433732313a207472616e736665722063616c6c6572206973206e6f74206f60008201527f776e6572206e6f7220617070726f766564000000000000000000000000000000602082015250565b60006131e9603183612875565b91506131f48261318d565b604082019050919050565b60006020820190508181036000830152613218816131dc565b9050919050565b7f455243373231456e756d657261626c653a206f776e657220696e646578206f7560008201527f74206f6620626f756e6473000000000000000000000000000000000000000000602082015250565b600061327b602b83612875565b91506132868261321f565b604082019050919050565b600060208201905081810360008301526132aa8161326e565b9050919050565b7f4e6f74206f776e65720000000000000000000000000000000000000000000000600082015250565b60006132e7600983612875565b91506132f2826132b1565b602082019050919050565b60006020820190508181036000830152613316816132da565b9050919050565b7f556e61626c6520746f206d696e74206d6f7265206974656d7300000000000000600082015250565b6000613353601983612875565b915061335e8261331d565b602082019050919050565b6000602082019050818103600083015261338281613346565b9050919050565b7f4e487b7100000000000000000000000000000000000000000000000000000000600052601160045260246000fd5b60006133c382612925565b91507fffffffffffffffffffffffffffffffffffffffffffffffffffffffffffffffff82036133f5576133f4613389565b5b600182019050919050565b7f4e487b7100000000000000000000000000000000000000000000000000000000600052603260045260246000fd5b60006060820190506134446000830186612a50565b61345160208301856129ba565b818103604083015261346381846128ca565b9050949350505050565b7f455243373231456e756d657261626c653a20676c6f62616c20696e646578206f60008201527f7574206f6620626f756e64730000000000000000000000000000000000000000602082015250565b60006134c9602c83612875565b91506134d48261346d565b604082019050919050565b600060208201905081810360008301526134f8816134bc565b9050919050565b7f4552433732313a206f776e657220717565727920666f72206e6f6e657869737460008201527f656e7420746f6b656e0000000000000000000000000000000000000000000000602082015250565b600061355b602983612875565b9150613566826134ff565b604082019050919050565b6000602082019050818103600083015261358a8161354e565b9050919050565b7f4552433732313a2062616c616e636520717565727920666f7220746865207a6560008201527f726f206164647265737300000000000000000000000000000000000000000000602082015250565b60006135ed602a83612875565b91506135f882613591565b604082019050919050565b6000602082019050818103600083015261361c816135e0565b9050919050565b7f41646472657373206e6f742076616c6964000000000000000000000000000000600082015250565b6000613659601183612875565b915061366482613623565b602082019050919050565b600060208201905081810360008301526136888161364c565b9050919050565b7f4552433732313a206f70657261746f7220717565727920666f72206e6f6e657860008201527f697374656e7420746f6b656e0000000000000000000000000000000000000000602082015250565b60006136eb602c83612875565b91506136f68261368f565b604082019050919050565b6000602082019050818103600083015261371a816136de565b9050919050565b7f4552433732313a207472616e736665722066726f6d20696e636f72726563742060008201527f6f776e6572000000000000000000000000000000000000000000000000000000602082015250565b600061377d602583612875565b915061378882613721565b604082019050919050565b600060208201905081810360008301526137ac81613770565b9050919050565b7f4552433732313a207472616e7366657220746f20746865207a65726f2061646460008201527f7265737300000000000000000000000000000000000000000000000000000000602082015250565b600061380f602483612875565b915061381a826137b3565b604082019050919050565b6000602082019050818103600083015261383e81613802565b9050919050565b600061385082612925565b915061385b83612925565b92508282101561386e5761386d613389565b5b828203905092915050565b600061388482612925565b915061388f83612925565b9250827fffffffffffffffffffffffffffffffffffffffffffffffffffffffffffffffff038211156138c4576138c3613389565b5b828201905092915050565b7f45524337323155524953746f726167653a2055524920736574206f66206e6f6e60008201527f6578697374656e7420746f6b656e000000000000000000000000000000000000602082015250565b600061392b602e83612875565b9150613936826138cf565b604082019050919050565b6000602082019050818103600083015261395a8161391e565b9050919050565b7f4552433732313a20617070726f766520746f2063616c6c657200000000000000600082015250565b6000613997601983612875565b91506139a282613961565b602082019050919050565b600060208201905081810360008301526139c68161398a565b9050919050565b7f4552433732313a207472616e7366657220746f206e6f6e20455243373231526560008201527f63656976657220696d706c656d656e7465720000000000000000000000000000602082015250565b6000613a29603283612875565b9150613a34826139cd565b604082019050919050565b60006020820190508181036000830152613a5881613a1c565b9050919050565b7f45524337323155524953746f726167653a2055524920717565727920666f722060008201527f6e6f6e6578697374656e7420746f6b656e000000000000000000000000000000602082015250565b6000613abb603183612875565b9150613ac682613a5f565b604082019050919050565b60006020820190508181036000830152613aea81613aae565b9050919050565b600081905092915050565b6000613b078261286a565b613b118185613af1565b9350613b21818560208601612886565b80840191505092915050565b6000613b398285613afc565b9150613b458284613afc565b91508190509392505050565b600081519050919050565b600082825260208201905092915050565b6000613b7882613b51565b613b828185613b5c565b9350613b92818560208601612886565b613b9b816128b9565b840191505092915050565b6000608082019050613bbb60008301876129ba565b613bc860208301866129ba565b613bd56040830185612a50565b8181036060830152613be78184613b6d565b905095945050505050565b600081519050613c01816127db565b92915050565b600060208284031215613c1d57613c1c6127a5565b5b6000613c2b84828501613bf2565b91505092915050565b7f4552433732314d657461646174613a2055524920717565727920666f72206e6f60008201527f6e6578697374656e7420746f6b656e0000000000000000000000000000000000602082015250565b6000613c90602f83612875565b9150613c9b82613c34565b604082019050919050565b60006020820190508181036000830152613cbf81613c83565b9050919050565b7f4552433732313a206d696e7420746f20746865207a65726f2061646472657373600082015250565b6000613cfc602083612875565b9150613d0782613cc6565b602082019050919050565b60006020820190508181036000830152613d2b81613cef565b9050919050565b7f4552433732313a20746f6b656e20616c7265616479206d696e74656400000000600082015250565b6000613d68601c83612875565b9150613d7382613d32565b602082019050919050565b60006020820190508181036000830152613d9781613d5b565b9050919050565b7f4e487b7100000000000000000000000000000000000000000000000000000000600052601260045260246000fd5b6000613dd882612925565b9150613de383612925565b925082613df357613df2613d9e565b5b828204905092915050565b6000613e0982612925565b9150613e1483612925565b925082613e2457613e23613d9e565b5b828206905092915050565b7f4e487b7100000000000000000000000000000000000000000000000000000000600052603160045260246000fdfea2646970667358221220f34a298391adbe41323e49bf80c3fa0404f838b2795cc60b0c7ec348a99750cf64736f6c634300080d0033",
  "immutableReferences": {},
  "source": "// SPDX-License-Identifier: MIT\n\npragma solidity 0.8.13;\n\nimport \"@openzeppelin/contracts/token/ERC721/extensions/ERC721Enumerable.sol\";\nimport \"@openzeppelin/contracts/token/ERC721/extensions/ERC721URIStorage.sol\";\n\n/**\n * @title Nft Collection Token Contract\n *\n * @author Jonacity\n *\n * @notice This contract manages the collection tokens\n */\ncontract CollectionToken is ERC721Enumerable, ERC721URIStorage {\n    /**\n     * @dev Initial max supply\n     */\n    uint public maxSupply = 3;\n\n    /**\n     * @dev Collection owner\n     */\n    address public collectionOwner;\n\n    /**\n     * @dev Base URI\n     */\n    string private baseURI;\n\n    /**\n     * @dev Market contract address\n     */\n    address public marketContractAddress;\n\n    /**\n     * @dev Token minted event\n     */\n    event TokenMinted (\n        uint tokenId,\n        address owner,\n        string tokenURI\n    );\n\n    /**\n     * @notice The constructor\n     *\n     * @param _collectionName Collection name\n     * @param _collectionSymbol Collection symbol\n     * @param _newBaseURI Base URI => ipfs://<CID>/\n     * @param _marketContractAddress Market contract address\n     */\n    constructor(\n        address _collectionOwner,\n        string memory _collectionName,\n        string memory _collectionSymbol,\n        string memory _newBaseURI,\n        address _marketContractAddress\n    ) ERC721(_collectionName, _collectionSymbol) {\n        collectionOwner = _collectionOwner;\n        baseURI = _newBaseURI;\n        marketContractAddress = _marketContractAddress;\n    }\n\n    modifier isOwner {\n        require(msg.sender == collectionOwner, \"Not owner\");\n        _;\n    }\n\n    /**\n     * @notice Set max supply\n     *\n     * @param _maxSupply New max supply\n     */\n    function setMaxSupply(uint _maxSupply) external isOwner {\n        require(msg.sender == collectionOwner, \"Not owner\");\n        maxSupply = _maxSupply;\n    }\n\n    /**\n     * @notice Set market contract address\n     *\n     * @param _marketContractAddress New market contract address\n     */\n    function setMarketContractAddress(address _marketContractAddress) external isOwner {\n        require(_marketContractAddress != address(0), \"Address not valid\");\n\n        marketContractAddress = _marketContractAddress;\n    }\n\n    /**\n     * @notice Get base URI\n     *\n     * @return Base URI\n     */\n    function getBaseURI() external view isOwner returns (string memory) {\n        return baseURI;\n    }\n\n    /**\n     * @notice Set base URI\n     *\n     * @param _newBaseURI New base URI\n     */\n    function setBaseURI(string memory _newBaseURI) external isOwner {\n        baseURI = _newBaseURI;\n    }\n\n    /**\n     * @notice Mint the whole collection\n     */\n    function mintCollection(string[] memory tokenMetadataURIs) public isOwner {\n        uint totalSupply = totalSupply();\n        // string[3] memory tokenMetadataURIs = [\n        //     \"mojo-jojo.json\",\n        //     \"morpheus.json\",\n        //     \"biggie.json\"\n        // ];\n        require(totalSupply < maxSupply, \"Unable to mint more items\");\n\n        for (uint i = 0; i < tokenMetadataURIs.length; i++) {\n            totalSupply++;\n            uint newTokenId = totalSupply;\n            super._safeMint(msg.sender, newTokenId);\n            super._setTokenURI(newTokenId, tokenMetadataURIs[i]);\n\n            emit TokenMinted(newTokenId, msg.sender, tokenMetadataURIs[i]);\n        }\n\n        super.setApprovalForAll(marketContractAddress, true);\n    }\n\n    /**\n     * @inheritdoc ERC721Enumerable\n     */\n    function supportsInterface(bytes4 interfaceId)\n        public\n        view\n        override(ERC721, ERC721Enumerable)\n        returns (bool)\n    {\n        return super.supportsInterface(interfaceId);\n    }\n\n    /**\n     * @inheritdoc ERC721URIStorage\n     */\n    function tokenURI(uint256 tokenId)\n        public\n        view\n        override(ERC721, ERC721URIStorage)\n        returns (string memory)\n    {\n        return super.tokenURI(tokenId);\n    }\n\n    /**\n     * @inheritdoc ERC721\n     */\n    function _baseURI() internal view virtual override returns (string memory) {\n        return baseURI;\n    }\n\n    /**\n     * @inheritdoc ERC721Enumerable\n     */\n    function _beforeTokenTransfer(address from, address to, uint256 tokenId)\n        internal\n        override(ERC721, ERC721Enumerable)\n    {\n        super._beforeTokenTransfer(from, to, tokenId);\n    }\n\n    /**\n     * @inheritdoc ERC721URIStorage\n     */\n    function _burn(uint256 tokenId) internal override(ERC721, ERC721URIStorage) {\n        super._burn(tokenId);\n    }\n}\n",
  "sourcePath": "/app/contracts/CollectionToken.sol",
  "compiler": {
    "name": "solc",
    "version": "0.8.13+commit.abaa5c0e.Emscripten.clang"
  },
  "schemaVersion": "3.4.4",
  "updatedAt": "2022-05-14T14:00:57.152Z",
  "devdoc": {
    "author": "Jonacity",
    "events": {
      "TokenMinted(uint256,address,string)": {
        "details": "Token minted event"
      }
    },
    "kind": "dev",
    "methods": {
      "approve(address,uint256)": {
        "details": "See {IERC721-approve}."
      },
      "balanceOf(address)": {
        "details": "See {IERC721-balanceOf}."
      },
      "constructor": {
        "params": {
          "_collectionName": "Collection name",
          "_collectionSymbol": "Collection symbol",
          "_marketContractAddress": "Market contract address",
          "_newBaseURI": "Base URI => ipfs://<CID>/"
        }
      },
      "getApproved(uint256)": {
        "details": "See {IERC721-getApproved}."
      },
      "getBaseURI()": {
        "returns": {
          "_0": "Base URI"
        }
      },
      "isApprovedForAll(address,address)": {
        "details": "See {IERC721-isApprovedForAll}."
      },
      "name()": {
        "details": "See {IERC721Metadata-name}."
      },
      "ownerOf(uint256)": {
        "details": "See {IERC721-ownerOf}."
      },
      "safeTransferFrom(address,address,uint256)": {
        "details": "See {IERC721-safeTransferFrom}."
      },
      "safeTransferFrom(address,address,uint256,bytes)": {
        "details": "See {IERC721-safeTransferFrom}."
      },
      "setApprovalForAll(address,bool)": {
        "details": "See {IERC721-setApprovalForAll}."
      },
      "setBaseURI(string)": {
        "params": {
          "_newBaseURI": "New base URI"
        }
      },
      "setMarketContractAddress(address)": {
        "params": {
          "_marketContractAddress": "New market contract address"
        }
      },
      "setMaxSupply(uint256)": {
        "params": {
          "_maxSupply": "New max supply"
        }
      },
      "supportsInterface(bytes4)": {
        "details": "See {IERC165-supportsInterface}."
      },
      "symbol()": {
        "details": "See {IERC721Metadata-symbol}."
      },
      "tokenByIndex(uint256)": {
        "details": "See {IERC721Enumerable-tokenByIndex}."
      },
      "tokenOfOwnerByIndex(address,uint256)": {
        "details": "See {IERC721Enumerable-tokenOfOwnerByIndex}."
      },
      "tokenURI(uint256)": {
        "details": "See {IERC721Metadata-tokenURI}."
      },
      "totalSupply()": {
        "details": "See {IERC721Enumerable-totalSupply}."
      },
      "transferFrom(address,address,uint256)": {
        "details": "See {IERC721-transferFrom}."
      }
    },
    "stateVariables": {
      "baseURI": {
        "details": "Base URI"
      },
      "collectionOwner": {
        "details": "Collection owner"
      },
      "marketContractAddress": {
        "details": "Market contract address"
      },
      "maxSupply": {
        "details": "Initial max supply"
      }
    },
    "title": "Nft Collection Token Contract",
    "version": 1
  },
  "userdoc": {
    "kind": "user",
    "methods": {
      "constructor": {
        "notice": "The constructor"
      },
      "getBaseURI()": {
        "notice": "Get base URI"
      },
      "mintCollection(string[])": {
        "notice": "Mint the whole collection"
      },
      "setBaseURI(string)": {
        "notice": "Set base URI"
      },
      "setMarketContractAddress(address)": {
        "notice": "Set market contract address"
      },
      "setMaxSupply(uint256)": {
        "notice": "Set max supply"
      }
    },
    "notice": "This contract manages the collection tokens",
    "version": 1
  }
}